:020000040800F2
:100000009007002045010008D70C0008A907000848
:10001000D30C0008F3040008C5120008000000001B
:10002000000000000000000000000000950E000825
:10003000F7040008000000005D0D0008A90F00088B
:100040005F0100085F0100085F0100085F01000810
:100050005F0100085F0100085F0100085F01000800
:100060005F0100085F0100085F0100085F010008F0
:100070005F0100085F0100085F0100085F010008E0
:100080005F0100085F0100085F0100085F010008D0
:100090005F0100085F0100085F0100085F010008C0
:1000A0005F0100085F0100085F0100085F010008B0
:1000B0005F0100085F0100085F0100085F010008A0
:1000C0005F0100085F0100085F0100085F01000890
:1000D0005F0100085F0100080D1000085F010008C3
:1000E0005F0100085F0100085F0100085F01000870
:1000F0005F0100085F0100085F0100085F01000860
:100100005F0100085F0100085F0100085F0100084F
:100110005F0100085F0100085F0100085F0100083F
:100120005F0100085F0100085F0100085F0100082F
:10013000DFF80CD000F06CF800480047951A000872
:10014000900700200648804706480047FEE7FEE784
:10015000FEE7FEE7FEE7FEE7FEE7FEE7FEE7FEE777
:10016000AD0F00083101000840EA01039B0703D0EE
:1001700009E008C9121F08C0042AFAD203E011F8E6
:10018000013B00F8013B521EF9D270472DE9F05FA8
:100190000546002092469B468846064681464024F6
:1001A0001BE0284641464746224600F020F85346C9
:1001B0005A46C01A914110D311461846224600F003
:1001C00039F82D1A67EB01084F462246012000211D
:1001D00000F030F817EB00094E41201EA4F1010495
:1001E000DFDC484631462A464346BDE8F09F202AD8
:1001F00004DB203A21FA02F00021704721FA02F3D1
:10020000D040C2F1200291400843194670470000D7
:10021000064C074D06E0E06840F0010394E8070053
:1002200098471034AC42F6D3FFF786FF581E0008FB
:10023000781E0008202A04DB203A00FA02F1002090
:1002400070479140C2F1200320FA03F31943904014
:10025000704738B504462078012817D1A0780528C2
:100260000FD006DC012809D0022808D004280BD1C1
:1002700006E0A02806D0A12806D104E005E004E0AD
:1002800003E002E001E000E000BF1CE0207802286B
:1002900015D1A078012804D0022803D0A0280DD1C0
:1002A00001E00BE00AE000204FF4C87364224FF431
:1002B00096710090042000F0B3F800BF03E02078AE
:1002C000032800D000BF38BD10B504462B48007885
:1002D000062850D2DFE800F0030B13192C3FAA2C9C
:1002E00001D1012000E000202449087044E0AF2C37
:1002F00001D1022000E00020204908703CE02048A5
:10030000047003201D49087036E01E2C0CDC1C48CC
:10031000447000201B490870002C01DD042000E01F
:1003200005201649087002E000201449087023E0F7
:100330001348801C13490978445412480078401C23
:10034000104908700E4840780978884202D105208B
:100350000A49087010E00A4800F016F8A04203D1DC
:100360000748FFF776FF02E00020044908700020EC
:100370000249087000E000BF00BF10BD450000202A
:100380006C0100204600002010B5014600205920D5
:100390000B7803444C782344D8B2002205E08B1C30
:1003A0009B5C0344D8B2531CDAB24B789342F6DC20
:1003B00010BD0FB430B595B0AA208DF814008DF89B
:1003C00015009DF860008DF816009DF861008DF80D
:1003D00017009DF861200DF1620106A8FFF7C4FE29
:1003E0009DF86100401DC4B21CA80FC88DE80F0025
:1003F00018A80FC800F05FF80546601E05A90D5447
:10040000214605A800F004F815B030BC5DF814FBD7
:1004100070B504460D462946204600F039FF70BDF0
:100420007FB58CB005460024002600208DF8100012
:100430008DF811002146641C0DF1120045549DF801
:1004400035202146641C42549DF834202146641C0A
:1004500042549DF839202146641C42549DF83820AE
:100460002146641C42549DF83D202146641C4254A0
:100470009DF83C202146641C42549DF851202046A2
:10048000611CCCB20DF112010A549DF85020204697
:10049000611CCCB20DF112010A54601EC0B28DF87D
:1004A000110008A80FC88DE80F0004A80FC8FFF7B7
:1004B00080FF10B070BD0FB4002000F1AA02D0B2CE
:1004C00000F1AA02D0B29DF8002002449DF801304C
:1004D0001A44D0B2002106E00DF10202525C02443F
:1004E000D0B24A1CD1B29DF801208A42F4DC04B09B
:1004F000704700BFFEE7704710B5044629488442A4
:1005000008D10121042000F04BFC0021042000F060
:1005100047FC46E02448844208D10121082000F02D
:100520003FFC0021082000F03BFC3AE01F488442D9
:1005300008D10121102000F033FC0021102000F030
:100540002FFC2EE01A48844208D10121202000F01F
:1005500027FC0021202000F023FC22E015488442E3
:1005600008D10121402000F01BFC0021402000F0B8
:1005700017FC16E01048844208D10121802000F0C9
:100580000FFC0021802000F00BFC0AE00B488442A5
:1005900007D10121801500F003FC0021A01500F017
:1005A000FFFB10BD00080140000C0140001001409D
:1005B0000014014000180140001C014000200140CF
:1005C0002DE9F041024600250026002000230024EA
:1005D000002791F803C00CF00F0591F803C00CF050
:1005E000100CBCF1000F03D091F802C04CEA0505D5
:1005F00091F800C0BCF1000F31D0146800202BE04E
:100600004FF0010C0CFA00F3B1F800C00CEA03063D
:100610009E4220D183004FF00F0C0CFA03F7BC432D
:1006200005FA03FC4CEA040491F803C0BCF1280F5E
:1006300006D14FF0010C0CFA00FCC2F814C00AE01D
:1006400091F803C0BCF1480F05D14FF0010C0CFA32
:1006500000FCC2F810C0401C0828D1D31460B1F8C7
:1006600000C0BCF1FF0F34DD546800202EE000F123
:10067000080C4FF0010808FA0CF3B1F800C00CEABE
:1006800003069E4221D183004FF00F0C0CFA03F7B2
:10069000BC4305FA03FC4CEA040491F803C0BCF126
:1006A000280F05D100F1080C08FA0CF8C2F81480E4
:1006B00091F803C0BCF1480F07D100F1080C4FF0CE
:1006C000010808FA0CF8C2F81080401C0828CED3A4
:1006D0005460BDE8F081000070B504460D46164632
:1006E0000121194800F08FF800BF1849164800F0A2
:1006F00069F80028F9D000222146134800F032F9A9
:1007000000BF1349104800F05DF80028F9D03146C9
:100710000D4800F030F900BF0D49891C0A4800F06F
:1007200051F80028F8D02978074800F024F900BFD4
:100730000749891C044800F045F80028F8D0012139
:10074000014800F06CF870BD005800400100030043
:100750008200070008B570200090002269463C2006
:10076000FFF7BAFF012000F004F8012000F00CF8B8
:1007700008BD38B504466007000E009001226946A6
:100780003C20FFF7A9FF38BD38B50446054800787E
:100790000090022269463C20FFF79EFF014804704A
:1007A00038BD00001800002000BFFEE721B102881C
:1007B00042F48062028004E002884FF6FF331A4060
:1007C0000280704770B502460024002500230020F7
:1007D000958A138B1B0445EA030626F07F4404EA3E
:1007E00001068E4201D1012000E0002070BD21B140
:1007F000028842F00102028004E002884FF6FE7394
:100800001A400280704721B1028842F4807202804F
:1008100004E002884FF6FF631A400280704721B15E
:10082000028842F40072028004E002884FF6FF530F
:100830001A40028070470CB5024600200023019345
:10084000009300920B0F019321F07F41019B1BB19C
:10085000009B1433009303E0090C009B18330093B2
:10086000009B1B680B400BB1012000E000200CBD79
:100870002DE9F04385B004460D460026B146042715
:10088000DFF8CC80A6884FF6C0700640684600F0BE
:1008900097FADDF808802F48B8FBF0F01FFA80F9CE
:1008A00046EA0906A68020884FF6FE71084020809F
:1008B00000262949286888420CD828684000B8FBDF
:1008C000F0F087B2042F00DA04273E4309F101005B
:1008D000208427E0E8884BF6FF71884206D128681B
:1008E00000EB4000B8FBF0F087B209E0286800EBAD
:1008F000C00101EB0010B8FBF0F087B247F480476D
:10090000C7F30B0008B947F0010747F4004006435E
:100910004FF4967009FB00F04FF47A7190FBF1F000
:10092000401C2084A683208840F001002080268877
:100930004FF6F5300640A8886989084306432680AB
:10094000A88929890843208105B0BDE8F08300000B
:1009500000127A0040420F00A08601000146088A7A
:10096000C0B2704712B141F0010102E04FF6FE73D0
:10097000194001827047018270471CB501A8062307
:100980001A4675210090D02000F000F99DF804006F
:100990001CBD00002DE9F04106460D4617461C46D9
:1009A00000BF4FF400313248FFF745FF0028F8D16F
:1009B00001212F48FFF727FF00BF2E492C48FFF7E2
:1009C00001FF0028F9D0002231462948FFF7CAFF6D
:1009D00000BF29492648FFF7F5FE0028F9D001217C
:1009E0002348FFF704FF39462148FFF7C4FF00BF43
:1009F0002149891C1E48FFF7E5FE0028F8D0012197
:100A00001B48FFF700FF00BF1A491948FFF7DAFE3D
:100A10000028F9D0012231461548FFF7A3FF00BF97
:100A20001449491C1248FFF7CDFE0028F8D016E003
:100A3000012C07D100210E48FFF7B8FE01210C4818
:100A4000FFF7EDFE0B493F310948FFF7BBFE30B120
:100A50000748FFF783FF28706D1C601E84B2002CCE
:100A6000E6D101210248FFF7A1FEBDE8F0810000B8
:100A700000580040010003008200070070B50446E2
:100A80000D46164601211948FFF7BDFE00BF184963
:100A90001648FFF797FE0028F9D000222146134898
:100AA000FFF760FF00BF13491048FFF78BFE0028D7
:100AB000F9D031460D48FFF75EFF00BF0D49891C94
:100AC0000A48FFF77FFE0028F8D029780748FFF78B
:100AD00052FF00BF0749891C0448FFF773FE002836
:100AE000F8D001210148FFF79AFE70BD0058004080
:100AF000010003008200070000B585B001218805D0
:100B000000F02EF90121082000F03AF94FF440607E
:100B1000ADF8000003208DF802001C208DF80300C2
:100B200069461048FFF74CFD0020ADF808004BF671
:100B3000FF70ADF80A00D020ADF80C004FF48060D3
:100B4000ADF80E000001ADF810000748019001A9B2
:100B50000648FFF78DFE01210448FFF748FE05B067
:100B600000BD0000000C0140A086010000580040BC
:100B700010B5012000F031F8002000F042F800200C
:100B800000F035F8002000F046F810BD2DE9F843DC
:100B900007460E4615461C46DDF8208001233246E6
:100BA00069463846FFF7F6FE0120A040401E291B8B
:100BB000491C884000F0FF099DF8000000EA090088
:100BC0000090281B401C9DF80010014100919DF8E9
:100BD000000088F80000BDE8F88338B50446032318
:100BE00002226B21D020009400F047F838BD38B5C0
:100BF0000446022304221C21D020009400F03DF87A
:100C000038BD38B50446022304221B21D0200094AD
:100C100000F033F838BD10B50446234606226B2198
:100C2000D02000F00AF810BD10B5FFF7A6FE34285A
:100C300001D1012010BD0020FCE7F8B507460D46A4
:100C400014461E4601232A4669463846FFF7A2FE8F
:100C50002EB10120A0409DF80010084305E00120BE
:100C6000A0409DF8001021EA0000C0B200902A4682
:100C700069463846FFF702FFF8BD2DE9F843814683
:100C80000F4615461C46089E01233A4669464846CB
:100C9000FFF780FE0120A040401E291B491C884010
:100CA00000F0FF08281B401C06FA00F0C6B206EA56
:100CB00008069DF8000020EA080000909DF800005A
:100CC000304300903A4669464846FFF7D7FEBDE8F4
:100CD000F88300BFFEE7704770B5002100230F22A4
:100CE000C47804B3154C246804F4E064C4F5E064EB
:100CF000210AC1F10403CA40447804FA03F184785C
:100D00001440214309010E4C0678A155047804F0E3
:100D10001F050124AC4005786D11AD0005F1E025FB
:100D2000C5F8004109E0047804F01F050124AC4037
:100D3000044D0678761145F8264070BD0CED00E0B4
:100D400000E400E080E100E002490143024A116052
:100D5000704700000000FA050CED00E0704700004D
:100D600029B1064AD2690243044BDA6104E0034A1E
:100D7000D2698243014BDA617047000000100240E3
:100D800029B1064A92690243044B9A6104E0034A7E
:100D900092698243014B9A61704700000010024043
:100DA00029B1064AD2680243044BDA6004E0034AE0
:100DB000D2688243014BDA607047000000100240A5
:100DC00030B500210022002400232D4D6D6805F070
:100DD0000C0121B1042905D0082923D105E0294DB2
:100DE000056022E0274D05601FE0254D6D6805F484
:100DF0007012234D6D6805F48034022505EB924294
:100E00001CB9214D554305600BE01D4D6D6805F47F
:100E100000351DB11C4D5543056002E0194D554389
:100E2000056002E0174D056000BF00BF144D6D68FE
:100E300005F0F0010909154D6B5C0568DD40456062
:100E40000F4D6D6805F4E061090A104D6B5C456853
:100E5000DD4085600A4D6D6805F46051C90A0B4D8F
:100E60006B5C4568DD40C560054D6D6805F440412B
:100E7000890B074D6B5CC568B5FBF3F5056130BDAB
:100E80000010024000127A0000093D001900002005
:100E900029000020704710B500F002F810BD0000D6
:100EA0000CB50020019000903348006840F4803079
:100EB0003149086000BF3048006800F400300090FD
:100EC0000198401C0190009818B90198B0F5A06FE6
:100ED000F1D12948006800F4003010B101200090E1
:100EE00001E0002000900098012843D123480068C9
:100EF00040F01000214908600846006820F0030017
:100F000008600846006840F0020008601A4840681F
:100F1000194948600846406848600846406840F4FF
:100F2000806048600846406820F47C1048600846AD
:100F3000406840F4E81048600846006840F080705F
:100F4000086000BF0C48006800F000700028F9D06D
:100F50000948406820F00300074948600846406897
:100F600040F00200486000BF0348406800F00C00F9
:100F70000828F9D10CBD00000010024000200240FA
:100F8000042808D14FF0E021096941F004014FF035
:100F9000E022116107E04FF0E021096921F004012E
:100FA0004FF0E022116170477047000010B5134800
:100FB000006840F001001149086008464068104987
:100FC00008400E494860084600680E4908400B4931
:100FD00008600846006820F48020086008464068E1
:100FE00020F4FE0048604FF41F008860FFF753FFB5
:100FF0004FF000600449086010BD0000001002407E
:101000000000FFF8FFFFF6FE08ED00E010B540F22B
:101010002771184800F051F890B1174800F024F9F2
:1010200004462146134800F008F9134800F015F96A
:10103000F8B9002240F227710E4800F068F818E075
:1010400040F225510B4800F038F890B140F225519C
:10105000084800F017F8074800F0EAF80749087058
:1010600008460078FFF730F904480178044800F09A
:1010700005F910BD0044004054000020100000207D
:101080006000002010B50022002340F66A14A1423F
:1010900000D100BF0A1201249440A3B2DC430480B3
:1010A00010BD21B1828942F40052828104E082891C
:1010B0004DF6FF731A408281704770B502460024D6
:1010C00000230025002040F66A16B14200D100BF7F
:1010D000C1F3421501F01F03012606FA03F3012DA7
:1010E00002D19689334006E0022D02D1168A3340A0
:1010F00001E0968A33400C12012606FA04F41688A1
:10110000344013B10CB1012000E0002070BDF0B5F7
:101110000346002400260025002040F66A17B94245
:1011200000D100BF1846C1F3421401F01F06012789
:1011300007FA06F5012C01D10C3004E0022C01D194
:10114000103000E014301AB107682F43076002E046
:101150000768AF430760F0BD2DE9F04786B005464C
:101160000E460024A24600BFA1460027B08900B168
:1011700000BF2F462C8A4CF6FF700440F0880443D1
:101180002C82AC894EF6F3100440B08831890843B4
:10119000718908430443AC81AC8A4FF6FF40044098
:1011A000B0890443AC8201A8FFF70AFE1F488742BA
:1011B00002D1DDF810A001E0DDF80CA0A88900F450
:1011C000004040B10AEBCA0000EB0A103168490048
:1011D000B0FBF1F807E00AEBCA0000EB0A10316837
:1011E0008900B0FBF1F86420B8FBF0F0040120099D
:1011F000642101FB1089A88900F4004040B132202D
:1012000000EBC900B0FBF1F000F00700044308E078
:10121000322000EB09106421B0FBF1F000F00F0068
:1012200004432C8106B0BDE8F0870000003801407F
:1012300001468888C0F308007047C1F30802828025
:1012400070474FF41651016000218180C1800181F7
:101250000C214181002181817047014608884A881C
:10126000801A8A881040704701464A888B881A4045
:101270008B68985C4A88521C4A8070470288838831
:101280001A40836899540288521C028070470000FB
:1012900070B504460D46002606E021780748FFF7A2
:1012A000EDFF641C701CC6B2AE42F6DB012240F2B8
:1012B00027710348FFF72BFF70BD0000540000208A
:1012C0000044004000BFFEE70FB4054B10B503A972
:1012D000044A029800F018F810BC5DF814FB0000F6
:1012E000511900080C00002002E008C8121F08C1B4
:1012F000002AFAD170477047002001E001C1121F97
:10130000002AFBD1704700002DE9FF4F8DB00F463A
:101310000546002606E025280BD0DDE90F12904790
:101320006D1C761C28780028F5D111B03046BDE838
:10133000F08F0024A246A1460122EC4900E00443BC
:1013400015F8013F203B02FA03F00842F7D1287854
:101350002A2810D06FF02F022878A0F13001092937
:1013600014D80AEB8A0102EB410144F0020400EBBD
:10137000010A6D1CF0E701CF5FEA000A03D544F4CF
:101380000054CAF1000A44F002046D1C28782E288B
:1013900017D115F8010F44F004042A280ED06FF07D
:1013A0002F022878A0F1300109290AD809EB890118
:1013B00002EB410100EB01096D1CF2E757F8049BB9
:1013C0006D1C28786C280FD006DC4C2817D06828B4
:1013D0000DD06A2814D104E0742810D07A280FD1D7
:1013E0000DE044F400140AE044F4801401E044F4F5
:1013F00040146978814202D104F580146D1C6D1C83
:101400002A786E2A1FD00CDC632A31D004DC002A33
:101410008BD0582A11D1A3E0642A68D0692A0CD154
:1014200065E0732A2ED004DC6F2A73D0702A04D1B1
:101430009BE0752A6FD0782A6ED01046DDE90F1236
:101440009047761C50E1C4F30250022806D00328CE
:1014500009D0042801CF09D0066045E101CFF1177A
:10146000C0E9006140E101CF06803DE106703BE14B
:1014700017F8040B8DF8000000208DF80100EB46F2
:10148000012003E057F804BB4FF0FF3061074FF035
:10149000000102D40DE008F10101884649450FDA48
:1014A0008045F8DB1BF808100029F4D108E008F1AA
:1014B000010188468142FADB1BF808100029F6D1A9
:1014C000DDE90F23AAEB08008146214600F036F93A
:1014D000304400EB080604E0DDE90F121BF8010BB5
:1014E0009047B8F10108F7D221464846F7E00A21B3
:1014F000C4F302534FF0000B0891022B04D001CF2C
:10150000C117032B09D00AE0FF1D27F00707F7E8F2
:10151000020108E032E01FE020E000B2C117042B16
:1015200001D140B2C117031E71F1000307DA4FF079
:10153000000CD0EB0C006CEB01012D2302E0230525
:1015400004D52B238DF82430012303E0E30701D0D9
:101550002023F7E7984658E00A2110E010210EE01A
:1015600010204FF0000B08900CE010214FF0000B02
:1015700044F004044FF00809089103E008214FF0FB
:10158000000B0891C4F30253022B04D001CF0021B9
:10159000032B06D006E0FF1D27F00707F7E802013E
:1015A00003E080B2042B00D1C0B24FF00008230743
:1015B0002BD5702A07D0DDF820C08CF0100C5CEA27
:1015C0000B0C05D00EE040238DF82430012308E0F9
:1015D00050EA010306D030238DF824308DF8252001
:1015E00002239846DDF820C08CF0080C5CEA0B0C56
:1015F0000BD150EA010301D1630706D530238DF8E2
:1016000024304FF00108A9F10109582A04D038A26A
:101610000B9208AA0A920BE03AA2F9E75B46089AF5
:10162000FEF7B4FD0B9B9B5C0A9A521E0A92137044
:1016300050EA0102F2D10A98ADEB000000F1200B54
:10164000600702D524F4803401E04FF00109D94548
:1016500002DDA9EB0B0000E0002000EB0B01414490
:101660000890AAEB010AE00306D4DDE90F23214626
:10167000504600F063F806444FF0000908E009A95D
:1016800011F80900DDE90F12904709F10109761CF4
:10169000C145F4DBE0030CD5DDE90F2321465046BC
:1016A00000F04CF8064404E0DDE90F1230209047CA
:1016B000761C0899481E08900029F5DC08E00A9875
:1016C0000A990078491C0A91DDE90F129047761CAF
:1016D000BBF10001ABF1010BF1DC21465046DDE925
:1016E0000F2300F019F806446D1C1BE609280100C1
:1016F0003031323334353637383961626364656688
:101700000000000030313233343536373839414249
:1017100043444546000000002DE9F0410446002501
:101720001E461746880404D405E039462020B047F9
:101730006D1C641EF9D52846BDE8F0812DE9F04105
:10174000044600251E469046C80301D5302700E018
:101750002027880404D505E041463846B0476D1C73
:10176000641EF9D52846BDE8F08100002DE9F0435C
:10177000044607AD95E8E010DDF82C80DFF82090F6
:10178000D9F80000046041608281C3810574467409
:101790008774C0F818C0C0F81C80BDE8F083000052
:1017A0001400002070B586B0002517480468182082
:1017B0000090A28903236169A06800F033F9E289EF
:1017C00004236169A06800F0F9F8208C00210191E0
:1017D0000291CDE903100091D4E90623D4E9000178
:1017E00000F0BEFA0546681C18B94FF0FF3006B08D
:1017F00070BDA27C617C207C00F000FAA06900F042
:101800001CFA0020F3E700001400002010B524208B
:1018100000F060F9044634B9114912A0FFF754FDF5
:101820004FF0FF3010BD01202060400460600420B4
:10183000A060A0810820E08126202074032060742D
:101840000220A0740E4860610E48A0614FF416405B
:10185000E0610C2020840C4804600020E2E70000D6
:10186000411E00085B25735D626C7565746F6F7453
:1018700068206D616C6C6F63206572726F720A0014
:1018800000080140004400401400002010B5044846
:101890000468A06900F0C4F96069FEF72DFE10BD70
:1018A0001400002010B50248006800F05FF810BD79
:1018B0001400002010B586B00024FFF7A7FF0446EF
:1018C00004B12DE04FF41640184900220192CDE9F1
:1018D00002210490262008230422D1030090012035
:1018E000FFF744FFFFF75EFF044604B115E0002058
:1018F0000F49088048807F2088800E48886000203B
:101900000D49088048807F2088800C4888600CA0A2
:10191000FFF7DAFC002006B010BDFFF7B7FF00BFED
:10192000FFF7C0FF4FF0FF30F5E700000044004034
:1019300054000020EC000020600000206C0000201B
:10194000626C7565746F6F7468206F6B0A000000BD
:1019500000BF054A128802F04002002AF9D0C2B244
:10196000014B1B1D1A8070470038014010B500283C
:1019700021D0114B0022001F196803E0814203D8D7
:101980000A4649680029F9D152B11368841A9C4269
:1019900004D1006818441060104602E0506000E076
:1019A000186039B102680B1A934203D10B681A44CC
:1019B00002604968416010BD4C000020F8B5074640
:1019C0000D4616461C46142C05D0102C03D01C2C9A
:1019D00001D0182C06D10A490AA0FFF775FC4FF078
:1019E000FF30F8BD01213846FFF7CAF9ADF80060B5
:1019F0008DF8034069462846FEF7E2FD0020F0E737
:101A0000211E00085B25735D6770696F5F726567F3
:101A100069737465725F696E707574206572726F38
:101A2000720A00002DE9F84380460D4616461F460F
:101A3000089C2CB1042C03D0282C01D0482C07D1B1
:101A40000B490CA0FFF740FC4FF0FF30BDE8F883D6
:101A500001214046FFF794F9ADF800608DF803408E
:101A60008DF8027069462846FEF7AAFD0020EDE7D2
:101A70000C1E00085B25735D6770696F5F72656798
:101A800069737465725F6F757470757420657272B6
:101A90006F720A0000F06AF800F094F9094800F04B
:101AA000CCF8FFF707FF084800F0C7F800F048F847
:101AB00007E00A2000F07CF804A0FFF705FC00F026
:101AC00047F8F6E70038014000440040746573743D
:101AD00000000000F0B50B30154D20F00701002488
:101AE000144A0FE003688B420BD38B4205D95E1A70
:101AF00043184768C3E9006700E04368136002C009
:101B000004E0021D10680028ECD12046002802D114
:101B1000286808B10020F0BD064A07481060074A4F
:101B2000121A22F00702C0E9002401202860D7E73A
:101B3000500000204C000020940100209003002061
:101B400010B5FEF7D9FFFFF713F8FEF703FE10BD3F
:101B500010B5FFF769F80446214602A0FFF7B4FB71
:101B600010BD00004D5055256400000010B56FF009
:101B70000400FFF705FA0A4800680A49B0FBF1F0D3
:101B8000094908700846007800EB4001C1EBC0101D
:101B90004FF6FF7101EAC0000449088010BD000043
:101BA0003000002000127A00000000200200002017
:101BB0000146114A12884A434FF0E0235A6100223D
:101BC0009A611A46126942F001021A6100BF4FF091
:101BD000E022106900F001021AB100F48032002AFC
:101BE000F5D04FF0E022126922F001024FF0E0231D
:101BF0001A6100229A61704702000020F8B506467B
:101C00000C4615468DF800608DF801408DF80250A5
:101C100001208DF803006846FFF75EF80020F8BD4C
:101C200010B50446002240F225512046FFF76FFA16
:101C300000212046FFF735FA10BD10B504460122F9
:101C400040F225512046FFF762FA01212046FFF7B6
:101C500028FA10BD70B586B0002517480468182012
:101C60000090A28903236169A068FFF7DBFEE28987
:101C700004236169A068FFF7A1FE208C0021019177
:101C80000291CDE903100091D4E90623D4E90001C3
:101C900000F066F80546681C18B94FF0FF3006B032
:101CA00070BDA27C617C207CFFF7A8FFA069FFF7D4
:101CB000C4FF0020F3E700000400002010B524203A
:101CC000FFF708FF044634B9114912A0FFF7FCFAE8
:101CD0004FF0FF3010BD0220206040036060042000
:101CE000A060C001A0814000E08125202074032075
:101CF0006074A0740D4860610D48A0614FF4E1303C
:101D0000E0610C2020840B4804600020E2E7000022
:101D1000351E00085B25735D7573617274206D61FB
:101D20006C6C6F63206572726F720A00000801406C
:101D3000003801400400002010B504480468A06980
:101D4000FFF76EFF6069FEF7D7FB10BD04000020AF
:101D500010B502480068FFF709FE10BD040000201E
:101D60002DE9FF5F04460D4616461F46DDE910AB20
:101D7000DDE90E896846FFF764FA012C04D10121E0
:101D80002846FEF7EDFF0BE0022C04D10121284686
:101D9000FEF7F6FF04E04FF0FF3004B0BDE8F09F1F
:101DA0000097ADF80480ADF80690ADF808A0ADF846
:101DB0000CB01298ADF80A0069463046FFF7CCF92E
:101DC0000020EAE710B500244FF4A060FEF7BCFF46
:101DD000FFF774FF044604B10CE0FFF73BFF044635
:101DE00004B104E006A0FFF76FFA002010BDFFF772
:101DF000A3FF00BFFFF7ACFF4FF0FF30F6E7000096
:101E00007573617274204F4B0A0000006770696F30
:101E10005F72656769737465725F6F7574707574EE
:101E2000006770696F5F72656769737465725F6977
:101E30006E7075740075736172745F70726F626535
:101E400000626C7565746F6F74685F756172745F42
:101E500070726F6265000000781E000800000020AC
:101E600054000000E8120008CC1E000854000020B6
:101E70003C070000F812000800000000000000000D
:101E80000000000000000000000000000000000052
:101E90000000000000010203040102030406070819
:101EA000090204060800000000A24A040000000025
:101EB00000000000010203040607080900000000FA
:0C1EC00001000000000000000000000015
:0400000508000131BD
:00000001FF
