:020000040800F2
:100000007807002045010008B9490008B107000839
:10001000B5490008170400085F54000800000000FC
:100020000000000000000000000000001D4C00085F
:100030001B04000800000000C54A0008314D0008FC
:100040005F0100085F0100085F0100085F01000810
:100050005F0100085F0100085F0100085F01000800
:100060005F0100085F0100085F0100085F010008F0
:100070005F0100085F0100085F0100085F010008E0
:100080005F0100085F0100085F0100085F010008D0
:100090005F0100085F0100085F0100085F010008C0
:1000A0005F0100085F0100085F0100085F010008B0
:1000B0005F0100085F0100085F0100085F010008A0
:1000C0005F0100085F0100085F0100085F01000890
:1000D0005F0100085F010008E55100085F010008AA
:1000E0005F0100085F0100085F0100085F01000870
:1000F0005F0100085F0100085F0100085F01000860
:100100005F0100085F0100085F0100085F0100084F
:100110005F0100085F0100085F0100085F0100083F
:100120005F0100085F0100085F0100085F0100082F
:10013000DFF80CD000F04EF900480047A15D000840
:10014000780700200648804706480047FEE7FEE79C
:10015000FEE7FEE7FEE7FEE7FEE7FEE7FEE7FEE777
:10016000354D0008310100082DE9FE4F81EA0304F6
:1001700004F0004421F0004100944FF0000B23F004
:10018000004350EA01045ED052EA03045BD0C3F39B
:100190000A54C1F30A552C44A4F2F3340194A0FB91
:1001A0000254C1F3130141F48011C3F3130343F468
:1001B000801301FB024400FB034E840A970A44EAC1
:1001C000815447EA8357A4FB076802958D0A05FB13
:1001D00007854FEA932C04FB0C542705029D4FEA38
:1001E000065847EA1637B5EB08056EEB070C870E85
:1001F000920E47EA811742EA8312A7FB0201B6EB8F
:100200000B0164EB00042B0D43EA0C335E1844EB46
:100210001C50DA465146E7FB0201C5F313044FEACE
:100220000B3343EA14534FEA0432019C43EA0603BA
:10023000A4F10C040294009CCDE900B400F07CF819
:1002400003B0BDE8F08F00200146F9E70EB540F29B
:10025000334102910021CDE900110A460B4600F01E
:100260006BF803B000BDC1F30A5210B5C1F313011E
:1002700040F2FF3341F480119A4201DA002010BDB0
:1002800040F233439A42A2F2334203DC524200F07E
:1002900034F810BD904010BD2DE9F05F05460020F8
:1002A00092469B4688460646814640241BE02846E7
:1002B00041464746224600F020F853465A46C01AA7
:1002C000914110D311461846224600F095F82D1A98
:1002D00067EB01084F4622460120002100F08CF810
:1002E00017EB00094E41201EA4F10104DFDC484653
:1002F00031462A464346BDE8F09F202A04DB203AD7
:1003000021FA02F00021704721FA02F3D040C2F135
:100310002002914008431946704710B5141E73F12E
:10032000000408DA401C41F1000192185B411A43B5
:1003300001D120F0010010BD2DE9F04D92469B4601
:1003400011B1B1FA81F202E0B0FA80F220329046A7
:1003500000F052F804460F4640EA0A0041EA0B0159
:1003600053465A46084313D0114653EA010019D0A8
:10037000C8F140025046FFF7C0FF05460E46504602
:100380005946424600F038F8084305D0012004E001
:1003900020463946BDE8F08D0020054346EAE07668
:1003A0002C4337430A986305E40AA0EB08000022B7
:1003B000FD0A44EA47540A3002D500200146E9E725
:1003C000010510196941DDE9084500196941BDE8D9
:1003D000F04DA2E7064C074D06E0E06840F001034F
:1003E00094E8070098471034AC42F6D3FFF7A4FE18
:1003F000AC7A0008CC7A0008202A04DB203A00FA04
:1004000002F1002070479140C2F1200320FA03F36B
:1004100019439040704700BFFEE7704751B182001A
:10042000A2F1C042126842F001038200A2F1C04270
:10043000136009E08200A2F1C0421268034B1A4027
:100440008300A3F1C0431A6070470000FEFF0F0055
:10045000D0E901121143C268114302691143426994
:10046000114382691143C2691143026A1143426A0E
:100470001143826A1143C26A1143026B114302683D
:100480009200A2F1C0421160816808290BD1016875
:100490008900A1F1C041096841F04002016889006A
:1004A000A1F1C0410A60416B0968426B526841EAA0
:1004B0000211426B926841EA0221426B928941EA41
:1004C0000241426B128A41EA0251426B127D41EABB
:1004D0000261426B926911430268521C9200A2F1C0
:1004E000C0421160C16AB1F5804F1BD1816B0968B0
:1004F000826B526841EA0211826B926841EA0221E2
:10050000826B128A41EA0251826B127D41EA0261DA
:10051000826B9269114302689200A2F1C042C2F854
:10052000041107E06FF0704201688900A1F1C04139
:10053000C1F804217047000010B5044629488442E0
:1005400008D10121042004F0EFFA0021042004F076
:10055000EBFA46E02448844208D10121082004F047
:10056000E3FA0021082004F0DFFA3AE01F48844251
:1005700008D10121102004F0D7FA0021102004F046
:10058000D3FA2EE01A48844208D10121202004F039
:10059000CBFA0021202004F0C7FA22E0154884425B
:1005A00008D10121402004F0BFFA0021402004F0CE
:1005B000BBFA16E01048844208D10121802004F0E3
:1005C000B3FA0021802004F0AFFA0AE00B4884421D
:1005D00007D10121801504F0A7FA0021A01504F02D
:1005E000A3FA10BD00080140000C014000100140BA
:1005F0000014014000180140001C0140002001408F
:100600002DE9F041024600250026002000230024A9
:10061000002791F803C00CF00F0591F803C00CF00F
:10062000100CBCF1000F03D091F802C04CEA050594
:1006300091F800C0BCF1000F31D0146800202BE00D
:100640004FF0010C0CFA00F3B1F800C00CEA0306FD
:100650009E4220D183004FF00F0C0CFA03F7BC43ED
:1006600005FA03FC4CEA040491F803C0BCF1280F1E
:1006700006D14FF0010C0CFA00FCC2F814C00AE0DD
:1006800091F803C0BCF1480F05D14FF0010C0CFAF2
:1006900000FCC2F810C0401C0828D1D31460B1F887
:1006A00000C0BCF1FF0F34DD546800202EE000F1E3
:1006B000080C4FF0010808FA0CF3B1F800C00CEA7E
:1006C00003069E4221D183004FF00F0C0CFA03F772
:1006D000BC4305FA03FC4CEA040491F803C0BCF1E6
:1006E000280F05D100F1080C08FA0CF8C2F81480A4
:1006F00091F803C0BCF1480F07D100F1080C4FF08E
:10070000010808FA0CF8C2F81080401C0828CED363
:100710005460BDE8F0810000F0B50A4600230024D3
:100720000021002500F00046B6F1004F02D11D4E19
:10073000F16901E01B4E7168C0F3034583B200F418
:100740004016B6F5401F08D121F07061154E76684D
:1007500026F07066134F7E6012E000F48016B6F546
:10076000801F06D1032606FA05F4A14341F070610B
:1007700006E0460D360103FA06F6B14341F070611A
:1007800022B1460D360103FA06F6314300F0004669
:10079000B6F1004F02D1034EF16101E0014E7160EC
:1007A000F0BD0000000001404161704701617047E9
:1007B00000BFFEE770B5044600261748058840884C
:1007C00045431548808846F60401884216D11248F0
:1007D0008079012812D100200F4988712A20488190
:1007E0002B2088810021084603F02AFF01200A49B6
:1007F00088712B2048812A20888103E00021084647
:1008000003F01EFF04F0C4F8002602E00348048051
:10081000761CAE42FAD370BD640100200008006C63
:1008200010B50446002C66D16C498871F020088010
:100830004FF4A07048800846808849F241318842D0
:100840000BD06648808846F60401884205D063488C
:10085000808845F2103188421AD12C205F490881E6
:100860002A2048812B2088810846808846F604018A
:10087000884205D05948808845F21031884206D117
:100880004FF4A070554908804FF4F0704880A1E003
:100890005248808845F21051884210D14FF43050B0
:1008A0004E4908814FF4285048814FF42C508881DC
:1008B0004FF4F07008804FF4487048808AE0474851
:1008C000808841F6631188420DD12C20434908816C
:1008D0002B2048812A2088814FF4F07008804FF443
:1008E0004870488076E022203C49088120204881D9
:1008F000212088816EE00120384988714FF4A07072
:100900000880F02048800846808849F241318842BA
:1009100005D03248808845F21031884207D12C201A
:100920002E4908812A2048812B2088813FE02B48CE
:10093000808846F60401884207D12C202749088187
:100940002B2048812A20888131E02448808845F284
:100950001051884210D14FF43050204908814FF493
:10096000285048814FF42C5088814FF448700880FB
:100970004FF4F07048801AE01848808841F66311FF
:1009800088420DD12C20154908812A2048812B202E
:1009900088814FF4487008804FF4F070488006E07A
:1009A00022200E49088121204881202088810B487F
:1009B000808846F60401884205D00848808845F2C0
:1009C0001031884206D14FF4F070044908804FF48A
:1009D000A0704880002003F0BDFC10BD6401002021
:1009E00030B503460C4615465A48808849F24131D5
:1009F000884205D05748808845F21031884214D18A
:100A00005449488903F0BEFF181203F0B5FFD8B26D
:100A100003F0B2FF4F49888903F0B4FF201203F0BE
:100A2000ABFFE0B203F0A8FF8CE04A48808845F2B3
:100A30001051884220D14749488903F0A3FF18127A
:100A400003F09AFF43494989491C88B203F09AFF91
:100A5000D8B203F091FF3F49888903F093FF201239
:100A600003F08AFF3B498989491C88B203F08AFF59
:100A7000E0B203F081FF65E03648808841F66311FB
:100A8000884228D13348807920B932480088401EF6
:100A9000C01A83B22F49488903F074FF181203F07B
:100AA0006BFFD8B203F068FF181203F065FFD8B2ED
:100AB00003F062FF2749888903F064FF201203F0E6
:100AC0005BFFE0B203F058FF201203F055FFE0B2E5
:100AD00003F052FF36E01F48808846F60401884242
:100AE0001DD11C488079012804D11A480088401E75
:100AF000C01A83B21749488903F044FF181203F063
:100B00003BFFD8B203F038FF1249888903F03AFF5F
:100B1000201203F031FFE0B203F02EFF12E00D4887
:100B20008079012804D10B480088401EC01A83B286
:100B300008494889194603F035FF06498889214646
:100B400003F030FF0348008903490880881C0580B2
:100B500030BD000064010020FE07006C00B59FB0AE
:100B60000121080203F0B0FF01214FF4B47003F03B
:100B7000CBFF0120ADF8780010208DF87B0003201A
:100B80008DF87A001EA9FE48FFF73AFD4CF233704B
:100B9000ADF8780018208DF87B0003208DF87A00DE
:100BA0001EA9F848FFF72CFD4FF68070ADF87800CD
:100BB00018208DF87B0003208DF87A001EA9F248DA
:100BC000FFF71EFD41F20100ADF8780018208DF806
:100BD0007B0003208DF87A001EA9EC48FFF710FD7A
:100BE00001200890002009900F200A9000200B900F
:100BF0000C900D900E900190029003200390002025
:100C0000049005900690079006200F900020109009
:100C100011901020129000201390159014901690AF
:100C200017904FF480501890002019904FF4804096
:100C30001A9000201B9008A81C9001A81D900FA8D6
:100C4000FFF706FC01210620FFF7E8FB322005F044
:100C5000D3F9002003F048FBCD49888008468088FE
:100C6000FF280ADB084680884FF6FF71884204D0CF
:100C7000C7488088B0F5134F7ED1D32003F082FEA1
:100C800003F028FBC249888003F024FBC049888018
:100C900003F020FBBE498880084680884FF6FF712C
:100CA00001EA0020BA49888003F014FBB84989881A
:100CB0000843B74988800846808849F24131884214
:100CC0005AD0BF2003F05EFE03F004FBB0498880D9
:100CD00003F000FBAE49888003F0FCFAAC49888041
:100CE00003F0F8FAAA498880084680884FF6FF7119
:100CF00001EA0020A649888003F0ECFAA44989881B
:100D00000843A34988800846808846F60401884243
:100D10007AD0D42003F036FE03F0DCFA9C498880B8
:100D200003F0D8FA9A49888003F0D4FA9849888069
:100D3000084680884FF6FF7101EA002094498880B8
:100D400003F0C8FA92498988084391498880084687
:100D5000808845F21031884256D04FF45A4003F053
:100D600011FE03F0B7FA8A4988804FF45B4003F024
:100D700009FE03F0AFFA00E046E0854988800846A6
:100D800080884FF6FF7101EA0020814988804FF486
:100D90005C4003F0F7FD03F09DFA7D498988084324
:100DA0007B49888008468088B0F5004F02D145F223
:100DB000105088807648808845F21051884223D0B0
:100DC000A12003F0DFFD03F085FA7149888003F06C
:100DD00081FA6F498880084680884FF6FF7101EAE2
:100DE00000206B49888003F075FA694989880843B7
:100DF000674988800846808845F26171884203D13E
:100E000041F66310624988806148818861A004F0DE
:100E100029FB5F48808849F2413188427ED1CF204A
:100E200003F0B0FD002003F0A7FDC12003F0A4FDF6
:100E3000302003F0A1FDED2003F0A4FD642003F0B9
:100E40009BFD032003F098FD122003F095FD812007
:100E500003F092FDE82003F095FD852003F08CFD62
:100E6000102003F089FD7A2003F086FDCB2003F0EB
:100E700089FD392003F080FD2C2003F07DFD00204A
:100E800003F07AFD342003F077FD022003F074FDB7
:100E9000F72003F077FD202003F06EFDEA2003F039
:100EA00071FD002003F068FD002003F065FDC02007
:100EB00003F068FD1B2003F05FFDC12003F062FD1D
:100EC000012003F059FDC52003F05CFD302003F044
:100ED00053FD302003F050FDC72003F053FDB72031
:100EE00003F04AFD362003F04DFD482003F044FD99
:100EF0003A2003F047FD552003F03EFDB12003F0FA
:100F000041FD002003F038FD1A2003F035FDB62026
:100F100003F038FD0A2003F02FFD00E0AAE0A22034
:100F200003F02AFDF22003F02DFD002003F024FD44
:100F3000262003F027FD012003F01EFDE02003F032
:100F400021FD0F2003F018FD2A2003F015FD2820B5
:100F500003F012FD082003F00FFD0E2003F00CFD3E
:100F6000082003F009FD542003F006FDA92003F03A
:100F700003FD432003F000FD0A2003F0FDFC11E017
:100F8000000C014000140140001801400020014005
:100F900064010020204C43442049443A25780D0A3E
:100FA000000000000F2003F0E7FC002003F0E4FC49
:100FB000002003F0E1FC002003F0DEFC002003F041
:100FC000DBFCE12003F0DEFC002003F0D5FC152063
:100FD00003F0D2FC172003F0CFFC072003F0CCFC79
:100FE000112003F0C9FC062003F0C6FC2B2003F0FF
:100FF000C3FC562003F0C0FC3C2003F0BDFC0520E0
:1010000003F0BAFC102003F0B7FC0F2003F0B4FC8F
:101010003F2003F0B1FC3F2003F0AEFC0F2003F0B3
:10102000ABFC2B2003F0AEFC002003F0A5FC00205D
:1010300003F0A2FC012003F09FFC3F2003F09CFC86
:101040002A2003F09FFC002003F096FC002003F010
:1010500093FC002003F090FCEF2003F08DFC1120A6
:1010600003F090FC782004F0C7FF292003F08AFCED
:1010700003F01DB9FE48808846F6040188427CD101
:10108000112003F07FFC142004F0B6FFD02003F001
:1010900079FC072003F070FC422003F06DFC1D205A
:1010A00003F06AFCD12003F06DFC002003F064FC27
:1010B0001A2003F061FC092003F05EFCD22003F04B
:1010C00061FC012003F058FC222003F055FCC020F5
:1010D00003F058FC102003F04FFC3B2003F04CFCC5
:1010E000002003F049FC022003F046FC112003F02D
:1010F00043FCC52003F046FC032003F03DFCC82060
:1011000003F040FC002003F037FC252003F034FC02
:10111000212003F031FC052003F02EFC002003F019
:101120002BFC0A2003F028FC652003F025FC252079
:1011300003F022FC772003F01FFC502003F01CFC7E
:101140000F2003F019FC002003F016FCF82003F038
:1011500019FC012003F010FCFE2003F013FC00201A
:1011600003F00AFC022003F007FC202003F00AFC35
:10117000362003F007FC082000E02CE003F0FCFB25
:101180003A2003F0FFFB552003F0F6FB2B2003F081
:10119000F9FB002003F0F0FB002003F0EDFB012041
:1011A00003F0EAFB3F2003F0E7FB2A2003F0EAFB11
:1011B000002003F0E1FB002003F0DEFB012003F040
:1011C000DBFBDF2003F0D8FB782004F015FF29209B
:1011D00003F0D8FB4CE7A648808845F210318842DE
:1011E00040F07C87ED2003F0CDFB012003F0C4FB31
:1011F000FE2003F0C1FBEE2003F0C4FBDE2003F071
:10120000BBFB212003F0B8FBF12003F0BBFB012066
:1012100003F0B2FBDF2003F0B5FB102003F0ACFBC2
:10122000C42003F0AFFB8F2003F0A6FBC62003F021
:10123000A9FB002003F0A0FBE22003F09DFBE220CD
:1012400003F09AFBE22003F097FBBF2003F09AFB28
:10125000AA2003F091FBB02003F094FB0D2003F0D3
:101260008BFB002003F088FB0D2003F085FB0020A2
:1012700003F082FB112003F07FFB002003F07CFBD6
:10128000192003F079FB002003F076FB212003F006
:1012900073FB002003F070FB2D2003F06DFB00209A
:1012A00003F06AFB3D2003F067FB002003F064FBC2
:1012B0005D2003F061FB002003F05EFB5D2003F086
:1012C0005BFB002003F058FBB12003F05BFB8020A8
:1012D00003F052FB002003F04FFB8B2003F04CFB8C
:1012E000002003F049FB962003F046FB002003F0AA
:1012F00043FBB22003F046FB002003F03DFB00203F
:1013000003F03AFB022003F037FB002003F034FB2C
:10131000032003F031FB002003F02EFBB32003F089
:1013200031FB002003F028FB002003F025FB002008
:1013300003F022FB002003F01FFB002003F01CFB46
:10134000002003F019FB002003F016FB002003F03F
:1013500013FB002003F010FB002003F00DFB002026
:1013600003F00AFB002003F007FB002003F004FB5E
:10137000002003F001FB002003F0FEFA002003F040
:10138000FBFA002003F0F8FA002003F0F5FA002041
:1013900003F0F2FA002003F0EFFA002003F0ECFA79
:1013A000002003F0E9FA002003F0E6FA002003F041
:1013B000E3FAB42003F0E6FA8B2003F0DDFA002014
:1013C00003F0DAFA962003F0D7FA002003F0D4FAFB
:1013D000A12003F0D1FA002003F0CEFAB52003F0EB
:1013E000D1FA022003F0C8FA002003F0C5FA032066
:1013F00003F0C2FA002003F0BFFA042003F0BCFAA5
:10140000002003F0B9FAB62003F0BCFA002003F084
:10141000B3FA002003F0B0FAB72003F0B3FA0020CB
:1014200003F0AAFA002003F0A7FA3F2003F0A4FA81
:10143000002003F0A1FA5E2003F09EFA002003F0E2
:101440009BFA642003F098FA002003F095FA8C20B0
:1014500003F092FA002003F08FFAAC2003F08CFA2C
:10146000002003F089FADC2003F086FA002001E076
:101470006401002003F080FA702003F07DFA002060
:1014800003F07AFA902003F077FA002003F074FA60
:10149000EB2003F071FA002003F06EFADC2003F079
:1014A0006BFA002003F068FAB82003F06BFA002012
:1014B00003F062FA002003F05FFA002003F05CFA08
:1014C000002003F059FA002003F056FA002003F040
:1014D00053FA002003F050FA002003F04DFABA202E
:1014E00003F050FA242003F047FA002003F044FAF6
:1014F000002003F041FA002003F03EFAC12003F07F
:1015000041FA202003F038FA002003F035FA542085
:1015100003F032FA002003F02FFAFF2003F02CFA38
:10152000002003F029FAC22003F02CFA0A2003F06D
:1015300023FA002003F020FA042003F01DFA002013
:1015400003F01AFAC32003F01DFA3C2003F014FA4A
:10155000002003F011FA3A2003F00EFA002003F005
:101560000BFA392003F008FA002003F005FA3720BF
:1015700003F002FA002003F0FFF93C2003F0FCF92D
:10158000002003F0F9F9362003F0F6F9002003F00B
:10159000F3F9322003F0F0F9002003F0EDF92F20E9
:1015A00003F0EAF9002003F0E7F92C2003F0E4F956
:1015B000002003F0E1F9292003F0DEF9002003F018
:1015C000DBF9262003F0D8F9002003F0D5F9242018
:1015D00003F0D2F9002003F0CFF9242003F0CCF976
:1015E000002003F0C9F9232003F0C6F9002003F01E
:1015F000C3F93C2003F0C0F9002003F0BDF9362008
:1016000003F0BAF9002003F0B7F9322003F0B4F97F
:10161000002003F0B1F92F2003F0AEF9002003F011
:10162000ABF92C2003F0A8F9002003F0A5F929203C
:1016300003F0A2F9002003F09FF9262003F09CF9A3
:10164000002003F099F9242003F096F9002003F01C
:1016500093F9242003F090F9002003F08DF9232062
:1016600003F08AF9002003F087F9C42003F08AF917
:10167000622003F081F9002003F07EF9052003F0D9
:101680007BF9002003F078F9842003F075F900203D
:1016900003F072F9F02003F06FF9002003F06CF909
:1016A000182003F069F9002003F066F9A42003F084
:1016B00063F9002003F060F9182003F05DF90020C1
:1016C00003F05AF9502003F057F9002003F054F9C1
:1016D0000C2003F051F9002003F04EF9172003F01D
:1016E0004BF9002003F048F9952003F045F900205C
:1016F00003F042F9F32003F03FF9002003F03CF936
:10170000E62003F039F9002003F036F9C52003F094
:1017100039F9322003F030F9002003F02DF944208C
:1017200003F02AF9002003F027F9652003F024F9DB
:10173000002003F021F9762003F01EF9002003F0C9
:101740001BF9882003F018F9002003F015F9C620D2
:1017500003F018F9202003F00FF9002003F00CF932
:10176000172003F009F9002003F006F9012003F027
:1017700003F9002003F000F9C72003F003F900206B
:1017800003F0FAF8002003F0F7F8002003F0F4F873
:10179000002003F0F1F8C82003F0F4F8002003F073
:1017A000EBF8002003F0E8F8002003F0E5F8002053
:1017B00003F0E2F8C92003F0E5F8002003F0DCF8BC
:1017C000002003F0D9F8002003F0D6F8002003F041
:1017D000D3F8002003F0D0F8002003F0CDF800206B
:1017E00003F0CAF8002003F0C7F8002003F0C4F8A3
:1017F000002003F0C1F8002003F0BEF8002003F041
:10180000BBF8002003F0B8F8002003F0B5F8002082
:1018100003F0B2F8002003F0AFF8E02003F0B2F8D4
:10182000162003F0A9F8002003F0A6F81C2003F00E
:10183000A3F8002003F0A0F8212003F09DF8002079
:1018400003F09AF8362003F097F8002003F094F89C
:10185000462003F091F8002003F08EF8522003F0A8
:101860008BF8002003F088F8642003F085F800204E
:1018700003F082F87A2003F07FF8002003F07CF870
:101880008B2003F079F8002003F076F8992003F01C
:1018900073F8002003F070F8A82003F06DF8002022
:1018A00003F06AF8B92003F067F8002003F064F849
:1018B000C42003F061F8002003F05EF8CA2003F0B2
:1018C0005BF8002003F058F8D22003F055F8002010
:1018D00003F052F8D92003F04FF8002003F04CF841
:1018E000E02003F049F8002003F046F8F32003F06D
:1018F00043F8002003F040F8E12003F043F81620FD
:1019000003F03AF8002003F037F81C2003F034F815
:10191000002003F031F8222003F02EF8002003F01D
:101920002BF8362003F028F8002003F025F8452096
:1019300003F022F8002003F01FF8522003F01CF8F7
:10194000002003F019F8642003F016F8002003F0DB
:1019500013F87A2003F010F8002003F00DF88B2024
:1019600003F00AF8002003F007F8992003F004F8C8
:10197000002003F001F8A82002F0FEFF002002F092
:10198000FBFFB92002F0F8FF002002F0F5FFC420B1
:1019900002F0F2FF002002F0EFFFCA2002F0ECFF9D
:1019A000002002F0E9FFD22002F0E6FF002002F062
:1019B000E3FFD82002F0E0FF002002F0DDFFE0208E
:1019C00002F0DAFF002002F0D7FFF32002F0D4FF8C
:1019D000002002F0D1FFE22002F0D4FF052002F047
:1019E000CBFF002002F0C8FF0B2002F0C5FF002053
:1019F00002F0C2FF1B2002F0BFFF002002F0BCFF7C
:101A0000342002F0B9FF002002F0B6FF442002F0BB
:101A1000B3FF002002F0B0FF4F2002F0ADFF002026
:101A200002F0AAFF612002F0A7FF002002F0A4FF4D
:101A3000792002F0A1FF002002F09EFF882002F032
:101A40009BFF002002F098FF972002F095FF0020F6
:101A500002F092FFA62002F08FFF002002F08CFF20
:101A6000B72002F089FF002002F086FFC22002F0BA
:101A700083FF002002F080FFC72002F07DFF0020DE
:101A800002F07AFFD12002F077FF002002F074FF0D
:101A9000D62002F071FF002002F06EFFDD2002F080
:101AA0006BFF002002F068FFF32002F065FF0020CA
:101AB00002F062FFE32002F065FF052002F05CFF08
:101AC000002002F059FF0A2002F056FF002002F029
:101AD00053FF1C2002F050FF002002F04DFF332086
:101AE00002F04AFF002002F047FF442002F044FFCA
:101AF000002002F041FF502002F03EFF002002F0E3
:101B00003BFF622002F038FF002002F035FF782012
:101B100002F032FF002002F02FFF882002F02CFF9D
:101B2000002002F029FF972002F026FF002002F09B
:101B300023FFA62002F020FF002002F01DFFB720A7
:101B400002F01AFF002002F017FFC22002F014FF7B
:101B5000002002F011FFC72002F00EFF002002F06B
:101B60000BFFD12002F008FF002002F005FFD52076
:101B700002F002FF002002F0FFFEDD2002F0FCFE7A
:101B8000002002F0F9FEF32002F0F6FE002002F041
:101B9000F3FEE42002F0F6FE012002F0EDFE00204C
:101BA00002F0EAFE012002F0E7FE002002F0E4FE6F
:101BB000022002F0E1FE002002F0DEFE2A2002F008
:101BC000DBFE002002F0D8FE3C2002F0D5FE002013
:101BD00002F0D2FE4B2002F0CFFE002002F0CCFE3D
:101BE0005D2002F0C9FE002002F0C6FE742002F063
:101BF000C3FE002002F0C0FE842002F0BDFE0020E3
:101C000002F0BAFE932002F0B7FE002002F0B4FE0C
:101C1000A22002F0B1FE002002F0AEFEB32002F0DE
:101C2000ABFE002002F0A8FEBE2002F0A5FE0020C0
:101C300002F0A2FEC42002F09FFE002002F09CFEF3
:101C4000CD2002F099FE002002F096FED32002F093
:101C500093FE002002F090FEDD2002F08DFE0020B9
:101C600002F08AFEF32002F087FE002002F084FEDC
:101C7000E52002F087FE002002F07EFE002002F048
:101C80007BFE002002F078FE002002F075FE0220AC
:101C900002F072FE002002F06FFE292002F06CFEBE
:101CA000002002F069FE3C2002F066FE002002F0F7
:101CB00063FE4B2002F060FE002002F05DFE5D201E
:101CC00002F05AFE002002F057FE742002F054FE8B
:101CD000002002F051FE842002F04EFE002002F0AF
:101CE0004BFE932002F048FE002002F045FEA220A9
:101CF00002F042FE002002F03FFEB32002F03CFE64
:101D0000002002F039FEBE2002F036FE002002F074
:101D100033FEC42002F030FE002002F02DFECD2064
:101D200002F02AFE002002F027FED32002F024FE5B
:101D3000002002F021FEDC2002F01EFE002002F056
:101D40001BFEF32002F018FE002002F015FEE62034
:101D500002F018FE112002F00FFE002002F00CFE2F
:101D6000342002F009FE002002F006FE562002F0A8
:101D700003FE002002F000FE762002F0FDFD0020B0
:101D800002F0FAFD772002F0F7FD002002F0F4FDEA
:101D9000662002F0F1FD002002F0EEFD882002F046
:101DA000EBFD002002F0E8FD992002F0E5FD0020A7
:101DB00002F0E2FDBB2002F0DFFD002002F0DCFDBE
:101DC000992002F0D9FD002002F0D6FD662002F035
:101DD000D3FD002002F0D0FD552002F0CDFD002003
:101DE00002F0CAFD552002F0C7FD002002F0C4FD3C
:101DF000452002F0C1FD002002F0BEFD432002F0AC
:101E0000BBFD002002F0B8FD442002F0B5FD00202B
:101E100002F0B2FDE72002F0B5FD322002F0ACFD89
:101E2000002002F0A9FD552002F0A6FD002002F0DE
:101E3000A3FD762002F0A0FD002002F09DFD6620AB
:101E400002F09AFD002002F097FD672002F094FD59
:101E5000002002F091FD672002F08EFD002002F0CC
:101E60008BFD872002F088FD002002F085FD99207F
:101E700002F082FD002002F07FFDBB2002F07CFD1D
:101E8000002002F079FD992002F076FD002002F09A
:101E900073FD772002F070FD002002F06DFD4420FC
:101EA00002F06AFD002002F067FD562002F064FD9A
:101EB000002002F061FD232002F05EFD002002F010
:101EC0005BFD332002F058FD002002F055FD452057
:101ED00002F052FD002002F04FFDE82002F052FD1A
:101EE000002002F049FD002002F046FD992002F09A
:101EF00043FD002002F040FD872002F03DFD002060
:101F000002F03AFD882002F037FD002002F034FD97
:101F1000772002F031FD002002F02EFD662002F055
:101F20002BFD002002F028FD882002F025FD002076
:101F300002F022FDAA2002F01FFD002002F01CFD8D
:101F4000BB2002F019FD002002F016FD992002F0DE
:101F500013FD002002F010FD662002F00DFD0020B0
:101F600002F00AFD552002F007FD002002F004FDFA
:101F7000552002F001FD002002F0FEFC442002F09A
:101F8000FBFC002002F0F8FC442002F0F5FC0020ED
:101F900002F0F2FC552002F0EFFC002002F0ECFC15
:101FA000E92002F0EFFCAA2002F0E6FC002002F09B
:101FB000E3FC002002F0E0FC002002F0DDFC002049
:101FC00002F0E0FCAA2002F0D7FCCF2002F0DAFCFD
:101FD000002002F0D1FC002002F0CEFC002002F034
:101FE000CBFC002002F0C8FC002002F0C5FC002061
:101FF00002F0C2FC002002F0BFFC002002F0BCFC9A
:10200000002002F0B9FC002002F0B6FC002002F033
:10201000B3FC002002F0B0FC002002F0ADFC002078
:1020200002F0AAFC002002F0A7FC002002F0A4FCB1
:10203000002002F0A1FCF02002F0A4FC002002F03D
:102040009BFC502002F098FC002002F095FC002040
:1020500002F092FC002002F08FFCF32002F092FCD0
:10206000002002F089FCF92002F08CFC062002F02E
:1020700083FC102002F080FC292002F07DFC00206F
:1020800002F07AFC3A2002F07DFC552002F074FC4C
:10209000112002F077FC642003F0AEFF292002F04B
:1020A00071FC352002F06EFC002002F065FC51202E
:1020B00002F068FCFF2002F05FFC532002F062FC9B
:1020C0002C2002F059FC552002F05CFC822002F02A
:1020D00053FC2C2002F056FC02F0E9B8FE48808840
:1020E00045F2105188427DD155214FF4704002F0E5
:1020F00059FCAA214FF2010002F054FC52214FF288
:10210000020002F04FFC08214FF2030002F04AFCEB
:1021100001214FF2040002F045FC0D214FF4304044
:1021200002F040FC0D214BF2010002F03BFC0D21BE
:102130004BF2020002F036FC34214FF4364002F03C
:1021400031FC34214BF2016002F02CFC34214BF2C3
:10215000026002F027FC0D214FF4314002F022FC16
:102160000D214BF2011002F01DFC0D214BF202106B
:1021700002F018FC34214FF4374002F013FC3421F4
:102180004BF2017002F00EFC34214BF2027002F0AF
:1021900009FC00214FF4324002F004FC00214BF214
:1021A000012002F0FFFB00214BF2022002F0FAFBBB
:1021B00024214FF4384002F0F5FB24214BF60100B6
:1021C00002F0F0FB24214BF6020002F0EBFB0121B0
:1021D0004FF43F4002F0E6FB0F214FF4334002F092
:1021E000E1FB00E0FDE30F214BF2013002F0DAFBEE
:1021F0000F214BF2023002F0D5FB34214FF439406D
:1022000002F0D0FB34214BF6011002F0CBFB34215D
:102210004BF6021002F0C6FB08214FF4354002F0E5
:10222000C1FB08214BF2015002F0BCFB08214BF22C
:10223000025002F0B7FB03214FF4424002F0B2FB20
:1022400024214FF43A4002F0ADFB24214BF601204B
:1022500002F0A8FB24214BF6022002F0A3FB002190
:102260004FF43C4002F09EFB78214BF6014002F017
:1022700099FB00214BF6024002F094FB00214FF441
:102280003D4002F08FFB78214BF6015002F08AFBB3
:1022900000214BF6025002F085FB00214FF43E4036
:1022A00002F080FB64214BF6016002F07BFB002111
:1022B0004FF4514002F076FB33214DF2011002F051
:1022C00071FB00214DF2021002F06CFB34214DF243
:1022D000031002F067FB00214DF2041002F062FBD4
:1022E0003A214DF2051002F05DFB00214DF206107F
:1022F00002F058FB4A214DF2071002F053FB002177
:102300004DF2081002F04EFB5C214DF2091002F074
:1023100049FB00214DF20A1002F044FB81214DF2ED
:102320000B1002F03FFB00214DF20C1002F03AFBC3
:10233000A6214DF20D1002F035FB00214DF20E10DA
:1023400002F030FBE5214DF20F1002F02BFB0121D2
:102350004DF2101002F026FB13214DF2111002F085
:1023600021FB01214DF2121002F01CFB54214DF211
:10237000131002F017FB01214DF2141002F012FBB2
:1023800082214DF2151002F00DFB01214DF21610C5
:1023900002F008FBCA214DF2171002F003FB0221E4
:1023A0004DF2181002F0FEFA00214DF2191002F061
:1023B000F9FA02214DF21A1002F0F4FA01214DF25D
:1023C0001B1002F0EFFA02214DF21C1002F0EAFAA3
:1023D00034214DF21D1002F0E5FA02214DF21E10DB
:1023E00002F0E0FA67214DF21F1002F0DBFA022141
:1023F0004DF2201002F0D6FA84214DF2211002F0A5
:10240000D1FA02214DF2221002F0CCFAA4214DF2B1
:10241000231002F0C7FA02214DF2241002F0C2FA92
:10242000B7214DF2251002F0BDFA02214DF226101F
:1024300002F0B8FACF214DF2271002F0B3FA0221D0
:102440004DF2281002F0AEFADE214DF2291002F012
:10245000A9FA02214DF22A1002F0A4FAF2214DF25B
:102460002B1002F09FFA02214DF22C1002F09AFA82
:10247000FE214DF22D1002F095FA03214DF22E109F
:1024800002F090FA10214DF22F1002F08BFA032186
:102490004DF2301002F086FA33214DF2311002F085
:1024A00081FA03214DF2321002F07CFA6D214DF2D7
:1024B000331002F077FA00214FF4524002F072FA22
:1024C00033214DF2012002F06DFA00214DF202207D
:1024D00002F068FA342101E0640100204DF203208B
:1024E00002F060FA00214DF2042002F05BFA3A217A
:1024F0004DF2052002F056FA00214DF2062002F0BE
:1025000051FA4A214DF2072002F04CFA00214DF217
:10251000082002F047FA5C214DF2092002F042FA4D
:1025200000214DF20A2002F03DFA81214DF20B20EC
:1025300002F038FA00214DF20C2002F033FAA62105
:102540004DF20D2002F02EFA00214DF20E2002F085
:1025500029FAE5214DF20F2002F024FA01214DF273
:10256000102002F01FFA13214DF2112002F01AFA86
:1025700001214DF2122002F015FA54214DF21320E0
:1025800002F010FA01214DF2142002F00BFA822120
:102590004DF2152002F006FA01214DF2162002F04C
:1025A00001FACA214DF2172002F0FCF902214DF286
:1025B000182002F0F7F900214DF2192002F0F2F98B
:1025C00002214DF21A2002F0EDF901214DF21B20FB
:1025D00002F0E8F902214DF21C2002F0E3F9342167
:1025E0004DF21D2002F0DEF902214DF21E2002F014
:1025F000D9F967214DF21F2002F0D4F902214DF2E2
:10260000202002F0CFF984214DF2212002F0CAF9F6
:1026100002214DF2222002F0C5F9A4214DF223201F
:1026200002F0C0F902214DF2242002F0BBF9B721DB
:102630004DF2252002F0B6F902214DF2262002F0DB
:10264000B1F9CF214DF2272002F0ACF902214DF271
:10265000282002F0A7F9DE214DF2292002F0A2F98C
:1026600002214DF22A2002F09DF9F2214DF22B2099
:1026700002F098F902214DF22C2002F093F9FE218C
:102680004DF22D2002F08EF903214DF22E2002F0A2
:1026900089F910214DF22F2002F084F903214DF227
:1026A000302002F07FF933214DF2312002F07AF927
:1026B00003214DF2322002F075F96D214DF23320E5
:1026C00002F070F900214FF4534002F06BF933210E
:1026D0004DF2013002F066F900214DF2023002F0B5
:1026E00061F934214DF2033002F05CF900214DF222
:1026F000043002F057F93A214DF2053002F052F958
:1027000000214DF2063002F04DF94A214DF207301A
:1027100002F048F900214DF2083002F043F95C2143
:102720004DF2093002F03EF900214DF20A3002F07C
:1027300039F981214DF20B3002F034F900214DF2CC
:102740000C3002F02FF9A6214DF20D3002F02AF9DB
:1027500000214DF20E3002F025F9E5214DF20F3047
:1027600002F020F901214DF2103002F01BF9132183
:102770004DF2113002F016F901214DF2123002F043
:1027800011F954214DF2133002F00CF901214DF2F0
:10279000143002F007F982214DF2153002F002F9EF
:1027A00001214DF2163002F0FDF8CA214DF217302A
:1027B00002F0F8F802214DF2183002F0F3F800218F
:1027C0004DF2193002F0EEF802214DF21A3002F00B
:1027D000E9F801214DF21B3002F0E4F802214DF23C
:1027E0001C3002F0DFF834214DF21D3002F0DAF82F
:1027F00002214DF21E3002F0D5F867214DF21F3054
:1028000002F0D0F802214DF2203002F0CBF8842102
:102810004DF2213002F0C6F802214DF2223002F0D2
:10282000C1F8A4214DF2233002F0BCF802214DF290
:10283000243002F0B7F8B7214DF2253002F0B2F89B
:1028400002214DF2263002F0ADF8CF214DF22730B3
:1028500002F0A8F802214DF2283002F0A3F8DE21A0
:102860004DF2293002F09EF802214DF22A3002F09A
:1028700099F8F2214DF22B3002F094F802214DF23A
:102880002C3002F08FF8FE214DF22D3002F08AF844
:1028900003214DF22E3002F085F810214DF22F3039
:1028A00002F080F803214DF2303002F07BF8332142
:1028B0004DF2313002F076F803214DF2323002F061
:1028C00071F86D214DF2333002F06CF800214FF4B5
:1028D000544002F067F833214DF2014002F062F8F3
:1028E00000214DF2024002F05DF834214DF2034028
:1028F00002F058F800214DF2044002F053F83A215A
:102900004DF2054002F04EF800214DF2064002F073
:1029100049F84A214DF2074002F044F800214DF2F7
:10292000084002F03FF85C214DF2094002F03AF80D
:1029300000214DF20A4002F035F881214DF20B40A2
:1029400002F030F800214DF20C4002F02BF8A621E5
:102950004DF20D4002F026F800214DF20E4002F03B
:1029600021F8E5214DF20F4002F01CF801214DF253
:10297000104002F017F813214DF2114002F012F846
:1029800001214DF2124002F00DF854214DF2134096
:1029900002F008F801214DF2144002F003F8822100
:1029A0004DF2154001F0FEFF01214DF2164001F0FD
:1029B000F9FFCA214DF2174001F0F4FF02214DF258
:1029C000184001F0EFFF00214DF2194001F0EAFF3D
:1029D00002214DF21A4001F0E5FF01214DF21B40AA
:1029E00000E006E301F0DEFF02214DF21C4001F0A1
:1029F000D9FF34214DF21D4001F0D4FF02214DF2E8
:102A00001E4001F0CFFF67214DF21F4001F0CAFFC9
:102A100002214DF2204001F0C5FF84214DF22140FA
:102A200001F0C0FF02214DF2224001F0BBFFA421C2
:102A30004DF2234001F0B6FF02214DF2244001F097
:102A4000B1FFB7214DF2254001F0ACFF02214DF25C
:102A5000264001F0A7FFCF214DF2274001F0A2FF51
:102A600002214DF2284001F09DFFDE214DF2294068
:102A700001F098FF02214DF22A4001F093FFF2216C
:102A80004DF22B4001F08EFF02214DF22C4001F05F
:102A900089FFFE214DF22D4001F084FF03214DF20C
:102AA0002E4001F07FFF10214DF22F4001F07AFF00
:102AB00003214DF2304001F075FF33214DF23140DA
:102AC00001F070FF03214DF2324001F06BFF6D21E8
:102AD0004DF2334001F066FF00214FF4554001F004
:102AE00061FF33214DF2015001F05CFF00214DF2F6
:102AF000025001F057FF34214DF2035001F052FF14
:102B000000214DF2045001F04DFF3A214DF20550E5
:102B100001F048FF00214DF2065001F043FF4A2129
:102B20004DF2075001F03EFF00214DF2085001F038
:102B300039FF5C214DF2095001F034FF00214DF2C4
:102B40000A5001F02FFF81214DF20B5001F02AFFB6
:102B500000214DF20C5001F025FFA6214DF20D5041
:102B600001F020FF00214DF20E5001F01BFFE52186
:102B70004DF20F5001F016FF01214DF2105001F0FF
:102B800011FF13214DF2115001F00CFF01214DF204
:102B9000125001F007FF54214DF2135001F002FFD3
:102BA00001214DF2145001F0FDFE82214DF215502D
:102BB00001F0F8FE01214DF2165001F0F3FECA219A
:102BC0004DF2175001F0EEFE02214DF2185001F0C7
:102BD000E9FE00214DF2195001F0E4FE02214DF210
:102BE0001A5001F0DFFE01214DF21B5001F0DAFE18
:102BF00002214DF21C5001F0D5FE34214DF21D5042
:102C000001F0D0FE02214DF21E5001F0CBFE6721F3
:102C10004DF21F5001F0C6FE02214DF2205001F08E
:102C2000C1FE84214DF2215001F0BCFE02214DF283
:102C3000225001F0B7FEA4214DF2235001F0B2FE64
:102C400002214DF2245001F0ADFEB7214DF2255086
:102C500001F0A8FE02214DF2265001F0A3FECF2183
:102C60004DF2275001F09EFE02214DF2285001F056
:102C700099FEDE214DF2295001F094FE02214DF221
:102C80002A5001F08FFEF2214DF22B5001F08AFE06
:102C900002214DF22C5001F085FEFE214DF22D5007
:102CA00001F080FE03214DF22E5001F07BFE102139
:102CB0004DF22F5001F076FE03214DF2305001F01D
:102CC00071FE33214DF2315001F06CFE03214DF2C3
:102CD000325001F067FE6D214DF2335001F062FE7B
:102CE00000214FF4564001F05DFE33214DF20160AA
:102CF00001F058FE00214DF2026001F053FE342134
:102D00004DF2036001F04EFE00214DF2046001F02F
:102D100049FE3A214DF2056001F044FE00214DF2DA
:102D2000066001F03FFE4A214DF2076001F03AFED5
:102D300000214DF2086001F035FE5C214DF2096082
:102D400001F030FE00214DF20A6001F02BFE8121DE
:102D50004DF20B6001F026FE00214DF20C6001F0F7
:102D600021FEA6214DF20D6001F01CFE00214DF266
:102D70000E6001F017FEE5214DF20F6001F012FE2A
:102D800001214DF2106001F00DFE13214DF2116092
:102D900001F008FE01214DF2126001F003FE542102
:102DA0004DF2136001F0FEFD01214DF2146001F0BF
:102DB000F9FD82214DF2156001F0F4FD01214DF283
:102DC000166001F0EFFDCA214DF2176001F0EAFD37
:102DD00002214DF2186001F0E5FD00214DF219606D
:102DE00001F0E0FD02214DF21A6001F0DBFD01214E
:102DF0004DF21B6001F0D6FD02214DF21C6001F086
:102E0000D1FD34214DF21D6001F0CCFD02214DF2C7
:102E10001E6001F0C7FD67214DF21F6001F0C2FD89
:102E200002214DF2206001F0BDFD84214DF22160B0
:102E300001F0B8FD02214DF2226001F0B3FDA421A2
:102E40004DF2236001F0AEFD02214DF2246001F04D
:102E5000A9FDB7214DF2256001F0A4FD02214DF23C
:102E6000266001F09FFDCF214DF2276001F09AFD11
:102E700002214DF2286001F095FDDE214DF229601E
:102E800001F090FD02214DF22A6001F08BFDF2214C
:102E90004DF22B6001F086FD02214DF22C6001F015
:102EA00081FDFE214DF22D6001F07CFD03214DF2EC
:102EB0002E6001F077FD10214DF22F6001F072FDC0
:102EC00003214DF2306001F06DFD33214DF2316090
:102ED00001F068FD03214DF2326001F063FD6D21C8
:102EE0004DF2336001F05EFD55214FF4704001F06A
:102EF00059FDAA214FF2010001F054FD52214FF279
:102F0000020001F04FFD08214FF2030001F04AFDDD
:102F100000214FF2040001F045FDCC214FF4314077
:102F200001F040FD00214BF2011001F03BFD0521B5
:102F30004FF4364001F036FD70214FF4374001F078
:102F400031FD70214BF2017001F02CFD01214FF495
:102F5000384001F027FD03214BF6010001F022FD6E
:102F600003214BF6020001F01DFD03214BF6030087
:102F700001F018FD02214FF43C4001F013FD002147
:102F80004BF6014001F00EFD00214BF6024001F02E
:102F900009FDD0214FF4494001F004FD02214CF617
:102FA000011001F0FFFC50214CF6021001F0FAFC78
:102FB00050214CF6031001F0F5FC50214CF60410A2
:102FC00001F0F0FC00214FF4545001F0EBFC5521CE
:102FD0004FF4685001F0E6FC4FF4885001F0D2FC49
:102FE000782003F02FF84FF4245001F0CBFC01F0CF
:102FF0005EB9FE48808849F2253188427ED147F685
:10300000F001E52001F0CEFC4FF48071012001F0C9
:10301000C9FC4FF4E061022001F0C4FC41F2300130
:10302000032001F0BFFC0021042001F0BBFC40F2B2
:103030000221082001F0B6FC0021092001F0B2FCB9
:1030400000210A2001F0AEFC00210C2001F0AAFCB6
:1030500000210D2001F0A6FC00210F2001F0A2FCB0
:103060000021102001F09EFC0721112001F09AFCA4
:103070000021122001F096FC0021132001F092FCA7
:103080000021072001F08EFC41F29061102001F038
:1030900089FC40F22721112001F084FC9D2112209F
:1030A00001F080FC4FF4C851132001F07BFC252176
:1030B000292001F077FC0D212B2001F073FC072162
:1030C000302001F06FFC40F20331312001F06AFC46
:1030D0000321322001F066FC40F20621352001F088
:1030E00061FC0821362001F05DFC40F206413720EA
:1030F00001F058FC4FF44171382000E057E001F036
:1031000051FC0721392001F04DFC40F202613C20C6
:1031100001F048FC08213D2001F044FC0021502032
:1031200001F040FCEF21512001F03CFC0021522035
:1031300001F038FC40F23F11532001F033FC4FF412
:103140002741602001F02EFC0121612001F02AFCC2
:1031500000216A2001F026FC0021802001F022FCE1
:103160000021812001F01EFC0021822001F01AFCC8
:103170000021832001F016FC0021842001F012FCC4
:103180000021852001F00EFC1021902001F00AFCA6
:103190004FF4C061922001F005FC40F2331107208A
:1031A00001F000FC2221002001F0FCFB1FE78F480A
:1031B000808849F2283188427ED141F28F01EC208B
:1031C00001F0F0FB41F23421EF2001F0EBFB4FF472
:1031D0008071012001F0E6FB4FF4E061022001F074
:1031E000E1FB41F23001032001F0DCFB002104206F
:1031F00001F0D8FB40F20221082001F0D3FB0021AE
:10320000092001F0CFFB00210A2001F0CBFB0121B6
:103210000C2001F0C7FB00210D2001F0C3FB0021B1
:103220000F2001F0BFFB0021102001F0BBFB0721A4
:10323000112001F0B7FB0021122001F0B3FB0021A7
:10324000132001F0AFFB0121072001F0ABFB32207E
:1032500002F0D2FE41F29041102001F0A3FB40F2B7
:103260002721112001F09EFB322002F0C5FE8A21A9
:10327000122001F097FB322002F0BEFE4FF4D05135
:10328000132001F08FFB0621292001F08BFB0D217B
:103290002B2001F087FB322002F0AEFE002120201F
:1032A00001F080FB0021212001F07CFB322002F0A4
:1032B000A3FE0021302000E074E001F073FB40F237
:1032C0000461312001F06EFB40F20531322001F043
:1032D00069FB0021352001F065FB40F609413620ED
:1032E00001F060FB4FF40171372001F05BFB40F20D
:1032F0000131382001F056FB40F20771392001F00E
:1033000051FB00213C2001F04DFB40F60A213D20FD
:1033100001F048FB322002F06FFE0021502001F046
:1033200041FBEF21512001F03DFB0021522001F033
:1033300039FB40F23F11532001F034FB4FF4274199
:10334000602001F02FFB0121612001F02BFB002107
:103350006A2001F027FB0021802001F023FB0021DF
:10336000812001F01FFB0021822001F01BFB0021C6
:10337000832001F017FB0021842001F013FB0021C2
:10338000852001F00FFB1021902001F00BFB4FF482
:10339000C061922001F006FB40F23311072001F0DA
:1033A00001FB24E61148808849F2203188427DD112
:1033B0000021084601F0F6FA4FF48071012001F077
:1033C000F1FA4FF4E061022001F0ECFA41F2300131
:1033D000032001F0E7FA0021042001F0E3FA40F2B3
:1033E0000221082001F0DEFA002101E06401002042
:1033F000092001F0D7FA00210A2001F0D3FA0121B7
:103400000C2001F0CFFA00210D2001F0CBFA0021B1
:103410000F2001F0C7FA322002F0EEFD40F2011158
:10342000072001F0BFFA322002F0E6FD4FF486518A
:10343000102001F0B7FA0721112001F0B3FA4FF480
:103440008871122001F0AEFA4FF43061132001F0C0
:10345000A9FA0021292001F0A5FA44F210012B203D
:1034600001F0A0FA0021502001F09CFAEF21512038
:1034700001F098FA0021522001F094FA40F23F1135
:10348000532001F08FFA4FF41C51602001F08AFAAA
:103490000121612001F086FA00216A2001F082FA00
:1034A0000021802001F07EFA002100E031E081203F
:1034B00001F078FA0021822001F074FA00218320C3
:1034C00001F070FA0021842001F06CFA00218520BF
:1034D00001F068FA1021902001F064FA0021922096
:1034E00001F060FA0121932001F05CFA4FF4887139
:1034F000952001F057FA0021972001F053FA00219E
:10350000982001F04FFA40F27311072001F04AFAB7
:103510006DE5FE48808849F2313188427DD141F223
:103520001401E72001F03EFA4FF48071012001F010
:1035300039FA4FF40071022001F034FA41F23801F7
:10354000032001F02FFA40F20221082001F02AFAAC
:103550000021092001F026FA00210A2001F022FAB8
:1035600000210C2001F01EFA00210D2001F01AFAB2
:1035700000210F2001F016FA0021102001F012FAAC
:103580000721112001F00EFA0021122001F00AFAA1
:103590000021132001F006FAC82002F02DFD41F2AF
:1035A0009061102001F0FEF940F22721112001F076
:1035B000F9F9322002F020FD0C21122001F0F2F97D
:1035C000322002F019FD4FF40061132001F0EAF9F6
:1035D0001121292001F0E6F90B212B2001F0E2F95D
:1035E000322002F009FD0021202001F0DBF940F239
:1035F0003F11212001F0D6F90021302001F0D2F94D
:103600004FF48371312001F0CDF90021322001F017
:10361000C9F94FF40171352000E064E001F0C2F90E
:1036200041F20A61362001F0BDF940F207713720FE
:1036300001F0B8F94FF48371382001F0B3F940F28A
:103640000771392001F0AEF940F202413C2001F04F
:10365000A9F940F60F413D2001F0A4F900215020C6
:1036600001F0A0F9EF21512001F09CF90021522036
:1036700001F098F940F23F11532001F093F94FF413
:103680001C51602001F08EF90121612001F08AF9BE
:1036900000216A2001F086F90021802001F082F9E2
:1036A0000021812001F07EF90021822001F07AF9C9
:1036B0000021832001F076F90021842001F072F9C5
:1036C0000021852001F06EF91021902001F06AF9A7
:1036D0004FF4C061922001F065F940F233110720E8
:1036E00001F060F983E48948808845F20841884206
:1036F0007ED14FF48071012001F054F94FF4E06164
:10370000022001F04FF941F23001032001F04AF9A3
:103710000021042001F046F940F20721082001F0C1
:1037200041F90021092001F03DF900210A2001F0B2
:1037300039F900210C2001F035F900210D2001F0AC
:1037400031F900210F2001F02DF9142002F054FC72
:1037500041F2B061102001F025F90121112001F0A2
:1037600021F90121172001F01DF94FF49C7112205D
:1037700001F018F94FF40061132001F013F9092149
:10378000292001F00FF909212A2001F00BF900216D
:10379000A42001F007F90021502001F003F9EF21E6
:1037A000512001F0FFF80021522001F0FBF840F217
:1037B0003F11532001F0F6F84FF41C51602001F046
:1037C000F1F80121612001F0EDF800216A2001F0FB
:1037D000E9F80021802001F0E5F80021812001F0C6
:1037E000E1F80021822001F0DDF80021832000E0D3
:1037F00023E001F0D7F80021842001F0D3F8002164
:10380000852001F0CFF81321902001F0CBF80021A2
:10381000922001F0C7F80321932001F0C3F84FF480
:103820008871952001F0BEF840F27311072001F075
:10383000B9F8322002F0E0FBB8E43448808841F265
:10384000055188427ED10021072001F0ABF83220DB
:1038500002F0D2FB4FF48E71122001F0A3F8012187
:10386000A42001F09FF80F21082001F09BF8082107
:103870000A2001F097F808210D2001F093F840F29A
:103880000771302001F08EF80721312001F08AF80D
:1038900040F20361322001F085F84FF4E0613320FB
:1038A00001F080F840F20221342001F07BF802217F
:1038B000352001F077F841F60F71362001F072F8EB
:1038C00040F20771372001F06DF80021382001F037
:1038D00069F80021392001F065F840F207713A20BB
:1038E00001F060F800213B2001F05CF807213C204A
:1038F00001F058F800213D2001F054F8322002F088
:103900007BFB0121072001F04DF801E0640100205C
:103910000121172001F046F8322002F06DFB4FF430
:10392000BD51102001F03EF840F21721112001F0A6
:1039300039F84FF48F71122001F034F84FF47061B0
:10394000132000E097E001F02DF800212A2001F07B
:1039500029F80A21292001F025F84FF49F7112203F
:1039600001F020F80021502001F01CF8EF21512037
:1039700001F018F80021522001F014F840F23F1134
:10398000532001F00FF84FF41C51602001F00AF8A9
:103990000121612001F006F800216A2001F002F8FF
:1039A0000021802000F0FEFF0021812000F0FAFFBE
:1039B0000021822000F0F6FF0021832000F0F2FFBA
:1039C0000021842000F0EEFF0021852000F0EAFFB6
:1039D0001321902000F0E6FF4FF44071922000F098
:1039E000E1FF0521932000F0DDFF0021952000F08C
:1039F000D9FF0021972000F0D5FF0021982000F08A
:103A0000D1FF4FF48071012000F0CCFF4FF4E06152
:103A1000022000F0C7FF41F23801032000F0C2FF8E
:103A20000021042000F0BEFF00210C2000F0BAFFAE
:103A300000210F2000F0B6FF0021202000F0B2FF8F
:103A40000021212000F0AEFF2121072000F0AAFF75
:103A5000142002F0D1FA6121072000F0A3FF142006
:103A600002F0CAFA40F27311072000F09BFF142005
:103A700002F0C2FA95E4FE4880884BF20551884274
:103A80007ED10021084600F08DFF0021084600F09D
:103A900089FF0021084600F085FF0021084600F05C
:103AA00081FF0121A42000F07DFF142002F0A4FA80
:103AB0004FF41C51602000F075FF40F202210820F5
:103AC00000F070FF4FF40571302000F06BFF43F2FF
:103AD0001571312000F066FF40F20461322000F0E1
:103AE00061FF40F61661332000F05CFF42F21121C5
:103AF000342000F057FF4FF4A851352000F052FF5A
:103B000048F20751362000F04DFF41F207413720BF
:103B100000F048FF41F20341382000F043FF20212C
:103B2000392000F03FFF1A21902000F03BFF0021D8
:103B3000102000F037FF0721112000F033FF002193
:103B4000122000F02FFF0021132000F02BFF142083
:103B500002F052FA4FF4E661102000F023FF40F229
:103B60003711112000F01EFF142002F045FA4FF427
:103B7000DC71122000F016FF142002F03DFA00E084
:103B800083E04FF47061132000F00CFF80212A20A5
:103B900000F008FF4821292000F004FF142002F063
:103BA0002BFA4FF48071012000F0FCFE4FF4E0612D
:103BB000022000F0F7FE41F23801032000F0F2FE8F
:103BC00040F20221082000F0EDFE00210A2000F062
:103BD000E9FE00210C2000F0E5FE00210D2000F0A0
:103BE000E1FE30210E2000F0DDFE0021502000F02B
:103BF000D9FEEF21512000F0D5FE0021522000F027
:103C0000D1FE40F23F11532000F0CCFE4FF41C5186
:103C1000602000F0C7FE0121612000F0C3FE0021FA
:103C20006A2000F0BFFE1121902000F0BBFE4FF48F
:103C3000C061922000F0B6FE40F20241932000F0F5
:103C4000B1FE0221942000F0ADFE142002F0D4F960
:103C50000121072000F0A6FE142002F0CDF9612119
:103C6000072000F09FFE40F27311072000F09AFE3B
:103C70000021202000F096FE0021212000F092FE7D
:103C80002221002000F08EFE11E3794880884CF25A
:103C9000055188427ED10021084600F083FE0021B4
:103CA000084600F07FFE142002F0A6F90021084625
:103CB00000F078FE0021084600F074FE002108465E
:103CC00000F070FE0021084600F06CFE0121A420E7
:103CD00000F068FE142002F08FF94FF41C516020B0
:103CE00000F060FE40F60601082000F05BFE40F2A6
:103CF0000371302000F056FE0121312000F052FE09
:103D00000421322000F04EFE4FF48171332000F088
:103D100049FE4FF44071342000F044FE40F203119C
:103D2000352000F03FFE1F21362000F03BFE40F220
:103D30000371372000F036FE0121382000F032FEFA
:103D40000421392000F02EFE1521902000F02AFEDB
:103D50004FF48261102000F025FE40F2472111202F
:103D600000F020FE4FF4DE71122000F01BFE4FF435
:103D70006061132000F016FE782002F03DF94FF448
:103D80008071012000F00EFE4FF40071022000F05F
:103D900009FE00E050E041F23001032000F002FE95
:103DA00008210A2000F0FEFD00210C2000F0FAFDA1
:103DB00020210E2000F0F6FD00210F2000F0F2FD82
:103DC0000021202000F0EEFD0021212000F0EAFD7E
:103DD0003D212A2000F0E6FD142002F00DF92D21EE
:103DE000292000F0DFFD0021502000F0DBFD4DF226
:103DF000EF01512000F0D6FD0021522000F0D2FD4D
:103E000040F23F11532000F0CDFD0021612000F071
:103E1000C9FD00216A2000F0C5FD4FF440719220D9
:103E200000F0C0FD0521932000F0BCFD4FF480712F
:103E3000072000F0B7FD3AE20D48808844F2315186
:103E400088427CD10121002000F0ACFD0A2002F064
:103E5000D3F841F22861102000F0A4FD0E211220B9
:103E600000F0A0FD40F63921132000F09BFD01E099
:103E7000640100200A2002F0BFF84021112000F068
:103E800091FD5021152000F08DFD0A2002F0B4F8BC
:103E90001E21122000F086FD0A2002F0ADF84FF43A
:103EA000B151102000F07EFD42F63921132000F0C0
:103EB00079FD0A2002F0A0F84FF48071012000F093
:103EC00071FD4FF44071022000F06CFD41F23801A9
:103ED000032000F067FD40F20221082000F062FD9F
:103EE00008210A2000F05EFD0021302000F05AFD7C
:103EF00040F20241312000F055FD4FF48371322031
:103F000000F050FD40F20351332000F04BFD4FF420
:103F10008271342000F046FD40F20131352000F07E
:103F200041FD40F20771362000F03CFD40F20531C2
:103F3000372000F037FD4FF40271382000E040E0F8
:103F400000F030FD40F60B71392000F02BFD02210E
:103F5000412000F027FD4FF41C51602000F022FDAD
:103F60000121612000F01EFD4FF40471902000F04B
:103F700019FD4FF48571922000F014FD0421932067
:103F800000F010FD4FF48071A02000F00BFD012126
:103F9000072000F007FD2121072000F003FD232169
:103FA000072000F0FFFC3321072000F0FBFC40F26B
:103FB0003311072000F0F6FC0021A02000F0F2FCF5
:103FC00075E1C248808844F2355188427ED1302163
:103FD000152000F0E7FC10219A2000F0E3FC2021DE
:103FE000112000F0DFFC43F22841102000F0DAFC41
:103FF0000221122000F0D6FC41F23801132000F01B
:10400000D1FC282001F0F8FF1221084600F0CAFC7C
:10401000282001F0F1FF43F22041102000F0C2FC03
:1040200043F23801132000F0BDFC462001F0E4FF0C
:104030000021302000F0B6FC40F20241312000F0B7
:10404000B1FC40F20731322000F0ACFC4FF441717A
:10405000332000F0A7FC0421342000F0A3FC40F240
:104060000141352000F09EFC40F20771362000F03F
:1040700099FC40F20531372000F094FC4FF4C26106
:10408000382000F08FFC4FF4C261392000F08AFC28
:104090004FF48071012000F085FC4FF44071022044
:1040A00000F080FC41F23001032000F07BFC40F680
:1040B0000801082000F076FC08210A2000F072FCBC
:1040C0004FF41C51602000F06DFC00E031E0012154
:1040D000612000F067FC4FF49F71902000F062FCBB
:1040E0004FF48071922000F05DFC4FF480719320BA
:1040F00000F058FC4FF44051A02000F053FC102178
:10410000A32000F04FFC0121072000F04BFC2121EF
:10411000072000F047FC2321072000F043FC332157
:10412000072000F03FFC40F23311072000F03AFC7A
:10413000BDE06648808841F663118842F8D1E220EC
:1041400000F020FC1D2000F017FC022000F014FC01
:10415000042000F011FC642001F074FFE02000F066
:1041600011FC012000F008FC0A2001F045FFE020CE
:1041700000F008FC032000F0FFFB0C2001F03CFFE6
:10418000012000F0FFFB0A2001F036FFE62000F0DE
:10419000F9FB2F2000F0F0FBFF2000F0EDFBFF20EB
:1041A00000F0EAFBB02000F0EDFB202000F0E4FB83
:1041B000002000F0E1FB032000F0DEFB40F21F30A6
:1041C00000F0DAFB012000F0D7FB40F2DF1000F036
:1041D000D3FB002000F0D0FBB42000F0D3FB042080
:1041E00000F0CAFB40F21F4000F0C6FB002000F0C8
:1041F000C3FB2E2000F0C0FB002000F0BDFB002020
:1042000000F0BAFB002000F0B7FB002000F0B4FB88
:10421000B62000F0B7FB022000F0AEFB4FF40370B5
:1042200000F0AAFB002000F0A7FB172000F0A4FB81
:10423000152000F0A1FB002000F09EFB002000F004
:104240009BFBF02000F09EFB032000F095FB292053
:1042500000F098FBD02000F095FB002000F08CFBD4
:10426000BE2000F08FFB052000F086FBFE2000F052
:1042700083FB012000F080FB002000F07DFB00208C
:1042800000F07AFB002000F077FBB82000F07AFB0A
:10429000032000F071FB012000F06EFBBA2000F05B
:1042A00071FB012000F068FB642000F029F8002079
:1042B000FCF7B6FA01221146054801F0D3FC4FF68F
:1042C000FF70FCF777FA1FB000BD0000640100200A
:1042D000000C014008B5034800880090BDF80000BC
:1042E00008BD00000008006C10B50446204600F030
:1042F00049FB052001F0A6FEFFF7ECFF10BD000012
:104300002DE9F0470446BE2000F03CFB052000F0FC
:1043100033FB2046FBF79AFF07464FF066320C4B03
:10432000FBF722FF0546FBF79EFF1FFA80F9484680
:1043300000F022FB012000F01FFBFF2000F01CFB1F
:10434000002000F019FB002000F016FBBDE8F0870C
:104350006666044070B5044600230026B74880799D
:1043600001280BD1B548808846F60401884205D063
:10437000B248808841F66311884208D1AF488079FD
:10438000F0B9AE48808841F66311884218D1082CF4
:1043900015D2DFE804F00406080A0C0E10120624F9
:1043A0000DE007240BE0042409E0052407E00124C4
:1043B00005E0002403E0032401E0022400BF00BF65
:1043C0009E48808849F24131884217D09B488088B6
:1043D00046F60401884211D09848808845F2103191
:1043E00088420BD09548808845F21051884205D00C
:1043F0009248808841F6631188427DD1082C1CD2F6
:10440000DFE804F00406090C0F12151800BF14E0D1
:1044100043F0800311E043F040030EE043F0C0039B
:104420000BE043F0200308E043F0600305E043F0B5
:10443000A00302E043F0E00300BF00BF7F48808894
:1044400045F21051884202D14FF4585600E036260A
:104450007A48808845F2103188420DD077488088AC
:1044600045F21051884207D07448808841F66311A4
:10447000884201D043F008037048808846F6040162
:10448000884201D143F002031946304600F08AFA0F
:104490006A48808841F6631188421DD003F02000ED
:1044A00068B16648008865494988884214DA6348DB
:1044B0000588408861490880084645800CE05F48CF
:1044C00000885E494988884206DD5C480588408846
:1044D0005A490880084645805848808845F210515E
:1044E000884254D15549488900F04CFA002000F028
:1044F00043FA5249498900E078E0491C88B200F04B
:1045000041FA002000F038FA4C494989891C88B2E8
:1045100000F038FA49490988491EC1F30F2000F01C
:104520002BFA46494989C91C88B200F02BFA434945
:104530000978491EC8B200F01FFA4049888900F086
:1045400021FA002000F018FA3C498989491C88B2F8
:1045500000F018FA002000F00FFA38498989891C08
:1045600088B200F00FFA35494988491EC1F30F207F
:1045700000F002FA31498989C91C88B200F002FAB8
:104580002E498978491EC8B200F0F6F955E02B494A
:10459000488900F0F7F9002000F0EEF9002000F063
:1045A000EBF926490988491EC1F30F2000F0E4F910
:1045B00022490978491EC8B200F0DEF91F498889EE
:1045C00000F0E0F9002000F0D7F9002000F0D4F965
:1045D0001A494988491EC1F30F2000F0CDF9174947
:1045E0008978491EC8B200F0C7F926E0082C1CD211
:1045F000DFE804F004070A0D0F12151843F030032A
:1046000013E043F0100310E043F020030DE000BF7F
:104610000BE043F0380308E043F0280305E043F0E3
:10462000180302E043F0080300BF00BF032643F471
:1046300080531946304600F0B5F970BD6401002082
:1046400010B503460C466748808849F241318842DC
:1046500005D06448808845F21031884214D1614900
:10466000488900F08FF9181200F086F9D8B200F0EE
:1046700083F95C49888900F085F9201200F07CF903
:10468000E0B200F079F9ABE05648808846F60401C4
:1046900088421DD153488079012804D151480088AF
:1046A000401EC01A83B24F49488900F06BF91812B6
:1046B00000F062F9D8B200F05FF94A49888900F049
:1046C00061F9201200F058F9E0B200F055F987E0E6
:1046D0004448808841F66311884247D14148807937
:1046E000A8B940480088401EC01A83B23D49488995
:1046F00000F048F9002000F03FF9002000F03CF9FC
:10470000181200F039F9D8B200F036F916E0354940
:10471000488900F037F9181200F02EF9D8B200F0ED
:104720002BF930490988491EC1F30F2000F024F904
:104730002C490978491EC8B200F01EF92949888918
:1047400000F020F9201200F017F9E0B200F014F99F
:1047500024494988491EC1F30F2000F00DF9214971
:104760008978491EC8B200F007F939E01D488088F1
:1047700045F21051884220D11A49488900F002F9C7
:10478000181200F0F9F817494989491C88B200F05D
:10479000F9F8D8B200F0F0F81249888900F0F2F880
:1047A000201200F0E9F80F498989491C88B200F00D
:1047B000E9F8E0B200F0E0F812E00A488079012858
:1047C00004D108480088401EC01A83B205494889B0
:1047D000194600F0E7F803498889214600F0E2F81D
:1047E00010BD0000640100202DE9F84F80460E4600
:1047F00017461C46B3462046E31704EB5373DB1001
:1048000021464FEAE47C04EB5C7C4FEAEC0CA4EB21
:10481000CC0CBCF1000F02D04FF0010C01E04FF0C6
:10482000000C6344224604EBD27C4FEA6C0C03FB81
:104830000CF3DBB20093A7F12000C7B2002556E0CD
:104840000C2C07D107EB47002B4901EB800010F837
:10485000059013E0102C05D1284800EB071010F844
:1048600005900BE0182C07D107EBC700244901EB9A
:10487000800010F8059001E0BDE8F88F4FF0000AC5
:104880002FE009F0800030B11E48028831464046D2
:10489000FCF7A6F807E00A9828B91B4802883146B9
:1048A0004046FCF79DF84FEA49604FEA1069701CDA
:1048B00086B216484088B04200DCDDE7A6EB0B006C
:1048C000A0420AD15E4608F101001FFA80F80F48A5
:1048D0000088404500DCCFE706E00AF1010000F067
:1048E000FF0ABAF1080FCCDB00BF681CC5B2009804
:1048F0008542A5DB00BFBFE7EA6200085E670008EB
:104900004E6D0008180000201A00002064010020ED
:104910002DE9F84704460D4690469946DDE90967BA
:1049200004F0FF0A08EB04001FFA80F809EB050009
:104930001FFA80F916E0444502DB5446A81985B2F7
:104940004D4500DB14E0002000903A7833462946BC
:104950002046FFF749FF304606EBD07104EB6101BA
:104960008CB27F1C38787E2802DC38782028E2DA86
:1049700000BFBDE8F88700000149088070470000CB
:104980000008006C0149088070470000FE07006CB9
:104990000248008902490880704700006401002035
:1049A000FE07006C024A1080921C118070470000C4
:1049B000FE07006C00BFFEE77047000070B50021E5
:1049C00000230F22C47804B3154C246804F4E06477
:1049D000C4F5E064210AC1F10403CA40447804FA32
:1049E00003F184781440214309010E4C0678A15547
:1049F000047804F01F050124AC4005786D11AD006A
:104A000005F1E025C5F8004109E0047804F01F0530
:104A10000124AC40044D0678761145F8264070BD5F
:104A20000CED00E000E400E080E100E00249014319
:104A3000024A1160704700000000FA050CED00E02A
:104A40002DE9FF4107460C4615461E46DDF8288035
:104A5000684600F03AFBADF80050ADF80260ADF8E2
:104A60000880012C06D0022C0DD0032C14D0042C6D
:104A700024D11AE06946384600F0CCF908213846BE
:104A800000F014FA1BE06946384600F019FA0821D4
:104A9000384600F067FA12E06946384600F070FACE
:104AA0000821384600F0BCFA09E06946384600F0B3
:104AB000C1FA0821384600F0FBFA00E000BF00BF51
:104AC000BDE8FF817047000029B1064A52690243E0
:104AD000044B5A6104E0034A52698243014B5A6114
:104AE000704700000010024029B1064AD269024313
:104AF000044BDA6104E0034AD2698243014BDA6174
:104B0000704700000010024029B1064A9269024332
:104B1000044B9A6104E0034A92698243014B9A6113
:104B2000704700000010024029B1064AD2680243D3
:104B3000044BDA6004E0034AD2688243014BDA6036
:104B4000704700000010024030B500210022002410
:104B500000232D4D6D6805F00C0121B1042905D00D
:104B6000082923D105E0294D056022E0274D056085
:104B70001FE0254D6D6805F47012234D6D6805F436
:104B80008034022505EB92421CB9214D5543056046
:104B90000BE01D4D6D6805F400351DB11C4D5543EE
:104BA000056002E0194D5543056002E0174D0560B0
:104BB00000BF00BF144D6D6805F0F0010909154DE7
:104BC0006B5C0568DD4045600F4D6D6805F4E06184
:104BD000090A104D6B5C4568DD4085600A4D6D68C3
:104BE00005F46051C90A0B4D6B5C4568DD40C5603A
:104BF000054D6D6805F44041890B074D6B5CC56838
:104C0000B5FBF3F5056130BD0010024000127A00DB
:104C100000093D001C0000202C000020704710B54A
:104C200000F002F810BD00000CB5002001900090CB
:104C30003348006840F480303149086000BF304894
:104C4000006800F4003000900198401C019000982A
:104C500018B90198B0F5A06FF1D12948006800F4A7
:104C6000003010B10120009001E000200090009879
:104C7000012843D12348006840F010002149086012
:104C80000846006820F0030008600846006840F00D
:104C9000020008601A4840681949486008464068A0
:104CA00048600846406840F48060486008464068B4
:104CB00020F47C1048600846406840F4E8104860E2
:104CC0000846006840F08070086000BF0C4800682B
:104CD00000F000700028F9D00948406820F0030077
:104CE000074948600846406840F00200486000BF3D
:104CF0000348406800F00C000828F9D10CBD000002
:104D00000010024000200240042808D14FF0E021AA
:104D1000096941F004014FF0E022116107E04FF012
:104D2000E021096921F004014FF0E0221161704790
:104D30007047000010B51348006840F001001149A9
:104D4000086008464068104908400E494860084617
:104D500000680E4908400B4908600846006820F4C6
:104D6000802008600846406820F4FE0048604FF448
:104D70001F008860FFF753FF4FF000600449086090
:104D800010BD0000001002400000FFF8FFFFF6FE1B
:104D900008ED00E07CB505460C4601210220FFF736
:104DA000A3FE01210846FFF7AFFE01211048FBF7E3
:104DB000B3FC1820032320220E490090082000F0A5
:104DC00095FF0020034622460B49CDE90050022002
:104DD00000F0D8F90020012370220221009006483B
:104DE000FFF72EFE0121044800F0EEF97CBD000023
:104DF00000081A00000C01400004004021B10288A4
:104E000042F00102028004E002884FF6FE731A406D
:104E10000280704770B5002400220023058C4FF6F5
:104E2000FE7635400584028C8388048B4FF68F759F
:104E30002C40B51E2C400D882C43751E2A400D8930
:104E40002A434D882A43144DA8420BD0134DA84243
:104E500008D0134DA84205D0124DA84202D0124DE1
:104E6000A84213D14FF6F7752A404D892A434FF6D1
:104E7000FB752A408D882A434FF6FF652B404FF67D
:104E8000FF552B408D892B43CD892B438380048391
:104E9000CD888586028470BD002C0140003401401D
:104EA0000040014000440140004801400A46002102
:104EB000018B4FF6F77319401143018370470000CF
:104EC00070B5002400220023058C4FF6EF763540A4
:104ED0000584028C8388048B48F6FF752C404FF6BE
:104EE000FF452C400D884FF6FF7606EA05252C433A
:104EF0004FF6DF752A400D8906EA05152A434D88CD
:104F000006EA05152A43154DA84202D0144DA842C1
:104F10001DD14FF67F752A404D894FF6FF7606EA80
:104F200005152A434FF6BF752A408D8806EA0515F8
:104F30002A434FF6FF352B404FF2FF752B408D89EA
:104F400006EA85052B43CD8906EA85052B43838038
:104F50000483CD880587028470BD0000002C0140C9
:104F6000003401400A460021018B4FF2FF731940C3
:104F70004FF6FF7303EA02231943018370470000D1
:104F800070B5002400220023058C4FF6FF663540E3
:104F90000584028C8388848B4FF68F752C404FF6E6
:104FA000FC752C400D882C434FF6FF552A400D8987
:104FB0004FF6FF7606EA05252A434D8806EA0525C1
:104FC0002A43154DA84202D0144DA8421DD14FF2DC
:104FD000FF752A404D894FF6FF7606EA05252A43DC
:104FE0004FF6FF352A408D8806EA05252A434EF6FE
:104FF000FF752B404DF6FF752B408D8906EA051590
:105000002B43CD8906EA05152B4383808483CD8805
:105010008587028470BD0000002C014000340140EF
:105020000A460021818B4FF6F773194011438183A3
:105030007047000070B5002200230024058C4EF656
:10504000FF7635400584038C8488828B48F6FF7593
:105050002A404FF6FF452A400D884FF6FF7606EAB4
:1050600005252A434DF6FF752B400D8906EA0535C7
:105070002B434D8806EA05352B430B4DA84202D041
:105080000A4DA84208D14BF6FF752C408D894FF68A
:10509000FF7606EA85152C4384808283CD88A0F8AC
:1050A0004050038470BD0000002C014000340140DA
:1050B0000A460021818B4FF2FF7319404FF6FF73B0
:1050C00003EA022319438183704700210180418054
:1050D0008180C180018141818181C181704700004F
:1050E000002202881D4B98420ED01D4B98420BD0D7
:1050F000B0F1804F08D01B4B984205D01A4B984214
:1051000002D01A4B984204D14FF68F731A404B8845
:105110001A43174B984207D0164B984204D04FF6CB
:10512000FF431A40CB881A4302808B8883850B8803
:1051300003850A4B98420BD0094B984208D00E4B7E
:10514000984205D00D4B984202D00D4B984201D1A8
:105150000B7A03860123838270470000002C0140F4
:10516000003401400004004000080040000C0040F2
:105170000010004000140040004001400044014085
:10518000004801402DE9FE4304460D4617461E46E1
:10519000DDE90A8904F0010020B101212046FFF772
:1051A000A3FC03E001212046FFF7AEFCADF8007040
:1051B000ADF80260ADF80480ADF806906946284667
:1051C000FFF78EFFBDE8FE8370B505460C4624B19F
:1051D00001212846FFF712FE03E000212846FFF7D1
:1051E0000DFE70BD10B540F22771164800F04DF865
:1051F00090B1154800F020F904462146114800F00E
:1052000004F9114800F011F9D8B9002240F22771D1
:105210000C4800F064F814E040F22551094800F011
:1052200034F870B140F22551064800F013F80548F3
:1052300000F0E6F80549087008460178044800F0D7
:1052400005F910BD004400404C0000201000002073
:105250005800002010B50022002340F66A14A14235
:1052600000D100BF0A1201249440A3B2DC430480A1
:1052700010BD21B1828942F40052828104E082890A
:105280004DF6FF731A408281704770B502460024C4
:1052900000230025002040F66A16B14200D100BF6D
:1052A000C1F3421501F01F03012606FA03F3012D95
:1052B00002D19689334006E0022D02D1168A33408E
:1052C00001E0968A33400C12012606FA04F416888F
:1052D000344013B10CB1012000E0002070BDF0B5E6
:1052E0000346002400260025002040F66A17B94234
:1052F00000D100BF1846C1F3421401F01F06012778
:1053000007FA06F5012C01D10C3004E0022C01D182
:10531000103000E014301AB107682F43076002E034
:105320000768AF430760F0BD2DE9F04786B005463A
:105330000E460024A24600BFA1460027B08900B156
:1053400000BF2F462C8A4CF6FF700440F0880443BF
:105350002C82AC894EF6F3100440B08831890843A2
:10536000718908430443AC81AC8A4FF6FF40044086
:10537000B0890443AC8201A8FFF7E6FB1F488742CF
:1053800002D1DDF810A001E0DDF80CA0A88900F43E
:10539000004040B10AEBCA0000EB0A103168490036
:1053A000B0FBF1F807E00AEBCA0000EB0A10316825
:1053B0008900B0FBF1F86420B8FBF0F0040120098B
:1053C000642101FB1089A88900F4004040B132201B
:1053D00000EBC900B0FBF1F000F00700044308E067
:1053E000322000EB09106421B0FBF1F000F00F0057
:1053F00004432C8106B0BDE8F0870000003801406E
:1054000001468888C0F308007047C1F30802828013
:1054100070474FF41651016000218180C1800181E5
:105420000C214181002181817047014608884A880A
:10543000801A8A881040704701464A888B881A4033
:105440008B68985C4A88521C4A807047028883881F
:105450001A40836899540288521C0280704700BF2A
:10546000FEE700000FB4054B10B503A9044A0298EB
:1054700000F02CF810BC5DF814FB0000055B000880
:105480000C0000200FB4084B10B504A902AA039821
:1054900000F01CF8044602A9002000F048FA20465B
:1054A00010BC5DF814FB00002F59000802E008C88A
:1054B000121F08C1002AFAD170477047002001E08E
:1054C00001C1121F002AFBD1704700002DE9FF4FD8
:1054D0008DB00F460546002606E025280BD0DDE9F5
:1054E0000F1290476D1C761C28780028F5D111B05A
:1054F0003046BDE8F08F0024A246A1460122EC49C7
:1055000000E0044315F8013F203B02FA03F0084293
:10551000F7D128782A2810D06FF02F022878A0F130
:105520003001092914D80AEB8A0102EB410144F049
:10553000020400EB010A6D1CF0E701CF5FEA000AEC
:1055400003D544F40054CAF1000A44F002046D1C6F
:1055500028782E2817D115F8010F44F004042A28C2
:105560000ED06FF02F022878A0F1300109290AD857
:1055700009EB890102EB410100EB01096D1CF2E727
:1055800057F8049B6D1C28786C280FD006DC4C283B
:1055900017D068280DD06A2814D104E0742810D0E0
:1055A0007A280FD10DE044F400140AE044F480148A
:1055B00001E044F440146978814202D104F580147A
:1055C0006D1C6D1C2A786E2A1FD00CDC632A31D02A
:1055D00004DC002A8BD0582A11D1A3E0642A68D0B9
:1055E000692A0CD165E0732A2ED004DC6F2A73D0AF
:1055F000702A04D19BE0752A6FD0782A6ED01046AD
:10560000DDE90F129047761C50E1C4F302500228E6
:1056100006D0032809D0042801CF09D0066045E14F
:1056200001CFF117C0E9006140E101CF06803DE103
:1056300006703BE117F8040B8DF8000000208DF890
:105640000100EB46012003E057F804BB4FF0FF30A8
:1056500061074FF0000102D40DE008F10101884616
:1056600049450FDA8045F8DB1BF808100029F4D112
:1056700008E008F1010188468142FADB1BF80810B6
:105680000029F6D1DDE90F23AAEB08008146214667
:1056900000F036F9304400EB080604E0DDE90F12B3
:1056A0001BF8010B9047B8F10108F7D22146484694
:1056B000F7E00A21C4F302534FF0000B0891022BCC
:1056C00004D001CFC117032B09D00AE0FF1D27F03A
:1056D0000707F7E8020108E032E01FE020E000B22F
:1056E000C117042B01D140B2C117031E71F1000391
:1056F00007DA4FF0000CD0EB0C006CEB01012D230E
:1057000002E0230504D52B238DF82430012303E088
:10571000E30701D02023F7E7984658E00A2110E07C
:1057200010210EE010204FF0000B08900CE010212B
:105730004FF0000B44F004044FF00809089103E017
:1057400008214FF0000B0891C4F30253022B04D040
:1057500001CF0021032B06D006E0FF1D27F007072D
:10576000F7E8020103E080B2042B00D1C0B24FF091
:10577000000823072BD5702A07D0DDF820C08CF055
:10578000100C5CEA0B0C05D00EE040238DF82430A1
:10579000012308E050EA010306D030238DF82430BD
:1057A0008DF8252002239846DDF820C08CF0080CE7
:1057B0005CEA0B0C0BD150EA010301D1630706D55B
:1057C00030238DF824304FF00108A9F10109582A3F
:1057D00004D038A20B9208AA0A920BE03AA2F9E789
:1057E0005B46089AFAF758FD0B9B9B5C0A9A521E7F
:1057F0000A92137050EA0102F2D10A98ADEB000050
:1058000000F1200B600702D524F4803401E04FF052
:105810000109D94502DDA9EB0B0000E0002000EBF7
:105820000B0141440890AAEB010AE00306D4DDE92C
:105830000F232146504600F063F806444FF000095C
:1058400008E009A911F80900DDE90F12904709F1F4
:105850000109761CC145F4DBE0030CD5DDE90F231B
:105860002146504600F04CF8064404E0DDE90F12F2
:1058700030209047761C0899481E08900029F5DCD6
:1058800008E00A980A990078491C0A91DDE90F128C
:105890009047761CBBF10001ABF1010BF1DC214616
:1058A0005046DDE90F2300F019F806446D1C1BE695
:1058B00009280100303132333435363738396162E6
:1058C00063646566000000003031323334353637AA
:1058D0003839414243444546000000002DE9F0417B
:1058E000044600251E461746880404D405E03946C0
:1058F0002020B0476D1C641EF9D52846BDE8F08114
:105900002DE9F041044600251E469046C80301D506
:10591000302700E02027880404D505E041463846BA
:10592000B0476D1C641EF9D52846BDE8F0810A68B1
:10593000531C0B60107070472DE9F043044607AD0F
:1059400095E8E010DDF82C80DFF82090D9F8000011
:10595000046041608281C381057446748774C0F815
:1059600018C0C0F81C80BDE8F083000014000020BF
:1059700070B586B000251748046818200090A289E9
:1059800003236169A06800F0B1F9E2890423616929
:10599000A06800F077F9208C002101910291CDE9F7
:1059A00003100091D4E90623D4E9000100F022FCA1
:1059B0000546681C18B94FF0FF3006B070BDA27CD8
:1059C000617C207C00F064FBA06900F080FB00207B
:1059D000F3E700001400002010B5242000F0B4FA12
:1059E000044634B9114912A0FFF73CFD4FF0FF30D7
:1059F00010BD01202060400460600420A060A081F0
:105A00000820E08126202074032060740220A07406
:105A10000E4860610E48A0614FF41640E0610C2012
:105A200020840C4804600020E2E70000D5620008F2
:105A30005B25735D626C7565746F6F7468206D6152
:105A40006C6C6F63206572726F720A00000801400F
:105A5000004400401400002010B504480468A06908
:105A600000F028FB6069FAF767FD10BD1400002004
:105A700010B50248006800F053F810BD1400002073
:105A800010B586B00024FFF7A7FF044604B12AE052
:105A90004FF41640164900220192CDE902210490EC
:105AA000262008230422D10300900120FFF744FFA1
:105AB000FFF75EFF044604B112E000200D490880A4
:105AC00048807F2088800C48886000200B4908802F
:105AD00048807F2088800A488860002006B010BD7A
