:020000040800F2
:1000000060070020450100081104000809040008E9
:100010000D0400088D0100089B0E00080000000080
:10002000000000000000000000000000550600086D
:1000300091010008000000001D0500086907000884
:100040005F0100085F0100085F0100085F01000810
:100050005F0100085F0100085F0100085F01000800
:100060005F0100085F0100085F0100085F010008F0
:100070005F0100085F0100085F0100085F010008E0
:100080005F0100085F0100085F0100085F010008D0
:100090005F0100085F0100085F0100085F010008C0
:1000A0005F0100085F0100085F0100085F010008B0
:1000B0005F0100085F0100085F0100085F010008A0
:1000C0005F0100085F0100085F0100085F01000890
:1000D0005F0100085F010008210C00085F010008B3
:1000E0005F0100085F0100085F0100085F01000870
:1000F0005F0100085F0100085F0100085F01000860
:100100005F0100085F0100085F0100085F0100084F
:100110005F0100085F0100085F0100085F0100083F
:100120005F0100085F0100085F0100085F0100082F
:10013000DFF80CD000F018F800480047FD13000865
:10014000600700200648804706480047FEE7FEE7B4
:10015000FEE7FEE7FEE7FEE7FEE7FEE7FEE7FEE777
:100160006D07000831010008064C074D06E0E06805
:1001700040F0010394E8070098471034AC42F6D3EE
:10018000FFF7DAFFB4170008D417000800BFFEE736
:100190007047000010B504462948844208D1012167
:1001A000042000F0DDF90021042000F0D9F946E038
:1001B0002448844208D10121082000F0D1F900210F
:1001C000082000F0CDF93AE01F48844208D101210F
:1001D000102000F0C5F90021102000F0C1F92EE038
:1001E0001A48844208D10121202000F0B9F90021E9
:1001F000202000F0B5F922E01548844208D1012101
:10020000402000F0ADF90021402000F0A9F916E0EF
:100210001048844208D10121802000F0A1F900217A
:10022000802000F09DF90AE00B48844207D10121AB
:10023000801500F095F90021A01500F091F910BD8E
:1002400000080140000C0140001001400014014072
:1002500000180140001C0140002001402DE9F04140
:10026000024600250026002000230024002791F8E4
:1002700003C00CF00F0591F803C00CF0100CBCF19A
:10028000000F03D091F802C04CEA050591F800C0B8
:10029000BCF1000F31D0146800202BE04FF0010CAE
:1002A0000CFA00F3B1F800C00CEA03069E4220D11C
:1002B00083004FF00F0C0CFA03F7BC4305FA03FC64
:1002C0004CEA040491F803C0BCF1280F06D14FF0AA
:1002D000010C0CFA00FCC2F814C00AE091F803C04B
:1002E000BCF1480F05D14FF0010C0CFA00FCC2F82C
:1002F00010C0401C0828D1D31460B1F800C0BCF174
:10030000FF0F34DD546800202EE000F1080C4FF0A0
:10031000010808FA0CF3B1F800C00CEA03069E428B
:1003200021D183004FF00F0C0CFA03F7BC4305FA00
:1003300003FC4CEA040491F803C0BCF1280F05D17A
:1003400000F1080C08FA0CF8C2F8148091F803C008
:10035000BCF1480F07D100F1080C4FF0010808FA72
:100360000CF8C2F81080401C0828CED35460BDE8B9
:10037000F0810000F0B50A4600230024002100258A
:1003800000F00046B6F1004F02D11D4EF16901E0C8
:100390001B4E7168C0F3034583B200F44016B6F5F6
:1003A000401F08D121F07061154E766826F0706606
:1003B000134F7E6012E000F48016B6F5801F06D160
:1003C000032606FA05F4A14341F0706106E0460DEC
:1003D000360103FA06F6B14341F0706122B1460DD1
:1003E000360103FA06F6314300F00046B6F1004F3D
:1003F00002D1034EF16101E0014E7160F0BD0000D9
:10040000000001400161704700BFFEE700BFFEE74A
:100410007047000070B5002100230F22C47804B398
:10042000154C246804F4E064C4F5E064210AC1F1C9
:100430000403CA40447804FA03F184781440214349
:1004400009010E4C0678A155047804F01F0501241B
:10045000AC4005786D11AD0005F1E025C5F800410F
:1004600009E0047804F01F050124AC40044D06782F
:10047000761145F8264070BD0CED00E000E400E088
:1004800080E100E002490143024A11607047000028
:100490000000FA050CED00E02DE9FF4107460C468F
:1004A00015461E46DDF82880684600F02AFBADF8A8
:1004B0000050ADF80260ADF80880012C06D0022C87
:1004C0000DD0032C14D0042C24D11AE069463846F0
:1004D00000F0BCF90821384600F004FA1BE0694638
:1004E000384600F009FA0821384600F057FA12E0C1
:1004F0006946384600F060FA0821384600F0ACFA48
:1005000009E06946384600F0B1FA0821384600F0A3
:10051000EBFA00E000BF00BFBDE8FF8170470000BC
:1005200029B1064AD2690243044BDA6104E0034A66
:10053000D2698243014BDA6170470000001002402B
:1005400029B1064A92690243044B9A6104E0034AC6
:1005500092698243014B9A6170470000001002408B
:1005600029B1064AD2680243044BDA6004E0034A28
:10057000D2688243014BDA607047000000100240ED
:1005800030B500210022002400232D4D6D6805F0B8
:100590000C0121B1042905D0082923D105E0294DFA
:1005A000056022E0274D05601FE0254D6D6805F4CC
:1005B0007012234D6D6805F48034022505EB9242DC
:1005C0001CB9214D554305600BE01D4D6D6805F4C8
:1005D00000351DB11C4D5543056002E0194D5543D2
:1005E000056002E0174D056000BF00BF144D6D6847
:1005F00005F0F0010909154D6B5C0568DD404560AB
:100600000F4D6D6805F4E061090A104D6B5C45689B
:10061000DD4085600A4D6D6805F46051C90A0B4DD7
:100620006B5C4568DD40C560054D6D6805F4404173
:10063000890B074D6B5CC568B5FBF3F5056130BDF3
:100640000010024000127A0000093D00180000204E
:1006500028000020704710B500F002F810BD00001F
:100660000CB50020019000903348006840F48030C1
:100670003149086000BF3048006800F40030009045
:100680000198401C0190009818B90198B0F5A06F2E
:10069000F1D12948006800F4003010B10120009029
:1006A00001E0002000900098012843D12348006811
:1006B00040F01000214908600846006820F003005F
:1006C00008600846006840F0020008601A48406868
:1006D000194948600846406848600846406840F448
:1006E000806048600846406820F47C1048600846F6
:1006F000406840F4E81048600846006840F08070A8
:10070000086000BF0C48006800F000700028F9D0B5
:100710000948406820F003000749486008464068DF
:1007200040F00200486000BF0348406800F00C0041
:100730000828F9D10CBD0000001002400020024042
:10074000042808D14FF0E021096941F004014FF07D
:10075000E022116107E04FF0E021096921F0040176
:100760004FF0E022116170477047000010B5134848
:10077000006840F0010011490860084640681049CF
:1007800008400E494860084600680E4908400B4979
:1007900008600846006820F4802008600846406829
:1007A00020F4FE0048604FF41F008860FFF753FFFD
:1007B0004FF000600449086010BD000000100240C6
:1007C0000000FFF8FFFFF6FE08ED00E07CB50546EF
:1007D0000C4601210220FFF7A3FE01210846FFF786
:1007E000AFFE01211048FFF7C5FD1820032320228A
:1007F0000E490090082000F0A7FD00200346224685
:100800000B49CDE90050022000F0DAF90020012365
:100810007022022100900648FFF73EFE01210448A5
:1008200000F0F0F97CBD000000081A00000C014047
:100830000004004021B1028842F00102028004E07D
:1008400002884FF6FE731A400280704770B500248C
:1008500000220023058C4FF6FE7635400584028C7D
:100860008388048B4FF68F752C40B51E2C400D8865
:100870002C43751E2A400D892A434D882A43144D66
:10088000A8420BD0134DA84208D0134DA84205D062
:10089000124DA84202D0124DA84213D14FF6F7755F
:1008A0002A404D892A434FF6FB752A408D882A43FA
:1008B0004FF6FF652B404FF6FF552B408D892B439C
:1008C000CD892B4383800483CD888586028470BDC7
:1008D000002C014000340140004001400044014030
:1008E000004801400A460021018B4FF6F77319407A
:1008F000114301837047000070B5002400220023DB
:10090000058C4FF6EF7635400584028C8388048B86
:1009100048F6FF752C404FF6FF452C400D884FF6EA
:10092000FF7606EA05252C434FF6DF752A400D8930
:1009300006EA05152A434D8806EA05152A43154D92
:10094000A84202D0144DA8421DD14FF67F752A400F
:100950004D894FF6FF7606EA05152A434FF6BF7517
:100960002A408D8806EA05152A434FF6FF352B40AD
:100970004FF2FF752B408D8906EA85052B43CD8903
:1009800006EA85052B4383800483CD88058702848E
:1009900070BD0000002C0140003401400A460021D7
:1009A000018B4FF2FF7319404FF6FF7303EA0223E6
:1009B000194301837047000070B500240022002312
:1009C000058C4FF6FF6635400584028C8388848B46
:1009D0004FF68F752C404FF6FC752C400D882C433C
:1009E0004FF6FF552A400D894FF6FF7606EA05259A
:1009F0002A434D8806EA05252A43154DA84202D010
:100A0000144DA8421DD14FF2FF752A404D894FF673
:100A1000FF7606EA05252A434FF6FF352A408D88E2
:100A200006EA05252A434EF6FF752B404DF6FF7565
:100A30002B408D8906EA05152B43CD8906EA05155D
:100A40002B4383808483CD888587028470BD00001A
:100A5000002C0140003401400A460021818B4FF6F2
:100A6000F7731940114381837047000070B500226D
:100A700000230024058C4EF6FF7635400584038C58
:100A80008488828B48F6FF752A404FF6FF452A403E
:100A90000D884FF6FF7606EA05252A434DF6FF75C9
:100AA0002B400D8906EA05352B434D8806EA0535AE
:100AB0002B430B4DA84202D00A4DA84208D14BF659
:100AC000FF752C408D894FF6FF7606EA85152C437D
:100AD00084808283CD88A0F84050038470BD0000DC
:100AE000002C0140003401400A460021818B4FF266
:100AF000FF7319404FF6FF7303EA02231943818302
:100B000070470021018041808180C1800181418145
:100B10008181C181704701877047000000220288EF
:100B20001D4B98420ED01D4B98420BD0B0F1804F18
:100B300008D01B4B984205D01A4B984202D01A4B52
:100B4000984204D14FF68F731A404B881A43174BC3
:100B5000984207D0164B984204D04FF6FF431A40F4
:100B6000CB881A4302808B8883850B8803850A4BC8
:100B700098420BD0094B984208D00E4B984205D0B2
:100B80000D4B984202D00D4B984201D10B7A03864F
:100B90000123838270470000002C01400034014093
:100BA0000004004000080040000C0040001000401D
:100BB0000014004000400140004401400048014052
:100BC0002DE9FE4304460D4617461E46DDE90A8917
:100BD00004F0010020B101212046FFF7A1FC03E051
:100BE00001212046FFF7ACFCADF80070ADF80260C3
:100BF000ADF80480ADF8069069462846FFF78EFFF1
:100C0000BDE8FE8370B505460C4624B10121284697
:100C1000FFF710FE03E000212846FFF70BFE70BD32
:100C200010B540F22771164800F04DF890B1154804
:100C300000F020F904462146114800F004F911485B
:100C400000F011F9D8B9002240F227710C4800F0E9
:100C500064F814E040F22551094800F034F870B10E
:100C600040F22551064800F013F8054800F0E6F878
:100C70000549087008460178044800F005F910BDE0
:100C800000440040480000201000002054000020D4
:100C900010B50022002340F66A14A14200D100BF23
:100CA0000A1201249440A3B2DC43048010BD21B198
:100CB000828942F40052828104E082894DF6FF73FA
:100CC0001A408281704770B5024600240023002537
:100CD000002040F66A16B14200D100BFC1F34215B0
:100CE00001F01F03012606FA03F3012D02D19689B4
:100CF000334006E0022D02D1168A334001E0968A85
:100D000033400C12012606FA04F41688344013B15D
:100D10000CB1012000E0002070BDF0B503460024B6
:100D200000260025002040F66A17B94200D100BF16
:100D30001846C1F3421401F01F06012707FA06F511
:100D4000012C01D10C3004E0022C01D1103000E064
:100D500014301AB107682F43076002E00768AF43F9
:100D60000760F0BD2DE9F04786B005460E46002429
:100D7000A24600BFA1460027B08900B100BF2F46A0
:100D80002C8A4CF6FF700440F08804432C82AC8916
:100D90004EF6F3100440B088318908437189084346
:100DA0000443AC81AC8A4FF6FF400440B089044351
:100DB000AC8201A8FFF7E4FB1F48874202D1DDF8AF
:100DC00010A001E0DDF80CA0A88900F4004040B1BB
:100DD0000AEBCA0000EB0A1031684900B0FBF1F8D9
:100DE00007E00AEBCA0000EB0A1031688900B0FB8B
:100DF000F1F86420B8FBF0F004012009642101FB44
:100E00001089A88900F4004040B1322000EBC900ED
:100E1000B0FBF1F000F00700044308E0322000EBE3
:100E200009106421B0FBF1F000F00F0004432C81A5
:100E300006B0BDE8F0870000003801400146888810
:100E4000C0F308007047C1F30802828070474FF476
:100E50001651016000218180C18001810C214181F6
:100E6000002181817047014608884A88801A8A8853
:100E70001040704701464A888B881A408B68985CFE
:100E80004A88521C4A807047028883881A408368C7
:100E900099540288521C0280704700BFFEE7000090
:100EA0000FB4054B10B503A9044A029800F017F8D7
:100EB00010BC5DF814FB0000811100080C0000203C
:100EC00002E008C8121F08C1002AFAD17047704713
:100ED000002001E001C1121F002AFBD170472DE95B
:100EE000F84F9946924688460546002706E0252891
:100EF0000AD051464A4690476D1C7F1C287800282E
:100F0000F5D13846BDE8F88F002315F8011F1846C3
:100F10002E2915D115F8011F04232A290DD06FF0B1
:100F20002F022978A1F13004092C09D800EB8000A8
:100F300002EB400008446D1CF3E758F8040B6D1CED
:100F40002A78002ADDD0632A07D0732A0FD01046F2
:100F500051464A4690477F1C2AE018F8042B8DF82A
:100F6000002000218DF801106E46012103E058F8A1
:100F7000046B4FF0FF315A074FF0000401D409E031
:100F8000641C84420BDA8C42FADB325D002AF7D112
:100F900005E0641C8C42FCDB305D0028F9D127445D
:100FA00004E016F8010B51464A469047641EF8D2F9
:100FB0006D1CA3E72DE9F043044607AD95E8E0106A
:100FC000DDF82C80DFF82090D9F800000460416043
:100FD0008281C381057446748774C0F818C0C0F854
:100FE0001C80BDE8F08300001400002070B586B0BE
:100FF00000251748046818200090A289032361691E
:10100000A06800F0A1F9E28904236169A06800F0FA
:1010100067F9208C002101910291CDE90310009124
:10102000D4E90623D4E9000100F048FB0546681C1A
:1010300018B94FF0FF3006B070BDA27C617C207CF7
:1010400000F08AFAA06900F0A6FA0020F3E7000099
:101050001400002010B5242000F000FA044634B932
:10106000114912A0FFF71CFF4FF0FF3010BD012007
:101070002060400460600420A060A0810820E0811E
:1010800026202074032060740220A0740E48606142
:101090000E48A0614FF41640E0610C2020840C48FB
:1010A00004600020E2E700009D1700085B25735DE7
:1010B000626C7565746F6F7468206D616C6C6F63C2
:1010C000206572726F720A000008014000440040FF
:1010D0001400002010B504480468A06900F04EFA1E
:1010E0006069FFF757F810BD1400002010B50248E2
:1010F000006800F053F810BD1400002010B586B051
:101100000024FFF7A7FF044604B12AE04FF416407D
:10111000164900220192CDE90221049026200823DD
:101120000422D10300900120FFF744FFFFF75EFF88
:10113000044604B112E000200D49088048807F2059
:1011400088800C48886000200B49088048807F20F8
:1011500088800A488860002006B010BDFFF7BAFFFB
:1011600000BFFFF7C3FF4FF0FF30F5E7004400403A
:1011700048000020E0000020540000206000002013
:1011800000BF054A128802F04002002AF9D0C2B21C
:10119000014B1B1D1A8070470038014010B5002814
:1011A00021D0114B0022001F196803E0814203D8AF
:1011B0000A4649680029F9D152B11368841A9C4241
:1011C00004D1006818441060104602E0506000E04E
:1011D000186039B102680B1A934203D10B681A44A4
:1011E00002604968416010BD4000002038B51748D2
:1011F000046801216068FFF7A3F92088ADF80000BA
:10120000607E8DF80300207E8DF802006946A0689C
:10121000FFF724F82188A068FFF7F4F8012120697E
:10122000FFF78EF9A089ADF80000607E8DF803000D
:10123000207E8DF8020069466069FFF70FF821886B
:101240006069FFF7DFF8002038BD000000000020D3
:1012500010B51C2000F002F904461CB90CA0FFF7E1
:101260001FFE12E0114860611148A060402020611B
:10127000082060602020A08120800320207610209C
:1012800060760C480460002010BD4FF0FF30FBE793
:101290005B25735D6C656473206770696F206D6199
:1012A0006C6C6F63206572726F72000000180140F1
:1012B000000C01400000002010B50448046860697B
:1012C000FEF768FFA068FEF765FF10BD0000002074
:1012D00010B502480068FFF761FF10BD0000002054
:1012E000F8B507460D4616461C46142C05D0102CA2
:1012F00003D01C2C01D0182C06D10A490AA0FFF7F4
:10130000CFFD4FF0FF30F8BD01213846FFF718F947
:10131000ADF800608DF8034069462846FEF79EFF51
:101320000020F0E77D1700085B25735D6770696F2B
:101330005F72656769737465725F696E707574203A
:101340006572726F720A00002DE9F84380460D46FF
:1013500016461F46089C2CB1042C03D0282C01D023
:10136000482C07D10B490CA0FFF79AFD4FF0FF3036
:10137000BDE8F88301214046FFF7E2F8ADF80060D0
:101380008DF803408DF8027069462846FEF766FF27
:101390000020EDE7681700085B25735D6770696FD3
:1013A0005F72656769737465725F6F757470757469
:1013B000206572726F720A0010B50024FFF748FFB3
:1013C000044604B10CE0FFF711FF044604B104E049
:1013D00006A0FFF765FD002010BDFFF76DFF00BF01
:1013E000FFF776FF4FF0FF30F6E700006C656420F2
:1013F00070726F6265204F4B0A00000000240125C7
:1014000000F062F800F08CF9114800F0C4F8FFF722
:1014100075FE104800F0BFF8FFF7CEFF002140F244
:101420008330FFF7D3F912E00A2000F06FF815B10E
:10143000601C84B201E0601E84B2B4F5967F00DDCA
:10144000002504B9012521460348FFF764FBEBE7BB
:10145000003801400044004000040040F0B50B306B
:10146000154D20F007010024144A0FE003688B4259
:101470000BD38B4205D95E1A43184768C3E900674E
:1014800000E04368136002C004E0021D10680028F9
:10149000ECD12046002802D1286808B10020F0BD18
:1014A000064A07481060074A121A22F00702C0E9EC
:1014B000002401202860D7E74400002040000020DD
:1014C000640100206003002010B56FF00400FFF7F6
:1014D00037F90A4800680A49B0FBF1F00949087079
:1014E0000846007800EB4001C1EBC0104FF6FF71D9
:1014F00001EAC0000449088010BD00002C00002053
:1015000000127A0004000020060000200146114A63
:1015100012884A434FF0E0235A6100229A611A462A
:10152000126942F001021A6100BF4FF0E022106917
:1015300000F001021AB100F48032002AF5D04FF019
:10154000E022126922F001024FF0E0231A6100222A
:101550009A61704706000020F8B506460C4615460D
:101560008DF800608DF801408DF8025001208DF853
:1015700003006846FEF74EFF0020F8BD10B5044694
:10158000002240F225512046FFF7C7FB00212046EC
:10159000FFF78DFB10BD10B50446012240F2255126
:1015A0002046FFF7BAFB01212046FFF780FB10BD64
:1015B00070B586B000251748046818200090A289ED
:1015C00003236169A068FFF7BFFEE2890423616914
:1015D000A068FFF785FE208C002101910291CDE9E2
:1015E00003100091D4E90623D4E9000100F066F865
:1015F0000546681C18B94FF0FF3006B070BDA27CDC
:10160000617C207CFFF7A8FFA069FFF7C4FF0020E2
:10161000F3E700000800002010B52420FFF71EFFAC
:10162000044634B9114912A0FFF73AFC4FF0FF30DD
:1016300010BD02202060400360600420A060C00153
:10164000A0814000E0812520207403206074A074F4
:101650000D4860610D48A0614FF4E130E0610C205D
:1016600020840B4804600020E2E700009117000886
:101670005B25735D7573617274206D616C6C6F6353
:10168000206572726F720A00000801400038014044
:101690000800002010B504480468A069FFF76EFF39
:1016A0006069FEF777FD10BD0800002010B5024804
:1016B0000068FFF773FD10BD080000202DE9FF5FF3
:1016C00004460D4616461F46DDE910ABDDE90E89DE
:1016D0006846FFF7BCFB012C04D101212846FEF728
:1016E0001FFF0BE0022C04D101212846FEF728FF42
:1016F00004E04FF0FF3004B0BDE8F09F0097ADF874
:101700000480ADF80690ADF808A0ADF80CB01298C2
:10171000ADF80A0069463046FFF724FB0020EAE7EF
:1017200010B500244FF4A060FEF7ACFEFFF774FF85
:10173000044604B10CE0FFF73BFF044604B104E0AB
:1017400006A0FFF7ADFB002010BDFFF7A3FF00BF11
:10175000FFF7ACFF4FF0FF30F6E7000075736172E2
:1017600074204F4B000000006770696F5F726567FF
:1017700069737465725F6F757470757400677069F2
:101780006F5F72656769737465725F696E70757497
:101790000075736172745F70726F626500626C7560
:1017A00065746F6F74685F756172745F70726F6279
:1017B00065000000D4170008000000204800000069
:1017C000C00E00081C180008480000201807000080
:1017D000D00E000800000000000000000000000023
:1017E00000000000000000000000000000000000F9
:1017F00001020304010203040607080902040608A3
:1018000000A24A04000000000000000001020304DE
:0C181000060708090000000000000000AE
:0400000508000131BD
:00000001FF
