:020000040800F2
:100000002806002045010008B9020008B1020008D6
:10001000B50200088D01000875040008000000000A
:10002000000000000000000000000000FD020008C9
:100030009101000800000000BB0200081104000844
:100040005F0100085F0100085F0100085F01000810
:100050005F0100085F0100085F0100085F01000800
:100060005F0100085F0100085F0100085F010008F0
:100070005F0100085F0100085F0100085F010008E0
:100080005F0100085F0100085F0100085F010008D0
:100090005F0100085F0100085F0100085F010008C0
:1000A0005F0100085F0100085F0100085F010008B0
:1000B0005F0100085F0100085F0100085F010008A0
:1000C0005F0100085F0100085F0100085F01000890
:1000D0005F0100085F0100085F0100085F01000880
:1000E0005F0100085F0100085F0100085F01000870
:1000F0005F0100085F0100085F0100085F01000860
:100100005F0100085F0100085F0100085F0100084F
:100110005F0100085F0100085F0100085F0100083F
:100120005F0100085F0100085F0100085F0100082F
:10013000DFF80CD000F018F80048004777060008F8
:10014000280600200648804706480047FEE7FEE7ED
:10015000FEE7FEE7FEE7FEE7FEE7FEE7FEE7FEE777
:100160001504000831010008064C074D06E0E06860
:1001700040F0010394E8070098471034AC42F6D3EE
:10018000FFF7DAFF84070008A407000800BFFEE7B6
:1001900070472DE9F041024600250026002000238B
:1001A0000024002791F803C00CF00F0591F803C05C
:1001B0000CF0100CBCF1000F03D091F802C04CEA17
:1001C000050591F800C0BCF1000F31D01468002083
:1001D0002BE04FF0010C0CFA00F3B1F800C00CEA70
:1001E00003069E4220D183004FF00F0C0CFA03F758
:1001F000BC4305FA03FC4CEA040491F803C0BCF1CB
:10020000280F06D14FF0010C0CFA00FCC2F814C004
:100210000AE091F803C0BCF1480F05D14FF0010C82
:100220000CFA00FCC2F810C0401C0828D1D314609E
:10023000B1F800C0BCF1FF0F34DD546800202EE09F
:1002400000F1080C4FF0010808FA0CF3B1F800C0F7
:100250000CEA03069E4221D183004FF00F0C0CFAEA
:1002600003F7BC4305FA03FC4CEA040491F803C00D
:10027000BCF1280F05D100F1080C08FA0CF8C2F8FF
:10028000148091F803C0BCF1480F07D100F1080CAD
:100290004FF0010808FA0CF8C2F81080401C08283A
:1002A000CED35460BDE8F081416170470161704771
:1002B00000BFFEE700BFFEE77047704729B1064A5E
:1002C000D2690243044BDA6104E0034AD2698243F3
:1002D000014BDA61704700000010024029B1064A64
:1002E00092690243044B9A6104E0034A9269824393
:1002F000014B9A617047000000100240704710B532
:1003000000F002F810BD00000CB500200190009034
:100310003348006840F480303149086000BF3048FD
:10032000006800F4003000900198401C0190009893
:1003300018B90198B0F5A06FF1D12948006800F410
:10034000003010B10120009001E0002000900098E2
:10035000012843D12348006840F01000214908607B
:100360000846006820F0030008600846006840F076
:10037000020008601A484068194948600846406809
:1003800048600846406840F480604860084640681D
:1003900020F47C1048600846406840F4E81048604B
:1003A0000846006840F08070086000BF0C48006894
:1003B00000F000700028F9D00948406820F00300E0
:1003C000074948600846406840F00200486000BFA6
:1003D0000348406800F00C000828F9D10CBD00006B
:1003E0000010024000200240042808D14FF0E02114
:1003F000096941F004014FF0E022116107E04FF07C
:10040000E021096921F004014FF0E02211617047F9
:100410007047000010B51348006840F00100114912
:10042000086008464068104908400E494860084680
:1004300000680E4908400B4908600846006820F42F
:10044000802008600846406820F4FE0048604FF4B1
:100450001F008860FFF753FF4FF0006004490860F9
:1004600010BD0000001002400000FFF8FFFFF6FE84
:1004700008ED00E000BFFEE702E008C8121F08C157
:10048000002AFAD170477047002001E001C1121F15
:10049000002AFBD17047000010B5002821D0114B75
:1004A0000022001F196803E0814203D80A46496808
:1004B0000029F9D152B11368841A9C4204D1006812
:1004C00018441060104602E0506000E0186039B136
:1004D00002680B1A934203D10B681A440260496800
:1004E000416010BD1C00002010B503480468218A3B
:1004F000A069FFF7D9FE10BD1400002010B5034815
:100500000468218AA069FFF7D1FE10BD1400002005
:1005100038B527480468E068012804D101216068E3
:10052000FFF7CCFE08E0E068022804D101216068F2
:10053000FFF7D4FE00E038E02088ADF8000094F822
:1005400024008DF8030094F820008DF8020069461D
:10055000A068FFF71EFE2188A068FFF7A7FEE069EC
:10056000012804D101216069FFF7A8FE08E0E069D5
:10057000022804D101216069FFF7B0FE00E014E019
:10058000208AADF8000094F824008DF8030094F858
:1005900020008DF802006946A069FFF7FAFD218866
:1005A000A069FFF783FE002038BD4FF0FF30FBE766
:1005B0001400002010B5282000F066F8044604B9A5
:1005C00015E00E48A0610E48A0600220E060E061E6
:1005D000402060610820606020202082208003206D
:1005E00020621020606207480460002010BD204691
:1005F000FFF752FF4FF0FF30F8E70000001801400E
:10060000000C01401400002010B503480468218844
:10061000A068FFF749FE10BD1400002010B5034884
:1006200004682188A068FFF741FE10BD1400002077
:1006300010B50024FFF7BEFF044604B106E0FFF743
:1006400067FF044604B101E0002010BD4FF0FF3009
:10065000FBE710B5FFF7E2FFFFF746FF4FF4967098
:1006600000F06AF8FFF7D0FFFFF748FF4FF49670ED
:1006700000F062F810BD00F03DF8FFF7D9FF01E08F
:10068000FFF7E7FFFCE70000F0B50B30154D20F059
:1006900007010024144A0FE003688B420BD38B42FE
:1006A00005D95E1A43184768C3E9006700E043684C
:1006B000136002C004E0021D10680028ECD120463F
:1006C000002802D1286808B10020F0BD064A07487A
:1006D0001060074A121A22F00702C0E90024012024
:1006E0002860D7E7200000201C0000202C000020FC
:1006F0002802002010B56FF00400FFF775FE0A48CD
:1007000000680A49B0FBF1F0094908700846007812
:1007100000EB4001C1EBC0104FF6FF7101EAC000D1
:100720000449088010BD00000000002000127A007B
:10073000180000201A0000200146114A12884A437E
:100740004FF0E0235A6100229A611A46126942F082
:1007500001021A6100BF4FF0E022106900F00102AF
:100760001AB100F48032002AF5D04FF0E02212696D
:1007700022F001024FF0E0231A6100229A617047D3
:100780001A000020A4070008000000202400000038
:1007900078040008C80700082400002004060000B0
:1007A0008804000800A24A040000000000000000C5
:1007B0000102030406070809000000000000000011
:0807C000000000000000000031
:0400000508000131BD
:00000001FF
