:020000040800F2
:10000000001400204501000817130008AB0C00087D
:1000100013130008E3090008051900080000000098
:10002000000000000000000000000000D5140008DF
:10003000E7090008000000009D130008E91500080A
:100040005F0100085F0100085F0100085F01000810
:100050005F0100085F0100085F0100085F01000800
:100060005F0100085F0100085F0100085F010008F0
:100070005F0100085F0100085F0100085F010008E0
:100080005F0100085F0100085F0100085F010008D0
:100090005F0100085F0100085F0100085F010008C0
:1000A0005F0100085F0100085F0100085F010008B0
:1000B0005F0100085F0100085F0100085F010008A0
:1000C0005F0100085F0100085F0100085F01000890
:1000D0005F0100085F0100084D1600085F0100087D
:1000E0005F0100085F0100085F0100085F01000870
:1000F0005F0100085F0100085F0100085F01000860
:100100005F0100085F0100085F0100085F0100084F
:100110005F0100085F0100085F0100085F0100083F
:100120005F0100085F0100085F0100085F0100082F
:10013000DFF80CD000F0F0F9004800470521000876
:10014000001400200648804706480047FEE7FEE707
:10015000FEE7FEE7FEE7FEE7FEE7FEE7FEE7FEE777
:10016000ED150008310100082DE9F0410024061BBF
:10017000254671F1000605DA01240027D0EB0700BF
:1001800067EB0101161E73F1000605DA0027D2EBBA
:100190000702012567EB030300F046F986460E4689
:1001A00017469C46AC4204D00025D0EB050E65EB0B
:1001B000010624B10020D2EB000760EB030C70466F
:1001C00031463A466346BDE8F08140EA01039B07A9
:1001D00003D009E008C9121F08C0042AFAD203E0BC
:1001E00011F8013B00F8013B521EF9D27047D2B220
:1001F00001E000F8012B491EFBD270470022F6E710
:1002000010B513460A4604461946FFF7F0FF20468C
:1002100010BDF0B480EA0102D40F4200B2EB410FEE
:1002200002D20246084611464A0042D0C30DDDB252
:10023000C1F3C752AD1A202D35DAC1F3160141F4CE
:10024000000204B15242C5F1200602FA06F12A4129
:100250001044B3EBD05F23D0C4B1012DA0EBC35049
:1002600009DCF0BC4FF0004202EAC352DBB200F5F9
:10027000000000F023B9400000F1807000EBC35093
:10028000A0F1807040EAD170490009E0490841EAD4
:10029000C071A0EBC35000F50000400800EBC35054
:1002A000F0BC00F002B96142012202EB4101001BE7
:1002B000F6E7F0BC704781F00041AAE780F000400B
:1002C000A7E780EA010210B502F00043400022D007
:1002D0004A001FD0010E01EB1261C0F35600C2F3B9
:1002E000560240F4000042F40002A0FB0220000489
:1002F0007F39140400D0401C50EA124001D4400061
:10030000491EC2B20C0604EBD010401C4008802AE3
:1003100002D003E0002010BD20F00100002900DA27
:100320000020184310BD30B480EA010202F00045FD
:1003300030F0004221F0004013D090B1C30DD40D35
:10034000C2F31601C0F31600E41A41F4000140F4B0
:1003500000027D34914201D3641C00E04900002C6E
:1003600002DA30BC002070474FF4000000239142B5
:1003700001D3891A034340084FEA4101F7D151B133
:10038000914202D14FF0004105E002D24FF001014D
:1003900001E06FF0010103EBC450284430BC00F0D1
:1003A00084B8C10F80EAE0700844CA079623002190
:1003B00000F084B8F0B4CA17CB0F50405140C618B3
:1003C00041F100054FEAC372314628004FF0960311
:1003D00003D0B623F0BC00F071B830460021F9E735
:1003E00000F0004220F00040C10DC0F3160040F4C0
:1003F00000007F2901DA00207047962903DCC1F153
:100400009601C84001E096398840002AF4D0404265
:1004100070470000002801DBC0F10040002901DB2B
:10042000C1F10041814270472DE9F05F054600208F
:1004300092469B4688460646814640241BE0284655
:1004400041464746224600F020F853465A46C01A15
:10045000914110D311461846224600F06FF82D1A2C
:1004600067EB01084F4622460120002100F066F8A4
:1004700017EB00094E41201EA4F10104DFDC4846C1
:1004800031462A464346BDE8F09F202A04DB203A45
:1004900021FA02F00021704721FA02F3D040C2F1A4
:1004A000200291400843194670470029A8BF7047B1
:1004B000401C490008BF20F00100704710B4B0FA9A
:1004C00080FC00FA0CF050EA010404BF10BC704735
:1004D00049B1CCF1200421FA04F411FA0CF118BF4F
:1004E000012121430843A3EB0C01CB1D4FEA00611E
:1004F0004FEA102042BF002010BC704700EBC350F1
:1005000010440029A4BF10BC7047401C490008BF1C
:1005100020F0010010BC7047064C074D06E0E06873
:1005200040F0010394E8070098471034AC42F6D33A
:10053000FFF702FED4290008F4290008202A04DB72
:10054000203A00FA02F1002070479140C2F12003E6
:1005500020FA03F319439040704738B504462078D9
:10056000012817D1A07805280FD006DC012809D072
:10057000022808D004280BD106E0A02806D0A12824
:1005800006D104E005E004E003E002E001E000E061
:1005900000BF1CE02078022815D1A078012804D0E3
:1005A000022803D0A0280DD101E00BE00AE00020D2
:1005B0004FF4C87364224FF496710090042000F049
:1005C000A7F900BF03E02078032800D000BF38BDA2
:1005D00010B504462B480078062850D2DFE800F01A
:1005E000030B13192C3FAA2C01D1012000E000209D
:1005F0002449087044E0AF2C01D1022000E0002023
:10060000204908703CE02048047003201D49087010
:1006100036E01E2C0CDC1C48447000201B4908707E
:10062000002C01DD042000E005201649087002E0DE
:1006300000201449087023E01348801C13490978EE
:10064000445412480078401C104908700E48407805
:100650000978884202D105200A49087010E00A484A
:1006600000F016F8A04203D10748FFF776FF02E03A
:1006700000200449087000200249087000E000BF13
:1006800000BF10BD61000020DC0D002062000020D2
:1006900010B50146002059200B7803444C782344C0
:1006A000D8B2002205E08B1C9B5C0344D8B2531CDB
:1006B000DAB24B789342F6DC10BD0FB430B595B08A
:1006C000AA208DF814008DF815009DF860008DF8B3
:1006D00016009DF861008DF817009DF861200DF15E
:1006E000620106A8FFF771FD9DF86100401DC4B2CC
:1006F0001CA80FC88DE80F0018A80FC800F053F908
:100700000546601E05A90D54214605A800F004F811
:1007100015B030BC5DF814FB70B504460D46294693
:10072000204601F0D5F870BD10B58CB01A4800888D
:100730000A2190FBF1F201FB1200F0B906AA08A908
:100740000AA801F05BFCBDF91C00BDF91A10BDF947
:100750001820BDF92430CDE90132CDE90310BDF9EF
:1007600022000090BDF92030BDF92C20BDF92A10DF
:10077000BDF9280000F012F800BF07480088401CAF
:1007800080B2054908804FF6FF71884202DB0120E4
:10079000014908800CB010BD640000202DE9F04F25
:1007A0008DB005460E4617469846DDE917ABDDF8D5
:1007B0005890002402208DF8140004959DF8112013
:1007C0002146641C0DF1160042549DF8102021466C
:1007D000641C425404969DF811202146641C425426
:1007E0009DF810202146641C425404979DF8112066
:1007F0002146641C42549DF810202146641C42543A
:10080000CDF810809DF811202146641C42549DF8BB
:1008100010202046611CCCB20DF116010A54CDF80F
:1008200010909DF811202046611CCCB20DF11601EC
:100830000A549DF810202046611CCCB20DF116011F
:100840000A54CDF810A09DF811202046611CCCB2AE
:100850000DF116010A549DF810202046611CCCB2FF
:100860000DF116010A54CDF810B09DF81120204664
:10087000611CCCB20DF116010A549DF810202046DF
:10088000611CCCB20DF116010A54199804909DF820
:1008900011202046611CCCB20DF116010A549DF8BE
:1008A00010202046611CCCB20DF116010A541A9892
:1008B00004909DF811202046611CCCB20DF1160168
:1008C0000A549DF810202046611CCCB20DF116018F
:1008D0000A54002004909DF811202046611CCCB2DF
:1008E0000DF116010A549DF810202046611CCCB26F
:1008F0000DF116010A548DF8154009A80FC88DE8AE
:100900000F0005A80FC8FFF7D8FE0DB0BDE8F08FA7
:100910007FB58CB005460024002600208DF810001D
:100920008DF811002146641C0DF1120045549DF80C
:1009300035202146641C42549DF834202146641C15
:1009400042549DF839202146641C42549DF83820B9
:100950002146641C42549DF83D202146641C4254AB
:100960009DF83C202146641C42549DF851202046AD
:10097000611CCCB20DF112010A549DF850202046A2
:10098000611CCCB20DF112010A54601EC0B28DF888
:10099000110008A80FC88DE80F0004A80FC8FFF7C2
:1009A0008CFE10B070BD0FB4002000F1AA02D0B2CE
:1009B00000F1AA02D0B29DF8002002449DF8013057
:1009C0001A44D0B2002106E00DF10202525C02444A
:1009D000D0B24A1CD1B29DF801208A42F4DC04B0A6
:1009E000704700BFFEE7704710B5044629488442AF
:1009F00008D10121042000F0F3FC0021042000F0C4
:100A0000EFFC46E02448844208D10121082000F090
:100A1000E7FC0021082000F0E3FC3AE01F48844294
:100A200008D10121102000F0DBFC0021102000F093
:100A3000D7FC2EE01A48844208D10121202000F082
:100A4000CFFC0021202000F0CBFC22E0154884429E
:100A500008D10121402000F0C3FC0021402000F01B
:100A6000BFFC16E01048844208D10121802000F02C
:100A7000B7FC0021802000F0B3FC0AE00B48844260
:100A800007D10121801500F0ABFC0021A01500F07A
:100A9000A7FC10BD00080140000C014000100140FF
:100AA0000014014000180140001C014000200140DA
:100AB0002DE9F041024600250026002000230024F5
:100AC000002791F803C00CF00F0591F803C00CF05B
:100AD000100CBCF1000F03D091F802C04CEA0505E0
:100AE00091F800C0BCF1000F31D0146800202BE059
:100AF0004FF0010C0CFA00F3B1F800C00CEA030649
:100B00009E4220D183004FF00F0C0CFA03F7BC4338
:100B100005FA03FC4CEA040491F803C0BCF1280F69
:100B200006D14FF0010C0CFA00FCC2F814C00AE028
:100B300091F803C0BCF1480F05D14FF0010C0CFA3D
:100B400000FCC2F810C0401C0828D1D31460B1F8D2
:100B500000C0BCF1FF0F34DD546800202EE000F12E
:100B6000080C4FF0010808FA0CF3B1F800C00CEAC9
:100B700003069E4221D183004FF00F0C0CFA03F7BD
:100B8000BC4305FA03FC4CEA040491F803C0BCF131
:100B9000280F05D100F1080C08FA0CF8C2F81480EF
:100BA00091F803C0BCF1480F07D100F1080C4FF0D9
:100BB000010808FA0CF8C2F81080401C0828CED3AF
:100BC0005460BDE8F08100003EB50546002001906C
:100BD00002900623032201A93C2000F0B5F9012070
:100BE00000900D480078012804D1022269463C207B
:100BF00000F01EFA00240CE001A911F814006100B5
:100C0000491C01AA515C01EB002000B225F8140038
:100C1000641C032CF0DB3EBD3600002038B570208C
:100C20000090002269463C2000F002FA012000F00A
:100C300008F8012000F010F800F01EF804462046E5
:100C400038BD38B504466007000E009001226946A1
:100C50003C2000F0EDF938BD38B504460548007871
:100C60000090022269463C2000F0E2F9014804703D
:100C700038BD00003600002008B500200090032396
:100C80000A2269463C2000F05FF99DF800004828E0
:100C900009D19DF80100342805D19DF802003328C0
:100CA00001D1012008BD0020FCE700BFFEE721B113
:100CB000028842F48062028004E002884FF6FF332B
:100CC0001A400280704770B50246002400250023B8
:100CD0000020958A138B1B0445EA030626F07F4407
:100CE00004EA01068E4201D1012000E0002070BD1F
:100CF00021B1028842F00102028004E002884FF62E
:100D0000FE731A400280704721B1028842F480725B
:100D1000028004E002884FF6FF631A4002807047A9
:100D200021B1028842F40072028004E002884FF68A
:100D3000FF531A40028070470CB502460020002382
:100D40000193009300920B0F019321F07F41019BCF
:100D50001BB1009B1433009303E0090C009B183374
:100D60000093009B1B680B400BB1012000E00020AA
:100D70000CBD00002DE9F04385B004460D46002669
:100D8000B1460427DFF8CC80A6884FF6C070064035
:100D9000684600F035FBDDF808802F48B8FBF0F01E
:100DA0001FFA80F946EA0906A68020884FF6FE71F0
:100DB0000840208000262949286888420CD82868E5
:100DC0004000B8FBF0F087B2042F00DA04273E435E
:100DD00009F10100208427E0E8884BF6FF71884282
:100DE00006D1286800EB4000B8FBF0F087B209E0BC
:100DF000286800EBC00101EB0010B8FBF0F087B2EF
:100E000047F48047C7F30B0008B947F0010747F4E0
:100E1000004006434FF4967009FB00F04FF47A71DE
:100E200090FBF1F0401C2084A683208840F0010054
:100E3000208026884FF6F5300640A8886989084347
:100E400006432680A88929890843208105B0BDE88A
:100E5000F083000000127A0040420F00A0860100DB
:100E60000146088AC0B2704712B141F0010102E0A8
:100E70004FF6FE731940018270470182704738B502
:100E80000446032302221A21D020009400F015FA10
:100E900038BD10B50446234607226B21D02000F050
:100EA000ECF910BD7CB506460C46154600200090B6
:100EB000019006233B226946D02000F045F89DF9B9
:100EC00001009DF9001040EA012030809DF90300E7
:100ED0009DF9021040EA012020809DF905009DF94E
:100EE000041040EA012028807CBD1CB501A806231F
:100EF0001A4675210090D02000F05EF99DF804009C
:100F00001CBD7CB506460C4615460020009001909D
:100F1000062343226946D02000F016F89DF901000F
:100F20009DF9001040EA012030809DF903009DF9F1
:100F3000021040EA012020809DF905009DF904106F
:100F400040EA012028807CBD2DE9F04106460D468F
:100F500017461C4600BF4FF400313248FFF7ECFE45
:100F60000028F8D101212F48FFF7CEFE00BF2E49FF
:100F70002C48FFF7A8FE0028F9D000223146294866
:100F8000FFF772FF00BF29492648FFF79CFE0028A3
:100F9000F9D001212348FFF7ABFE39462148FFF77E
:100FA0006CFF00BF2149891C1E48FFF78CFE0028FA
:100FB000F8D001211B48FFF7A7FE00BF1A491948C6
:100FC000FFF781FE0028F9D0012231461548FFF7CE
:100FD0004BFF00BF1449491C1248FFF774FE00285C
:100FE000F8D016E0012C07D100210E48FFF75FFE74
:100FF00001210C48FFF794FE0B493F310948FFF7E8
:1010000062FE30B10748FFF72BFF28706D1C601E91
:1010100084B2002CE6D101210248FFF748FEBDE86A
:10102000F08100000058004001000300820007002A
:1010300070B504460D46164601211948FFF764FEB7
:1010400000BF18491648FFF73EFE0028F9D00022DD
:1010500021461348FFF708FF00BF13491048FFF768
:1010600032FE0028F9D031460D48FFF706FF00BFD9
:101070000D49891C0A48FFF726FE0028F8D0297878
:101080000748FFF7FAFE00BF0749891C0448FFF72D
:101090001AFE0028F8D001210148FFF741FE70BD7B
:1010A00000580040010003008200070000B585B031
:1010B0000121880500F074F90121082000F080F971
:1010C0004FF44060ADF8000003208DF802001C20B2
:1010D0008DF8030069461048FFF7EAFC0020ADF8E0
:1010E00008004BF6FF70ADF80A00D020ADF80C00F8
:1010F0004FF48060ADF80E000001ADF81000074815
:10110000019001A90648FFF735FE01210448FFF7C9
:10111000EFFD05B000BD0000000C0140A0860100FD
:101120000058004010B50120FFF7B3FE4FF4FA70ED
:1011300001F0FCFA00F098F8044614B90EA000F093
:10114000E3FB032000F069F8002000F023F8012001
:1011500000F029F8032000F074F8022000F067F88E
:10116000012000F050F80220FFF789FE002000F077
:1011700072F8204610BD00004D50553630353020F5
:10118000496E697469616C697A65204661696C2190
:101190000000000010B50446234600223821D0206C
:1011A00000F06BF810BD10B504462346012237212C
:1011B000D02000F062F810BD2DE9F84307460E4636
:1011C00015461C46DDF82080012332466946384624
:1011D000FFF7BAFE0120A040401E291B491C884091
:1011E00000F0FF099DF8000000EA09000090281BAC
:1011F000401C9DF80010014100919DF8000088F806
:101200000000BDE8F88338B50446082307221921F9
:10121000D020009400F051F838BD38B504460323BF
:1012200002226B21D020009400F047F838BD38B579
:101230000446022304221C21D020009400F03DF833
:1012400038BD38B50446022304221B21D020009467
:1012500000F033F838BD10B50446234606226B2152
:10126000D02000F00AF810BD10B5FFF73EFE34287C
:1012700001D1012010BD0020FCE7F8B507460D465E
:1012800014461E4601232A4669463846FFF75CFE8F
:101290002EB10120A0409DF80010084305E0012078
:1012A000A0409DF8001021EA0000C0B200902A463C
:1012B00069463846FFF7BCFEF8BD2DE9F843814684
:1012C0000F4615461C46089E01233A466946484685
:1012D000FFF73AFE0120A040401E291B491C884010
:1012E00000F0FF08281B401C06FA00F0C6B206EA10
:1012F00008069DF8000020EA080000909DF8000014
:10130000304300903A4669464846FFF791FEBDE8F3
:10131000F88300BFFEE7704770B5002100230F225D
:10132000C47804B3154C246804F4E064C4F5E064A4
:10133000210AC1F10403CA40447804FA03F1847815
:101340001440214309010E4C0678A155047804F09D
:101350001F050124AC4005786D11AD0005F1E025B5
:10136000C5F8004109E0047804F01F050124AC40F1
:10137000044D0678761145F8264070BD0CED00E06E
:1013800000E400E080E100E002490143024A11600C
:10139000704700000000FA050CED00E07047000007
:1013A00029B1064AD2690243044BDA6104E0034AD8
:1013B000D2698243014BDA6170470000001002409D
:1013C00029B1064A92690243044B9A6104E0034A38
:1013D00092698243014B9A617047000000100240FD
:1013E00029B1064AD2680243044BDA6004E0034A9A
:1013F000D2688243014BDA6070470000001002405F
:1014000030B500210022002400232D4D6D6805F029
:101410000C0121B1042905D0082923D105E0294D6B
:10142000056022E0274D05601FE0254D6D6805F43D
:101430007012234D6D6805F48034022505EB92424D
:101440001CB9214D554305600BE01D4D6D6805F439
:1014500000351DB11C4D5543056002E0194D554343
:10146000056002E0174D056000BF00BF144D6D68B8
:1014700005F0F0010909154D6B5C0568DD4045601C
:101480000F4D6D6805F4E061090A104D6B5C45680D
:10149000DD4085600A4D6D6805F46051C90A0B4D49
:1014A0006B5C4568DD40C560054D6D6805F44041E5
:1014B000890B074D6B5CC568B5FBF3F5056130BD65
:1014C0000010024000127A0000093D0037000020A1
:1014D00047000020704710B500F002F810BD000072
:1014E0000CB50020019000903348006840F4803033
:1014F0003149086000BF3048006800F400300090B7
:101500000198401C0190009818B90198B0F5A06F9F
:10151000F1D12948006800F4003010B1012000909A
:1015200001E0002000900098012843D12348006882
:1015300040F01000214908600846006820F00300D0
:1015400008600846006840F0020008601A484068D9
:10155000194948600846406848600846406840F4B9
:10156000806048600846406820F47C104860084667
:10157000406840F4E81048600846006840F0807019
:10158000086000BF0C48006800F000700028F9D027
:101590000948406820F00300074948600846406851
:1015A00040F00200486000BF0348406800F00C00B3
:1015B0000828F9D10CBD00000010024000200240B4
:1015C000042808D14FF0E021096941F004014FF0EF
:1015D000E022116107E04FF0E021096921F00401E8
:1015E0004FF0E022116170477047000010B51348BA
:1015F000006840F001001149086008464068104941
:1016000008400E494860084600680E4908400B49EA
:1016100008600846006820F480200860084640689A
:1016200020F4FE0048604FF41F008860FFF753FF6E
:101630004FF000600449086010BD00000010024037
:101640000000FFF8FFFFF6FE08ED00E010B540F2E5
:101650002771184800F051F890B1174800F024F9AC
:1016600004462146134800F008F9134800F015F924
:10167000F8B9002240F227710E4800F068F818E02F
:1016800040F225510B4800F038F890B140F2255156
:10169000084800F017F8074800F0EAF80749087012
:1016A00008460078FEF794FF04480178044800F0EB
:1016B00005F910BD00440040B000002010000020DB
:1016C000BC00002010B50022002340F66A14A1429D
:1016D00000D100BF0A1201249440A3B2DC4304806D
:1016E00010BD21B1828942F40052828104E08289D6
:1016F0004DF6FF731A408281704770B50246002490
:1017000000230025002040F66A16B14200D100BF38
:10171000C1F3421501F01F03012606FA03F3012D60
:1017200002D19689334006E0022D02D1168A334059
:1017300001E0968A33400C12012606FA04F416885A
:10174000344013B10CB1012000E0002070BDF0B5B1
:101750000346002400260025002040F66A17B942FF
:1017600000D100BF1846C1F3421401F01F06012743
:1017700007FA06F5012C01D10C3004E0022C01D14E
:10178000103000E014301AB107682F43076002E000
:101790000768AF430760F0BD2DE9F04786B0054606
:1017A0000E460024A24600BFA1460027B08900B122
:1017B00000BF2F462C8A4CF6FF700440F08804438B
:1017C0002C82AC894EF6F3100440B088318908436E
:1017D000718908430443AC81AC8A4FF6FF40044052
:1017E000B0890443AC8201A8FFF70AFE1F48874274
:1017F00002D1DDF810A001E0DDF80CA0A88900F40A
:10180000004040B10AEBCA0000EB0A103168490001
:10181000B0FBF1F807E00AEBCA0000EB0A103168F0
:101820008900B0FBF1F86420B8FBF0F00401200956
:10183000642101FB1089A88900F4004040B13220E6
:1018400000EBC900B0FBF1F000F00700044308E032
:10185000322000EB09106421B0FBF1F000F00F0022
:1018600004432C8106B0BDE8F08700000038014039
:1018700001468888C0F308007047C1F308028280DF
:1018800070474FF41651016000218180C1800181B1
:101890000C214181002181817047014608884A88D6
:1018A000801A8A881040704701464A888B881A40FF
:1018B0008B68985C4A88521C4A80704702888388EB
:1018C0001A40836899540288521C028070470000B5
:1018D00070B504460D46002606E021780748FFF75C
:1018E000EDFF641C701CC6B2AE42F6DB012240F272
:1018F00027710348FFF72BFF70BD0000B0000020E8
:101900000044004000BFFEE70FB4054B10B503A92B
:10191000044A029800F018F810BC5DF814FB0000AF
:10192000911F00080C00002002E008C8121F08C127
:10193000002AFAD170477047002001E001C1121F50
:10194000002AFBD1704700002DE9FF4F8DB00F46F4
:101950000546002606E025280BD0DDE90F1290474A
:101960006D1C761C28780028F5D111B03046BDE8F2
:10197000F08F0024A246A1460122EC4900E0044376
:1019800015F8013F203B02FA03F00842F7D128780E
:101990002A2810D06FF02F022878A0F130010929F1
:1019A00014D80AEB8A0102EB410144F0020400EB77
:1019B000010A6D1CF0E701CF5FEA000A03D544F489
:1019C0000054CAF1000A44F002046D1C28782E2845
:1019D00017D115F8010F44F004042A280ED06FF037
:1019E0002F022878A0F1300109290AD809EB8901D2
:1019F00002EB410100EB01096D1CF2E757F8049B73
:101A00006D1C28786C280FD006DC4C2817D068286D
:101A10000DD06A2814D104E0742810D07A280FD190
:101A20000DE044F400140AE044F4801401E044F4AE
:101A300040146978814202D104F580146D1C6D1C3C
:101A40002A786E2A1FD00CDC632A31D004DC002AED
:101A50008BD0582A11D1A3E0642A68D0692A0CD10E
:101A600065E0732A2ED004DC6F2A73D0702A04D16B
:101A70009BE0752A6FD0782A6ED01046DDE90F12F0
:101A80009047761C50E1C4F30250022806D0032888
:101A900009D0042801CF09D0066045E101CFF11734
:101AA000C0E9006140E101CF06803DE106703BE105
:101AB00017F8040B8DF8000000208DF80100EB46AC
:101AC000012003E057F804BB4FF0FF3061074FF0EF
:101AD000000102D40DE008F10101884649450FDA02
:101AE0008045F8DB1BF808100029F4D108E008F164
:101AF000010188468142FADB1BF808100029F6D163
:101B0000DDE90F23AAEB08008146214600F036F9F3
:101B1000304400EB080604E0DDE90F121BF8010B6E
:101B20009047B8F10108F7D221464846F7E00A216C
:101B3000C4F302534FF0000B0891022B04D001CFE5
:101B4000C117032B09D00AE0FF1D27F00707F7E8AC
:101B5000020108E032E01FE020E000B2C117042BD0
:101B600001D140B2C117031E71F1000307DA4FF033
:101B7000000CD0EB0C006CEB01012D2302E02305DF
:101B800004D52B238DF82430012303E0E30701D093
:101B90002023F7E7984658E00A2110E010210EE0D4
:101BA00010204FF0000B08900CE010214FF0000BBC
:101BB00044F004044FF00809089103E008214FF0B5
:101BC000000B0891C4F30253022B04D001CF002173
:101BD000032B06D006E0FF1D27F00707F7E80201F8
:101BE00003E080B2042B00D1C0B24FF000082307FD
:101BF0002BD5702A07D0DDF820C08CF0100C5CEAE1
:101C00000B0C05D00EE040238DF82430012308E0B2
:101C100050EA010306D030238DF824308DF82520BA
:101C200002239846DDF820C08CF0080C5CEA0B0C0F
:101C30000BD150EA010301D1630706D530238DF89B
:101C400024304FF00108A9F10109582A04D038A224
:101C50000B9208AA0A920BE03AA2F9E75B46089AAF
:101C6000FEF7E2FB0B9B9B5C0A9A521E0A921370D2
:101C700050EA0102F2D10A98ADEB000000F1200B0E
:101C8000600702D524F4803401E04FF00109D94502
:101C900002DDA9EB0B0000E0002000EB0B0141444A
:101CA0000890AAEB010AE00306D4DDE90F232146E0
:101CB000504600F063F806444FF0000908E009A917
:101CC00011F80900DDE90F12904709F10109761CAE
:101CD000C145F4DBE0030CD5DDE90F232146504676
:101CE00000F04CF8064404E0DDE90F123020904784
:101CF000761C0899481E08900029F5DC08E00A982F
:101D00000A990078491C0A91DDE90F129047761C68
:101D1000BBF10001ABF1010BF1DC21465046DDE9DE
:101D20000F2300F019F806446D1C1BE6092801007A
:101D30003031323334353637383961626364656641
:101D40000000000030313233343536373839414203
:101D500043444546000000002DE9F04104460025BB
:101D60001E461746880404D405E039462020B047B3
:101D70006D1C641EF9D52846BDE8F0812DE9F041BF
:101D8000044600251E469046C80301D5302700E0D2
:101D90002027880404D505E041463846B0476D1C2D
:101DA000641EF9D52846BDE8F08100002DE9F04316
:101DB000044607AD95E8E010DDF82C80DFF82090B0
:101DC000D9F80000046041608281C38105744674C3
:101DD0008774C0F818C0C0F81C80BDE8F08300000C
:101DE0001400002070B586B000251748046818203C
:101DF0000090A28903236169A06800F04BF9E28991
:101E000004236169A06800F011F9208C0021019180
:101E10000291CDE903100091D4E90623D4E9000131
:101E200000F05CFD0546681C18B94FF0FF3006B0A5
:101E300070BDA27C617C207C00F09EFCA06900F05B
:101E4000BAFC0020F3E700001400002010B52420A5
:101E500000F076F9044634B9114912A0FFF754FD99
:101E60004FF0FF3010BD012020604004606004206E
:101E7000A060A0810820E0812620207403206074E7
:101E80000220A0740E4860610E48A0614FF4164015
:101E9000E0610C2020840C4804600020E2E7000090
:101EA000BD2900085B25735D626C7565746F6F7486
:101EB00068206D616C6C6F63206572726F720A00CE
:101EC00000080140004400401400002010B5044800
:101ED0000468A06900F062FC6069FEF785FD10BD32
:101EE0001400002010B50248006800F05FF810BD33
:101EF0001400002010B586B00024FFF7A7FF0446A9
:101F000004B12DE04FF41640184900220192CDE9AA
:101F100002210490262008230422D10300900120EE
:101F2000FFF744FFFFF75EFF044604B115E0002011
:101F30000F49088048807F2088800E4888600020F4
:101F40000D49088048807F2088800C4888600CA05C
:101F5000FFF7DAFC002006B010BDFFF7B7FF00BFA7
:101F6000FFF7C0FF4FF0FF30F5E7000000440040EE
:101F7000B000002048010020BC000020C800002064
:101F8000626C7565746F6F7468206F6B0A00000077
:101F900000BF054A128802F04002002AF9D0C2B2FE
:101FA000014B1B1D1A8070470038014010B50028F6
:101FB00021D0114B0022001F196803E0814203D891
:101FC0000A4649680029F9D152B11368841A9C4223
:101FD00004D1006818441060104602E0506000E030
:101FE000186039B102680B1A934203D10B681A4486
:101FF00002604968416010BD6800002010B5084BC0
:102000001C6804609B888380064B1C680C609B885E
:102010008B80054B1C6814609B88938010BD00006A
:10202000240000201E0000202A000020F8B50746EA
:102030000D4616461C46142C05D0102C03D01C2C23
:1020400001D0182C06D10A490AA0FFF75DFC4FF019
:10205000FF30F8BD01213846FFF7B2F9ADF8006056
:102060008DF8034069462846FEF722FD0020F0E780
:102070009D2900085B25735D6770696F5F726567F6
:1020800069737465725F696E707574206572726FC2
:10209000720A00002DE9F84380460D4616461F4699
:1020A000089C2CB1042C03D0282C01D0482C07D13B
:1020B0000B490CA0FFF728FC4FF0FF30BDE8F88378
:1020C00001214046FFF77CF9ADF800608DF8034030
:1020D0008DF8027069462846FEF7EAFC0020EDE71D
:1020E000882900085B25735D6770696F5F7265679B
:1020F00069737465725F6F75747075742065727240
:102100006F720A0000F0F0FA00F01AFC094800F0C3
:1021100052FBFFF7EFFE084800F04DFB00F0A8FA75
:1021200006E04FF4FA71054800F06CF9FEF7FCFA8E
:10213000F7E7000000380140004400407000002034
:10214000F0B50B30154D20F007010024144A0FE0C4
:1021500003688B420BD38B4205D95E1A431847683C
:10216000C3E9006700E04368136002C004E0021D99
:1021700010680028ECD12046002802D1286808B158
:102180000020F0BD064A07481060074A121A22F0E4
:102190000702C0E9002401202860D7E76C00002076
:1021A00068000020040E0020001000202DE9F041FE
:1021B00004460D46394A911E881EFEF773FE384AC2
:1021C000911E881EFEF79DFE3648007B38B93449C3
:1021D000091F344800F024F9324800F01DFA324952
:1021E0002E48001F00F0B4F82D49091FB1F9000076
:1021F000FEF7D7F807462B4801683846FEF75BF82C
:1022000080F0004629493046FEF75BF820602449FB
:10221000091FB1F90200FEF7C4F8074621484168DA
:102220003846FEF748F806462049FEF74AF860604F
:102230001B49091FB1F90400FEF7B3F80746194816
:1022400081683846FEF737F806461849FEF739F830
:10225000A0601549B1F900104842FEF7A2F8064601
:102260004FF06651FEF72DF828600F49B1F90200D2
:10227000FEF797F806464FF06651FEF722F86860C1
:102280000949B1F90400FEF78CF806464FF0665193
:10229000FEF717F8A860BDE8F081000028000020D4
:1022A00022000020C80100203000002000007A3DFC
:1022B0002DE9FC4105460E4614462148007820B120
:1022C00031462846FFF772FF06E00020286068606C
:1022D000A86030607060B0601A48007850B36846FB
:1022E000FEF772FCBDF90000FEF75BF880F00047D6
:1022F00015493846FEF717F82060BDF90200FEF7D1
:1023000050F807461049FEF70EF86060BDF904006A
:10231000FEF747F807460C49FEF705F8A060BDF840
:1023200000000A490880BDF802004880BDF804009A
:10233000888003E0002020606060A060BDE8FC8130
:102340001C0000201D000020CDAC26442A000020E7
:102350002DE9F04705460C46B5F90010B4F9002008
:10236000881AFEF71EF88146254801684846FDF7A1
:10237000A8FF0746B4F90000FEF713F88046394677
:10238000FDF747FF0646FEF72BF800B22080B5F9AF
:102390000210B4F90220881AFEF703F881461848A3
:1023A00001684846FDF78DFF0746B4F90200FDF7C6
:1023B000F8FF80463946FDF72CFF0646FEF710F879
:1023C00000B26080B5F90410B4F90420881AFDF752
:1023D000E8FF81460A4801684846FDF772FF074654
:1023E000B4F90400FDF7DDFF80463946FDF711FF23
:1023F0000646FDF7F5FF00B2A080BDE8F0870000BB
:102400001800002070B504460D4605F0010030B9F3
:1024100004F11802214604F10C00FFF749FF70BDDA
:102420000A8803691A804A8803695A808A8803697E
:102430009A800269921D026100F614420369934278
:1024400004D300F11402026101224273704700219B
:10245000417300F11401016170472DE9F04F8DB017
:1024600005460E469146182106A8FDF7C7FE18211D
:102470006846FDF7C3FE00245CE004EB440205F16E
:10248000140131F91210CA17DDE90630591850410C
:10249000CDE9061004EB440205F1140101EB420101
:1024A000B1F90210CA17DDE9087079185041CDE979
:1024B000081004EB440205F1140000EB4200B0F9EF
:1024C0000400C217DDE90A3118185141CDE90A01AB
:1024D00004EB440105F1140030F9110040430146BA
:1024E000DDE90023891843EBE070CDE9001004EB2F
:1024F000440105F1140000EB4100B0F9020000FBBB
:1025000000F04FEAE071DDE9022380185941CDE97E
:10251000020104EB440105F1140000EB4100B0F9A5
:1025200004004043C117DDE90432C0185141CDE930
:102530000401641CB4F5007F9FD3DDE90601A0FB14
:10254000007301FB003301FB00314FF400720023E4
:102550003846FDF709FEDDE90032B3EB000A62EB15
:1025600001015046FDF726FF3060DDE90810A1FBB0
:10257000017300FB013301FB00314FF400720023B3
:102580003846FDF7F1FDDDE90232B3EB000A62EBFC
:1025900001015046FDF70EFF7060DDE90A10A1FB56
:1025A000017300FB013301FB00314FF40072002383
:1025B0003846FDF7D9FDDDE90432B3EB000A62EBE2
:1025C00001015046FDF7F6FEB060DDE90621104638
:1025D000FDF7F0FE07464FF08841FDF7A4FEC9F86D
:1025E0000000DDE908211046FDF7E4FE07464FF044
:1025F0008841FDF798FEC9F80400DDE90A2110467C
:10260000FDF7D8FE07464FF08841FDF78CFEC9F86C
:1026100008000DB0BDE8F08F30B587B00446002546
:10262000607B00B301AA04A92046FFF716FF0F49FB
:102630000498FDF7EFFE13D20C490598FDF7EAFE6A
:102640000ED20A490698FDF7E5FE09D201982060EE
:10265000029860600398A06001250120207301E0CA
:102660000020607300BF284607B030BD00409C4585
:1026700010B5FEF71BFDFEF755FD04462CB10120F9
:102680000A4908700AA0FFF73FF9FEF7C7FA0446A7
:102690002CB101200B4908700BA0FFF735F90F484A
:1026A000FFF7D5FE0E480F49086010BD1C00002042
:1026B0006D70752073656E736F7220776F726B210A
:1026C0000A0000001D000020616B6D2073656E73B1
:1026D0006F7220776F726B210A000000C801002022
:1026E0003707443D1800002010B56FF00400FEF7D6
:1026F00067FF0A4800680A49B0FBF1F00949087011
:102700000846007800EB4001C1EBC0104FF6FF71A6
:1027100001EAC0000449088010BD00004C00002000
:1027200000127A0000000020020000200146114A39
:1027300012884A434FF0E0235A6100229A611A46F8
:10274000126942F001021A6100BF4FF0E0221069E5
:1027500000F001021AB100F48032002AF5D04FF0E7
:10276000E022126922F001024FF0E0231A610022F8
:102770009A61704702000020F8B506460C461546DF
:102780008DF800608DF801408DF8025001208DF821
:1027900003006846FEF7C0FD0020F8BD10B50446F2
:1027A000002240F225512046FEF7D1FF00212046AD
:1027B000FEF797FF10BD10B50446012240F22551E7
:1027C0002046FEF7C4FF01212046FEF78AFF10BD18
:1027D00070B586B000251748046818200090A289BB
:1027E00003236169A068FFF755FCE289042361694E
:1027F000A068FFF71BFC208C002101910291CDE91C
:1028000003100091D4E90623D4E9000100F066F832
:102810000546681C18B94FF0FF3006B070BDA27CA9
:10282000617C207CFFF7A8FFA069FFF7C4FF0020B0
:10283000F3E700000400002010B52420FFF780FC1F
:10284000044634B9114912A0FFF75EF84FF0FF308B
:1028500010BD02202060400360600420A060C00121
:10286000A0814000E0812520207403206074A074C2
:102870000D4860610D48A0614FF4E130E0610C202B
:1028800020840B4804600020E2E70000B129000822
:102890005B25735D7573617274206D616C6C6F6321
:1028A000206572726F720A00000801400038014012
:1028B0000400002010B504480468A069FFF76EFF0B
:1028C0006069FEF791F810BD0400002010B50248C1
:1028D0000068FFF76BFB10BD040000202DE9FF5FCF
:1028E00004460D4616461F46DDE910ABDDE90E89AC
:1028F0006846FEF7C6FF012C04D101212846FEF7E9
:102900004FFD0BE0022C04D101212846FEF758FDB3
:1029100004E04FF0FF3004B0BDE8F09F0097ADF841
:102920000480ADF80690ADF808A0ADF80CB0129890
:10293000ADF80A0069463046FEF72EFF0020EAE7B0
:1029400010B500244FF4A060FEF71EFDFFF774FFE2
:10295000044604B10CE0FFF73BFF044604B104E079
:1029600006A0FEF7D1FF002010BDFFF7A3FF00BFB8
:10297000FFF7ACFF4FF0FF30F6E7000075736172B0
:1029800074204F4B0A0000006770696F5F726567C3
:1029900069737465725F6F757470757400677069C0
:1029A0006F5F72656769737465725F696E70757465
:1029B0000075736172745F70726F626500626C752E
:1029C00065746F6F74685F756172745F70726F6247
:1029D00065000000F42900080000002070000000DD
:1029E00028190008642A00087000002090130000D5
:1029F000381900080000000000000000000000007E
:102A000000000000000000000000000000000000C6
:102A100000000000000000000000000000000000B6
:102A200000000000000000000000000000000001A5
:102A30000203040102030406070809020406080051
:102A400000A24A040000000000000000010203048C
:102A50000607080900000000010000000000000057
:042A60000000000072
:0400000508000131BD
:00000001FF
