:020000040800F2
:100000007807002045010008930300088B030008CF
:100010008F0300089D010008DB09000800000000B4
:100020000000000000000000000000005105000872
:10003000A10100080000000019040008650600087E
:100040005F0100085F0100085F0100085F01000810
:100050005F0100085F0100085F0100085F01000800
:100060005F0100085F0100085F0100085F010008F0
:100070005F0100085F0100085F0100085F010008E0
:100080005F0100085F0100085F0100085F010008D0
:100090005F0100085F0100085F0100085F010008C0
:1000A0005F0100085F0100085F0100085F010008B0
:1000B0005F0100085F0100085F0100085F010008A0
:1000C0005F0100085F0100085F0100085F01000890
:1000D0005F0100085F010008490700085F01000890
:1000E0005F0100085F0100085F0100085F01000870
:1000F0005F0100085F0100085F0100085F01000860
:100100005F0100085F0100085F0100085F0100084F
:100110005F0100085F0100085F0100085F0100083F
:100120005F0100085F0100085F0100085F0100082F
:10013000DFF80CD000F020F800480047C10F00089D
:10014000780700200648804706480047FEE7FEE79C
:10015000FEE7FEE7FEE7FEE7FEE7FEE7FEE7FEE777
:100160006906000831010008421C10F8011B002933
:10017000FBD1801A70470000064C074D06E0E0688E
:1001800040F0010394E8070098471034AC42F6D3DE
:10019000FFF7D2FFC4130008E413000800BFFEE716
:1001A0007047000010B504462948844208D1012157
:1001B000042000F053F90021042000F04FF946E03C
:1001C0002448844208D10121082000F047F9002189
:1001D000082000F043F93AE01F48844208D1012189
:1001E000102000F03BF90021102000F037F92EE03C
:1001F0001A48844208D10121202000F02FF9002163
:10020000202000F02BF922E01548844208D101217A
:10021000402000F023F90021402000F01FF916E0F3
:100220001048844208D10121802000F017F90021F4
:10023000802000F013F90AE00B48844207D1012125
:10024000801500F00BF90021A01500F007F910BD92
:1002500000080140000C0140001001400014014062
:1002600000180140001C0140002001402DE9F04130
:10027000024600250026002000230024002791F8D4
:1002800003C00CF00F0591F803C00CF0100CBCF18A
:10029000000F03D091F802C04CEA050591F800C0A8
:1002A000BCF1000F31D0146800202BE04FF0010C9E
:1002B0000CFA00F3B1F800C00CEA03069E4220D10C
:1002C00083004FF00F0C0CFA03F7BC4305FA03FC54
:1002D0004CEA040491F803C0BCF1280F06D14FF09A
:1002E000010C0CFA00FCC2F814C00AE091F803C03B
:1002F000BCF1480F05D14FF0010C0CFA00FCC2F81C
:1003000010C0401C0828D1D31460B1F800C0BCF163
:10031000FF0F34DD546800202EE000F1080C4FF090
:10032000010808FA0CF3B1F800C00CEA03069E427B
:1003300021D183004FF00F0C0CFA03F7BC4305FAF0
:1003400003FC4CEA040491F803C0BCF1280F05D16A
:1003500000F1080C08FA0CF8C2F8148091F803C0F8
:10036000BCF1480F07D100F1080C4FF0010808FA62
:100370000CF8C2F81080401C0828CED35460BDE8A9
:10038000F081416170470161704700BFFEE700BF27
:10039000FEE7704770B5002100230F22C47804B334
:1003A000154C246804F4E064C4F5E064210AC1F14A
:1003B0000403CA40447804FA03F1847814402143CA
:1003C00009010E4C0678A155047804F01F0501249C
:1003D000AC4005786D11AD0005F1E025C5F8004190
:1003E00009E0047804F01F050124AC40044D0678B0
:1003F000761145F8264070BD0CED00E000E400E009
:1004000080E100E002490143024A116070470000A8
:100410000000FA050CED00E07047000029B1064A23
:10042000D2690243044BDA6104E0034AD269824391
:10043000014BDA61704700000010024029B1064A02
:1004400092690243044B9A6104E0034A9269824331
:10045000014B9A61704700000010024029B1064A22
:10046000D2680243044BDA6004E0034AD268824354
:10047000014BDA60704700000010024030B50021E7
:100480000022002400232D4D6D6805F00C0121B1E0
:10049000042905D0082923D105E0294D056022E073
:1004A000274D05601FE0254D6D6805F47012234D42
:1004B0006D6805F48034022505EB92421CB9214D8C
:1004C000554305600BE01D4D6D6805F400351DB109
:1004D0001C4D5543056002E0194D5543056002E08F
:1004E000174D056000BF00BF144D6D6805F0F001A9
:1004F0000909154D6B5C0568DD4045600F4D6D6861
:1005000005F4E061090A104D6B5C4568DD408560CB
:100510000A4D6D6805F46051C90A0B4D6B5C456866
:10052000DD40C560054D6D6805F44041890B074D00
:100530006B5CC568B5FBF3F5056130BD001002408A
:1005400000127A0000093D00180000202800002059
:10055000704710B500F002F810BD00000CB5002087
:10056000019000903348006840F4803031490860C1
:1005700000BF3048006800F4003000900198401C33
:100580000190009818B90198B0F5A06FF1D12948F1
:10059000006800F4003010B10120009001E000205C
:1005A00000900098012843D12348006840F01000D3
:1005B000214908600846006820F0030008600846EA
:1005C000006840F0020008601A4840681949486015
:1005D0000846406848600846406840F480604860CB
:1005E0000846406820F47C1048600846406840F4A3
:1005F000E81048600846006840F08070086000BF5E
:100600000C48006800F000700028F9D009484068E4
:1006100020F00300074948600846406840F00200A7
:10062000486000BF0348406800F00C000828F9D17A
:100630000CBD00000010024000200240042808D138
:100640004FF0E021096941F004014FF0E02211610F
:1006500007E04FF0E021096921F004014FF0E022AA
:10066000116170477047000010B51348006840F0F2
:1006700001001149086008464068104908400E49C9
:100680004860084600680E4908400B490860084663
:10069000006820F4802008600846406820F4FE00CE
:1006A00048604FF41F008860FFF753FF4FF0006071
:1006B0000449086010BD0000001002400000FFF86F
:1006C000FFFFF6FE08ED00E070B50546002403E0EC
:1006D000002012490855641C142CF9DB642000F03A
:1006E000E3FC002403E0285D00F01CF8641C2846AD
:1006F000FFF73AFDA042F6DC642000F0D5FC0024B0
:1007000006E0074800F056F92146641C034A50549D
:10071000034800F048F90028F3D170BD60010020C3
:100720005400002010B504462146054800F04CF95D
:10073000012240F22771034800F08FF810BD00003D
:10074000480000200044004010B540F227711948CD
:1007500000F059F890B1184800F02CF904462146F1
:10076000144800F010F9144800F01DF900BB0022F5
:1007700040F227710F4800F070F819E040F225515F
:100780000C4800F040F898B140F22551094800F0BB
:100790001FF8084800F0F2F8084908700846017888
:1007A000074800F011F90548017806A000F018F993
:1007B00010BD000000440040480000201000002050
:1007C000540000207265766963653D302563000042
:1007D00010B50022002340F66A14A14200D100BFE8
:1007E0000A1201249440A3B2DC43048010BD21B15D
:1007F000828942F40052828104E082894DF6FF73BF
:100800001A408281704770B50246002400230025FB
:10081000002040F66A16B14200D100BFC1F3421574
:1008200001F01F03012606FA03F3012D02D1968978
:10083000334006E0022D02D1168A334001E0968A49
:1008400033400C12012606FA04F41688344013B122
:100850000CB1012000E0002070BDF0B5034600247B
:1008600000260025002040F66A17B94200D100BFDB
:100870001846C1F3421401F01F06012707FA06F5D6
:10088000012C01D10C3004E0022C01D1103000E029
:1008900014301AB107682F43076002E00768AF43BE
:1008A0000760F0BD2DE9F04786B005460E460024EE
:1008B000A24600BFA1460027B08900B100BF2F4665
:1008C0002C8A4CF6FF700440F08804432C82AC89DB
:1008D0004EF6F3100440B08831890843718908430B
:1008E0000443AC81AC8A4FF6FF400440B089044316
:1008F000AC8201A8FFF7C2FD1F48874202D1DDF894
:1009000010A001E0DDF80CA0A88900F4004040B17F
:100910000AEBCA0000EB0A1031684900B0FBF1F89D
:1009200007E00AEBCA0000EB0A1031688900B0FB4F
:10093000F1F86420B8FBF0F004012009642101FB08
:100940001089A88900F4004040B1322000EBC900B2
:10095000B0FBF1F000F00700044308E0322000EBA8
:1009600009106421B0FBF1F000F00F0004432C816A
:1009700006B0BDE8F08700000038014001468888D5
:10098000C0F308007047C1F30802828070474FF43B
:100990001651016000218180C18001810C214181BB
:1009A000002181817047014608884A88801A8A8818
:1009B0001040704701464A888B881A408B68985CC3
:1009C0004A88521C4A807047028883881A4083688C
:1009D00099540288521C0280704700BFFEE7000055
:1009E0000FB4054B10B503A9044A029800F017F89C
:1009F00010BC5DF814FB0000D10C00080C000020B6
:100A000002E008C8121F08C1002AFAD170477047D7
:100A1000002001E001C1121F002AFBD170472DE91F
:100A2000F84F9946924688460546002706E0252855
:100A30000AD051464A4690476D1C7F1C28780028F2
:100A4000F5D13846BDE8F88F002315F8011F184688
:100A50002E2915D115F8011F04232A290DD06FF076
:100A60002F022978A1F13004092C09D800EB80006D
:100A700002EB400008446D1CF3E758F8040B6D1CB2
:100A80002A78002ADDD0632A07D0732A0FD01046B7
:100A900051464A4690477F1C2AE018F8042B8DF8EF
:100AA000002000218DF801106E46012103E058F866
:100AB000046B4FF0FF315A074FF0000401D409E0F6
:100AC000641C84420BDA8C42FADB325D002AF7D1D7
:100AD00005E0641C8C42FCDB305D0028F9D1274422
:100AE00004E016F8010B51464A469047641EF8D2BE
:100AF0006D1CA3E72DE9F043044607AD95E8E0102F
:100B0000DDF82C80DFF82090D9F800000460416007
:100B10008281C381057446748774C0F818C0C0F818
:100B20001C80BDE8F08300001400002070B586B082
:100B300000251748046818200090A28903236169E2
:100B4000A06800F0D1F9E28904236169A06800F08F
:100B500097F9208C002101910291CDE903100091B9
:100B6000D4E90623D4E9000100F076FB0546681CB1
:100B700018B94FF0FF3006B070BDA27C617C207CBC
:100B800000F0B8FAA06900F0D4FA0020F3E7000002
:100B90001400002010B5242000F02EFA044634B9C9
:100BA000114912A0FFF71CFF4FF0FF3010BD0120CC
:100BB0002060400460600420A060A0810820E081E3
:100BC00026202074032060740220A0740E48606107
:100BD0000E48A0614FF41640E0610C2020840C48C0
:100BE00004600020E2E70000AE1300085B25735D9F
:100BF000626C7565746F6F7468206D616C6C6F6387
:100C0000206572726F720A000008014000440040C3
:100C10001400002010B504480468A06900F07CFAB4
:100C20006069FFF7BFFA10BD1400002010B502483C
:100C3000006800F05BF810BD1400002010B586B00D
:100C40000024FFF7A7FF044604B12AE04FF4164042
:100C5000164900220192CDE90221049026200823A2
:100C60000422D10300900120FFF744FFFFF75EFF4D
:100C7000044604B112E000200D49088048807F201E
:100C800088800C48886000200B49088048807F20BD
:100C900088800A488860002006B010BDFFF7BAFFC0
:100CA00000BFFFF7C3FF4FF0FF30F5E700440040FF
:100CB00048000020E00000205400002060000020D8
:100CC00010B50248FFF700FD10BD00003913000801
:100CD00000BF054A128802F04002002AF9D0C2B2D1
:100CE000014B1B1D1A8070470038014010B50028C9
:100CF00021D0114B0022001F196803E0814203D864
:100D00000A4649680029F9D152B11368841A9C42F5
:100D100004D1006818441060104602E0506000E002
:100D2000186039B102680B1A934203D10B681A4458
:100D300002604968416010BD4000002010B50348C2
:100D40000468A1896069FFF71CFB10BD000000204A
:100D500010B503480468A1896069FFF714FB10BD52
:100D60000000002038B51748046801216068FFF7CB
:100D700065FB2088ADF80000607E8DF80300207EC2
:100D80008DF802006946A068FFF770FA2188A06814
:100D9000FFF7F9FA01212069FFF750FBA089ADF8B0
:100DA0000000607E8DF80300207E8DF80200694609
:100DB0006069FFF75BFA21886069FFF7E4FA0020B9
:100DC00038BD00000000002010B51C2000F014F910
:100DD00004461CB90CA0FFF703FE12E01148606145
:100DE0001148A06040202061082060602020A08180
:100DF000208003202076102060760C4804600020BC
:100E000010BD4FF0FF30FBE75B25735D6C656473CD
:100E1000206770696F206D616C6C6F632065727202
:100E20006F72000000180140000C0140000000201B
:100E300010B5044804686069FFF7B4F9A068FFF7CB
:100E4000B1F910BD0000002010B502480068FFF79E
:100E50004DFF10BD0000002010B503480468218834
:100E6000A068FFF78EFA10BD0000002010B50348FF
:100E700004682188A068FFF786FA10BD00000020F2
:100E8000F8B507460D4616461C46142C05D0102C06
:100E900003D01C2C01D0182C06D10A490AA0FFF758
:100EA0009FFD4FF0FF30F8BD01213846FFF7C6FA2D
:100EB000ADF800608DF8034069462846FFF7D6F983
:100EC0000020F0E7191300085B25735D6770696FF8
:100ED0005F72656769737465725F696E707574209F
:100EE0006572726F720A00002DE9F84380460D4664
:100EF00016461F46089C2CB1042C03D0282C01D088
:100F0000482C07D10B490CA0FFF76AFD4FF0FF30CA
:100F1000BDE8F88301214046FFF790FAADF8006084
:100F20008DF803408DF8027069462846FFF79EF958
:100F30000020EDE7041300085B25735D6770696F9F
:100F40005F72656769737465725F6F7574707574CD
:100F5000206572726F720A0010B50024FFF734FF2B
:100F6000044604B10CE0FFF7FDFE044604B104E0C2
:100F700006A0FFF735FD002010BDFFF759FF00BFA9
:100F8000FFF762FF4FF0FF30F6E700006C6564206A
:100F900070726F6265204F4B0A00000010B5FFF7BA
:100FA00065FFFFF7CBFE4FF4967000F07DF8FFF77A
:100FB00053FFFFF7CDFE4FF4967000F075F810BDAB
:100FC00000F050F800F07AF9094800F0B2F8FFF7A5
:100FD00035FE084800F0ADF8FFF7BEFF07E0FFF769
:100FE000DDFF4FF4967000F05FF8FFF769FEF6E75B
:100FF0000038014000440040F0B50B30154D20F0A2
:1010000007010024144A0FE003688B420BD38B4284
:1010100005D95E1A43184768C3E9006700E04368D2
:10102000136002C004E0021D10680028ECD12046C5
:10103000002802D1286808B10020F0BD064A074800
:101040001060074A121A22F00702C0E900240120AA
:101050002860D7E744000020400000207C010020E9
:101060007803002010B56FF00400FFF7E7FA0A4894
:1010700000680A49B0FBF1F0094908700846007899
:1010800000EB4001C1EBC0104FF6FF7101EAC00058
:101090000449088010BD00002C00002000127A00D6
:1010A00004000020060000200146114A12884A432D
:1010B0004FF0E0235A6100229A611A46126942F009
:1010C00001021A6100BF4FF0E022106900F0010236
:1010D0001AB100F48032002AF5D04FF0E0221269F4
:1010E00022F001024FF0E0231A6100229A6170475A
:1010F00006000020F8B506460C4615468DF800603F
:101100008DF801408DF8025001208DF803006846EB
:10111000FFF740F90020F8BD10B50446002240F268
:1011200025512046FFF799FB00212046FFF75FFB82
:1011300010BD10B50446012240F225512046FFF7AC
:101140008CFB01212046FFF752FB10BD70B586B025
:1011500000251748046818200090A28903236169BC
:10116000A068FFF7C1FEE28904236169A068FFF768
:1011700087FE208C002101910291CDE9031000919E
:10118000D4E90623D4E9000100F066F80546681C9E
:1011900018B94FF0FF3006B070BDA27C617C207C96
:1011A000FFF7A8FFA069FFF7C4FF0020F3E70000E6
:1011B0000800002010B52420FFF71EFF044634B9B4
:1011C000114912A0FFF70CFC4FF0FF3010BD0220B8
:1011D0002060400360600420A060C001A081400046
:1011E000E0812520207403206074A0740D486061A4
:1011F0000D48A0614FF4E130E0610C2020840B48E1
:1012000004600020E2E700002D1300085B25735DF9
:101210007573617274206D616C6C6F63206572729E
:101220006F720A00000801400038014008000020E9
:1012300010B504480468A069FFF76EFF6069FEF707
:10124000B1FF10BD0800002010B502480068FFF78C
:101250004DFD10BD080000202DE9FF5F04460D463E
:1012600016461F46DDE910ABDDE90E896846FFF73B
:101270008EFB012C04D101212846FFF7CFF80BE0AB
:10128000022C04D101212846FFF7D8F804E04FF0E2
:10129000FF3004B0BDE8F09F0097ADF80480ADF8D2
:1012A0000690ADF808A0ADF80CB01298ADF80A00A1
:1012B00069463046FFF7F6FA0020EAE710B5002449
:1012C0004FF4A060FFF79EF8FFF774FF044604B1E7
:1012D0000CE0FFF73BFF044604B104E006A0FFF773
:1012E0007FFB002010BDFFF7A3FF00BFFFF7ACFF9F
:1012F0004FF0FF30F6E700007573617274204F4BBA
:10130000000000006770696F5F72656769737465DC
:10131000725F6F7574707574006770696F5F726566
:101320006769737465725F696E7075740075736157
:1013300072745F70726F6265004154004F4B0041E0
:10134000542B4E414D453F004F4B2B4E414D453A9E
:10135000617468656E610041542B4E414D45617466
:1013600068656E610041542B50494E3F004F4B2B36
:1013700050494E3A313233340041542B50494E31AA
:101380003233340041542B52454E4557004F4B2BBE
:1013900052454E45570041542B424155443F004F62
:1013A0004B2B424155443A31313532303000626C7A
:1013B0007565746F6F74685F756172745F70726F5A
:1013C00062650000E41300080000002048000000EF
:1013D000000A00082C140008480000203007000014
:1013E000100A0008000000000000000000000000DB
:1013F00000000000000000000000000000000000ED
:101400000102030401020304060708090204060896
:1014100000A24A04000000000000000001020304D2
:0C142000060708090000000000000000A2
:0400000508000131BD
:00000001FF
