:020000040800F2
:100000005006002045010008830300087B03000818
:100010007F0300088D01000815080008000000009B
:100020000000000000000000000000004105000882
:1000300091010008000000000904000855060008AE
:100040005F0100085F0100085F0100085F01000810
:100050005F0100085F0100085F0100085F01000800
:100060005F0100085F0100085F0100085F010008F0
:100070005F0100085F0100085F0100085F010008E0
:100080005F0100085F0100085F0100085F010008D0
:100090005F0100085F0100085F0100085F010008C0
:1000A0005F0100085F0100085F0100085F010008B0
:1000B0005F0100085F0100085F0100085F010008A0
:1000C0005F0100085F0100085F0100085F01000890
:1000D0005F0100085F0100085F0100085F01000880
:1000E0005F0100085F0100085F0100085F01000870
:1000F0005F0100085F0100085F0100085F01000860
:100100005F0100085F0100085F0100085F0100084F
:100110005F0100085F0100085F0100085F0100083F
:100120005F0100085F0100085F0100085F0100082F
:10013000DFF80CD000F018F8004800470D0C00085C
:10014000500600200648804706480047FEE7FEE7C5
:10015000FEE7FEE7FEE7FEE7FEE7FEE7FEE7FEE777
:100160005906000831010008064C074D06E0E0681A
:1001700040F0010394E8070098471034AC42F6D3EE
:10018000FFF7DAFF500F0008700F000800BFFEE70E
:100190007047000010B504462948844208D1012167
:1001A000042000F053F90021042000F04FF946E04C
:1001B0002448844208D10121082000F047F9002199
:1001C000082000F043F93AE01F48844208D1012199
:1001D000102000F03BF90021102000F037F92EE04C
:1001E0001A48844208D10121202000F02FF9002173
:1001F000202000F02BF922E01548844208D101218B
:10020000402000F023F90021402000F01FF916E003
:100210001048844208D10121802000F017F9002104
:10022000802000F013F90AE00B48844207D1012135
:10023000801500F00BF90021A01500F007F910BDA2
:1002400000080140000C0140001001400014014072
:1002500000180140001C0140002001402DE9F04140
:10026000024600250026002000230024002791F8E4
:1002700003C00CF00F0591F803C00CF0100CBCF19A
:10028000000F03D091F802C04CEA050591F800C0B8
:10029000BCF1000F31D0146800202BE04FF0010CAE
:1002A0000CFA00F3B1F800C00CEA03069E4220D11C
:1002B00083004FF00F0C0CFA03F7BC4305FA03FC64
:1002C0004CEA040491F803C0BCF1280F06D14FF0AA
:1002D000010C0CFA00FCC2F814C00AE091F803C04B
:1002E000BCF1480F05D14FF0010C0CFA00FCC2F82C
:1002F00010C0401C0828D1D31460B1F800C0BCF174
:10030000FF0F34DD546800202EE000F1080C4FF0A0
:10031000010808FA0CF3B1F800C00CEA03069E428B
:1003200021D183004FF00F0C0CFA03F7BC4305FA00
:1003300003FC4CEA040491F803C0BCF1280F05D17A
:1003400000F1080C08FA0CF8C2F8148091F803C008
:10035000BCF1480F07D100F1080C4FF0010808FA72
:100360000CF8C2F81080401C0828CED35460BDE8B9
:10037000F081416170470161704700BFFEE700BF37
:10038000FEE7704770B5002100230F22C47804B344
:10039000154C246804F4E064C4F5E064210AC1F15A
:1003A0000403CA40447804FA03F1847814402143DA
:1003B00009010E4C0678A155047804F01F050124AC
:1003C000AC4005786D11AD0005F1E025C5F80041A0
:1003D00009E0047804F01F050124AC40044D0678C0
:1003E000761145F8264070BD0CED00E000E400E019
:1003F00080E100E002490143024A116070470000B9
:100400000000FA050CED00E07047000029B1064A33
:10041000D2690243044BDA6104E0034AD2698243A1
:10042000014BDA61704700000010024029B1064A12
:1004300092690243044B9A6104E0034A9269824341
:10044000014B9A61704700000010024029B1064A32
:10045000D2680243044BDA6004E0034AD268824364
:10046000014BDA60704700000010024030B50021F7
:100470000022002400232D4D6D6805F00C0121B1F0
:10048000042905D0082923D105E0294D056022E083
:10049000274D05601FE0254D6D6805F47012234D52
:1004A0006D6805F48034022505EB92421CB9214D9C
:1004B000554305600BE01D4D6D6805F400351DB119
:1004C0001C4D5543056002E0194D5543056002E09F
:1004D000174D056000BF00BF144D6D6805F0F001B9
:1004E0000909154D6B5C0568DD4045600F4D6D6871
:1004F00005F4E061090A104D6B5C4568DD408560DC
:100500000A4D6D6805F46051C90A0B4D6B5C456876
:10051000DD40C560054D6D6805F44041890B074D10
:100520006B5CC568B5FBF3F5056130BD001002409A
:1005300000127A0000093D00000000201000002099
:10054000704710B500F002F810BD00000CB5002097
:10055000019000903348006840F4803031490860D1
:1005600000BF3048006800F4003000900198401C43
:100570000190009818B90198B0F5A06FF1D1294801
:10058000006800F4003010B10120009001E000206C
:1005900000900098012843D12348006840F01000E3
:1005A000214908600846006820F0030008600846FA
:1005B000006840F0020008601A4840681949486025
:1005C0000846406848600846406840F480604860DB
:1005D0000846406820F47C1048600846406840F4B3
:1005E000E81048600846006840F08070086000BF6E
:1005F0000C48006800F000700028F9D009484068F5
:1006000020F00300074948600846406840F00200B7
:10061000486000BF0348406800F00C000828F9D18A
:100620000CBD00000010024000200240042808D148
:100630004FF0E021096941F004014FF0E02211611F
:1006400007E04FF0E021096921F004014FF0E022BA
:10065000116170477047000010B51348006840F002
:1006600001001149086008464068104908400E49D9
:100670004860084600680E4908400B490860084673
:10068000006820F4802008600846406820F4FE00DE
:1006900048604FF41F008860FFF753FF4FF0006081
:1006A0000449086010BD0000001002400000FFF87F
:1006B000FFFFF6FE08ED00E021B1828942F400520E
:1006C000828104E082894DF6FF731A40828170476F
:1006D00002460020B1F5007F00D100BF13880B4017
:1006E0000BB1012000E000207047F0B50346002464
:1006F00000260025002040F66A17B94200D100BF4D
:100700001846C1F3421401F01F06012707FA06F547
:10071000012C01D10C3004E0022C01D1103000E09A
:1007200014301AB107682F43076002E00768AF432F
:100730000760F0BD2DE9F04786B005460E4600245F
:10074000A24600BFA1460027B08900B100BF2F46D6
:100750002C8A4CF6FF700440F08804432C82AC894C
:100760004EF6F3100440B08831890843718908437C
:100770000443AC81AC8A4FF6FF400440B089044387
:10078000AC8201A8FFF772FE1F48874202D1DDF854
:1007900010A001E0DDF80CA0A88900F4004040B1F1
:1007A0000AEBCA0000EB0A1031684900B0FBF1F80F
:1007B00007E00AEBCA0000EB0A1031688900B0FBC1
:1007C000F1F86420B8FBF0F004012009642101FB7A
:1007D0001089A88900F4004040B1322000EBC90024
:1007E000B0FBF1F000F00700044308E0322000EB1A
:1007F00009106421B0FBF1F000F00F0004432C81DC
:1008000006B0BDE8F087000000380140C1F30802DF
:100810008280704700BFFEE70FB4054B10B503A9F7
:10082000044A029800F017F810BC5DF814FB0000B1
:100830002D0900083400002002E008C8121F08C17A
:10084000002AFAD170477047002001E001C1121F51
:10085000002AFBD170472DE9F84F99469246884609
:100860000546002706E025280AD051464A4690470B
:100870006D1C7F1C28780028F5D13846BDE8F88F1C
:10088000002315F8011F18462E2915D115F8011F50
:1008900004232A290DD06FF02F022978A1F130040A
:1008A000092C09D800EB800002EB400008446D1CC5
:1008B000F3E758F8040B6D1C2A78002ADDD0632A70
:1008C00007D0732A0FD0104651464A4690477F1CE6
:1008D0002AE018F8042B8DF8002000218DF8011073
:1008E0006E46012103E058F8046B4FF0FF315A07C0
:1008F0004FF0000401D409E0641C84420BDA8C42FE
:10090000FADB325D002AF7D105E0641C8C42FCDB87
:10091000305D0028F9D1274404E016F8010B514658
:100920004A469047641EF8D26D1CA3E770B5044692
:100930000D4600BF40210548FFF7CAFE0028F9D048
:10094000E1B20248FFF762FF204670BD004400405C
:1009500010B5002821D0114B0022001F196803E0B8
:10096000814203D80A4649680029F9D152B1136877
:10097000841A9C4204D1006818441060104602E0BA
:10098000506000E0186039B102680B1A934203D13D
:100990000B681A4402604968416010BD44000020A1
:1009A00010B503480468A1896069FFF7E2FC10BD37
:1009B0002800002010B503480468A1896069FFF78A
:1009C000DAFC10BD2800002038B517480468012162
:1009D0006068FFF72BFD2088ADF80000607E8DF881
:1009E0000300207E8DF802006946A068FFF736FC00
:1009F0002188A068FFF7BFFC01212069FFF716FDE1
:100A0000A089ADF80000607E8DF80300207E8DF88F
:100A1000020069466069FFF721FC21886069FFF7E1
:100A2000AAFC002038BD00002800002010B51C20C2
:100A300000F0FCF804461CB90CA0FFF7EDFE12E034
:100A4000114860611148A06040202061082060606A
:100A50002020A081208003202076102060760C4882
:100A60000460002010BD4FF0FF30FBE75B25735D95
:100A70006C656473206770696F206D616C6C6F6367
:100A8000206572726F72000000180140000C014076
:100A90002800002010B5044804686069FFF77AFB5D
:100AA000A068FFF777FB10BD2800002010B50248B2
:100AB0000068FFF74DFF10BD2800002010B5034867
:100AC00004682188A068FFF754FC10BD28000020AE
:100AD00010B5034804682188A068FFF74CFC10BDDE
:100AE00028000020F8B507460D4616461C46142C73
:100AF00005D0102C03D01C2C01D0182C06D10A498B
:100B00000AA0FFF789FE4FF0FF30F8BD01213846FB
:100B1000FFF78CFCADF800608DF80340694628466D
:100B2000FFF79CFB0020F0E72F0F00085B25735DAB
:100B30006770696F5F72656769737465725F696E0C
:100B4000707574206572726F720A00002DE9F843A7
:100B500080460D4616461F46089C2CB1042C03D037
:100B6000282C01D0482C07D10B490CA0FFF754FECC
:100B70004FF0FF30BDE8F88301214046FFF756FCF7
:100B8000ADF800608DF803408DF802706946284684
:100B9000FFF764FB0020EDE71A0F00085B25735D8B
:100BA0006770696F5F72656769737465725F6F758F
:100BB00074707574206572726F720A0010B500242B
:100BC000FFF734FF044604B109E0FFF7FDFE0446D9
:100BD00004B101E0002010BDFFF75CFF00BFFFF78C
:100BE00065FF4FF0FF30F6E710B5FFF771FFFFF735
:100BF000D7FE4FF4967000F071F8FFF75FFFFFF734
:100C0000D9FE4FF4967000F069F810BD00F044F87A
:100C100000F069F9044800F0A6F8FFF7CFFF01E003
:100C2000FFF7E2FFFCE7000000440040F0B50B30A6
:100C3000154D20F007010024144A0FE003688B4291
:100C40000BD38B4205D95E1A43184768C3E9006786
:100C500000E04368136002C004E0021D1068002831
:100C6000ECD12046002802D1286808B10020F0BD50
:100C7000064A07481060074A121A22F00702C0E924
:100C8000002401202860D7E748000020440000200D
:100C9000540000205002002010B56FF00400FFF750
:100CA000C5FC0A4800680A49B0FBF1F00949087020
:100CB0000846007800EB4001C1EBC0104FF6FF7111
:100CC00001EAC0000449088010BD000014000020A3
:100CD00000127A002C0000202E0000200146114A4C
:100CE00012884A434FF0E0235A6100229A611A4663
:100CF000126942F001021A6100BF4FF0E022106950
:100D000000F001021AB100F48032002AF5D04FF051
:100D1000E022126922F001024FF0E0231A61002262
:100D20009A6170472E000020F8B506460C4615461D
:100D30008DF800608DF801408DF8025001208DF88B
:100D400003006846FFF71EFB0020F8BD10B50446FF
:100D5000002240F225512046FFF7C7FC0021204623
:100D6000FFF7AAFC10BD10B50446012240F2255140
:100D70002046FFF7BAFC01212046FFF79DFC10BD7D
:100D800070B586B000251748046818200090A28925
:100D900003236169A068FFF7D9FEE2890423616932
:100DA000A068FFF79FFE208C002101910291CDE900
:100DB00003100091D4E90623D4E9000100F064F89F
:100DC0000546681C18B94FF0FF3006B070BDA27C14
:100DD000617C207CFFF7A8FFA069FFF7C4FF00201B
:100DE000F3E700003000002010B52420FFF71EFFBD
:100DF000044634B9104911A0FFF70EFD4FF0FF3043
:100E000010BD01202060400460600420A060A0812B
:100E10000820E0812620207403206074A0740D480F
:100E200060610D48A0614FF41640E0610C20208401
:100E30000A4804600020E3E7430F00085B25735D68
:100E40007573617274206D616C6C6F632065727272
:100E50006F720A000008014000440040300000208A
:100E600010B504480468A069FFF770FF6069FFF7D8
:100E700091F910BD3000002010B502480068FFF75E
:100E800067FD10BD300000202DE9FF5F04460D46D0
:100E900016461F46DDE910ABDDE90E89012C04D1B1
:100EA00001212846FFF7B2FA0BE0022C04D1012100
:100EB0002846FFF7BBFA04E04FF0FF3004B0BDE86E
:100EC000F09F0097ADF80480ADF80690ADF808A04B
:100ED000ADF80CB01298ADF80A0069463046FFF73D
:100EE00029FC0020EAE710B500244FF4A060FFF7CA
:100EF00081FAFFF779FF044604B109E0FFF740FFEC
:100F0000044604B101E0002010BDFFF7A9FF00BFB7
:100F1000FFF7B2FF4FF0FF30F6E76770696F5F725F
:100F2000656769737465725F6F7574707574006757
:100F300070696F5F72656769737465725F696E70FF
:100F400075740075736172745F70726F6265000012
:100F5000700F0008000000204C0000003808000856
:100F6000BC0F00084C0000200406000048080008E0
:100F7000000000000102030401020304060708093F
:100F80000204060800A24A0400000000000000005D
:100F90000102030406070809000000000000000029
:100FA000000000000000000001020304050607081D
:0C0FB000090A0000000000000000000022
:0400000508000131BD
:00000001FF
