:020000040800F2
:10000000F813002045010008D71600086B100008FF
:10001000D3160008870E0008C51C00080000000069
:10002000000000000000000000000000951800081B
:100030008B0E0008000000005D170008A9190008D9
:100040005F0100085F0100085F0100085F01000810
:100050005F0100085F0100085F0100085F01000800
:100060005F0100085F0100085F0100085F010008F0
:100070005F0100085F0100085F0100085F010008E0
:100080005F0100085F0100085F0100085F010008D0
:100090005F0100085F0100085F0100085F010008C0
:1000A0005F0100085F0100085F0100085F010008B0
:1000B0005F0100085F0100085F0100085F010008A0
:1000C0005F0100085F0100085F0100085F01000890
:1000D0005F0100085F0100080D1A00085F010008B9
:1000E0005F0100085F0100085F0100085F01000870
:1000F0005F0100085F0100085F0100085F01000860
:100100005F0100085F0100085F0100085F0100084F
:100110005F0100085F0100085F0100085F0100083F
:100120005F0100085F0100085F0100085F0100082F
:10013000DFF80CD000F02EFC00480047F52800083E
:10014000F81300200648804706480047FEE7FEE710
:10015000FEE7FEE7FEE7FEE7FEE7FEE7FEE7FEE777
:10016000AD190008310100082DE9F0410024061BFB
:10017000254671F1000605DA01240027D0EB0700BF
:1001800067EB0101161E73F1000605DA0027D2EBBA
:100190000702012567EB030300F0E0F986460E46EF
:1001A00017469C46AC4204D00025D0EB050E65EB0B
:1001B000010624B10020D2EB000760EB030C70466F
:1001C00031463A466346BDE8F08140EA01039B07A9
:1001D00003D009E008C9121F08C0042AFAD203E0BC
:1001E00011F8013B00F8013B521EF9D27047D2B220
:1001F00001E000F8012B491EFBD270470022F6E710
:1002000010B513460A4604461946FFF7F0FF20468C
:1002100010BDF0B480EA0102D40F4200B2EB410FEE
:1002200002D20246084611464A0042D0C30DDDB252
:10023000C1F3C752AD1A202D35DAC1F3160141F4CE
:10024000000204B15242C5F1200602FA06F12A4129
:100250001044B3EBD05F23D0C4B1012DA0EBC35049
:1002600009DCF0BC4FF0004202EAC352DBB200F5F9
:10027000000000F0BDB9400000F1807000EBC350F9
:10028000A0F1807040EAD170490009E0490841EAD4
:10029000C071A0EBC35000F50000400800EBC35054
:1002A000F0BC00F09CB96142012202EB4101001B4D
:1002B000F6E7F0BC704781F00041AAE780F000400B
:1002C000A7E780EA010210B502F00043400022D007
:1002D0004A001FD0010E01EB1261C0F35600C2F3B9
:1002E000560240F4000042F40002A0FB0220000489
:1002F0007F39140400D0401C50EA124001D4400061
:10030000491EC2B20C0604EBD010401C4008802AE3
:1003100002D003E0002010BD20F00100002900DA27
:100320000020184310BD30B480EA010202F00045FD
:1003300030F0004221F0004013D090B1C30DD40D35
:10034000C2F31601C0F31600E41A41F4000140F4B0
:1003500000027D34914201D3641C00E04900002C6E
:1003600002DA30BC002070474FF4000000239142B5
:1003700001D3891A034340084FEA4101F7D151B133
:10038000914202D14FF0004105E002D24FF001014D
:1003900001E06FF0010103EBC450284430BC00F0D1
:1003A0001EB92DE9FE4F81EA030404F0004421F058
:1003B000004100944FF0000B23F0004350EA010489
:1003C0005ED052EA03045BD0C3F30A54C1F30A556A
:1003D0002C44A4F2F3340194A0FB0254C1F31301A2
:1003E00041F48011C3F3130343F4801301FB02446F
:1003F00000FB034E840A970A44EA815447EA835774
:10040000A4FB076802958D0A05FB07854FEA932C2C
:1004100004FB0C542705029D4FEA065847EA16379D
:10042000B5EB08056EEB070C870E920E47EA8117B5
:1004300042EA8312A7FB0201B6EB0B0164EB000456
:100440002B0D43EA0C335E1844EB1C50DA46514640
:10045000E7FB0201C5F313044FEA0B3343EA1453DD
:100460004FEA0432019C43EA0603A4F10C0402940F
:10047000009CCDE900B400F0F8F803B0BDE8F08FBF
:1004800000200146F9E7C10F80EAE0700844CA077E
:100490009623002100F0ACB8F0B4CA17CB0F50403F
:1004A0005140C61841F100054FEAC3723146280099
:1004B0004FF0960303D0B623F0BC00F099B8304655
:1004C0000021F9E700F0004220F00040C10DC0F328
:1004D000160040F400007F2901DA002070479629B9
:1004E00003DCC1F19601C84001E096398840002A3A
:1004F000F4D04042704700F0004230F000400AD093
:10050000C10D01F56071C0F3160042EA0151C20845
:10051000400711437047002001467047002801DB67
:10052000C0F10040002901DBC1F100418142704768
:1005300030B50B46014600202022012409E021FAB3
:1005400002F59D4205D303FA02F5491B04FA02F5B0
:100550002844151EA2F10102F1DC30BD2DE9F05F47
:100560000546002092469B46884606468146402422
:100570001BE0284641464746224600F020F85346F5
:100580005A46C01A914110D311461846224600F02F
:1005900013FA2D1A67EB01084F462246012000216D
:1005A00000F00AFA17EB00094E41201EA4F10104E5
:1005B000DFDC484631462A464346BDE8F09F202A04
:1005C00004DB203A21FA02F00021704721FA02F3FD
:1005D000D040C2F1200291400843194670470029DB
:1005E000A8BF7047401C490008BF20F001007047B9
:1005F00010B4B0FA80FC00FA0CF050EA010404BF19
:1006000010BC704749B1CCF1200421FA04F411FA6E
:100610000CF118BF012121430843A3EB0C01CB1DB2
:100620004FEA00614FEA102042BF002010BC704723
:1006300000EBC35010440029A4BF10BC7047401CFD
:10064000490008BF20F0010010BC704710B5141E0F
:1006500073F1000408DA401C41F1000192185B417B
:100660001A4301D120F0010010BD2DE9F04D924652
:100670009B4611B1B1FA81F202E0B0FA80F2203269
:10068000904600F099F904460F4640EA0A0041EA14
:100690000B0153465A46084313D0114653EA010052
:1006A00019D0C8F140025046FFF789FF05460E46B3
:1006B00050465946424600F07FF9084305D00120D4
:1006C00004E020463946BDE8F08D0020054346EAA7
:1006D000E0762C4337430A986305E40AA0EB080050
:1006E0000022FD0A44EA47540A3002D500200146A0
:1006F000E9E7010510196941DDE90845001969417B
:10070000BDE8F04DA2E72DE9FE4F804681EA0300E7
:10071000C00F0C46009021F0004123F00045B8EBDB
:100720000200A94105D24046214690461C460B4690
:10073000024623F00040104347D0270DC7F30A00BC
:10074000C3F30A510290401A019040286BDAC3F3B8
:10075000130040F4801B0098924620B10023D2EB96
:10076000030A63EB0B0B01985946C0F14002504657
:1007700000F022F906460D4650465946019A00F00F
:100780002AF910EB08006141002487EA115284EA3B
:10079000E7731A4340D0009A62B3019A012A4FEAE4
:1007A000075215DC001B61EB02014FF0004202EA28
:1007B0000752CDE90042001C41F5801132462B461C
:1007C000FFF753FF03B0BDE8F08F40462146F9E73D
:1007D000001B61EB0201001C41F5801300185B4116
:1007E0002018A2F5001747EB030140EAD570B619AF
:1007F0006D4111E06D084FEA360645EAC0754FEAD3
:100800000752001B61EB0201001C41F580114908F1
:100810004FEA30000019514132462B4603B0BDE883
:10082000F04FFFF713BF0098012240000023D0EBE8
:10083000020263EBE073009821464FEAE074B8EBE4
:10084000000061EB0401E9E783F000435BE781F01E
:10085000004158E72DE9F04D81EA030404F0004B14
:1008600021F0004514464FF0000A23F0004150EA01
:10087000050220D054EA01021DD0C5F30A570246F2
:10088000C5F31303C1F31300C1F30A5640F48015F6
:1008900043F48013A7EB0608101BD64608F2FD3878
:1008A00073EB050002D308F1010801E092185B41E7
:1008B000B8F1000F03DA00200146BDE8F08D0020FA
:1008C0004FF48011064684460EE0171B73EB0507B4
:1008D00005D3121B63EB050306434CEA010C4908E0
:1008E0004FEA300092185B4150EA0107EDD152EA1D
:1008F000030012D082EA040083EA0501084305D010
:10090000101BAB4106D20122002306E000224FF06B
:10091000004302E06FF0010253101AEB06004CEBAB
:10092000085110EB0A0041EB0B01BDE8F04DFFF759
:100930008DBEC1F30A52C1F3130140F2FF3341F4FB
:1009400080119A4202DA00200146704740F2334398
:100950009A42A2F2334202DC5242FFF730BE00F06C
:100960002BB8000030B5041E71F1000404DB4FF019
:100970000044404264EB0101141E73F1000405DBE6
:100980001C464FF00043524263EB0403994208BFF8
:10099000904230BD064C074D06E0E06840F0010390
:1009A00094E8070098471034AC42F6D3FFF7C4FB35
:1009B00094310008B4310008202A04DB203A00FA00
:1009C00002F1002070479140C2F1200320FA03F3A6
:1009D000194390407047202A06DBCB17203A41FA92
:1009E00002F043EAE07306E041FA02F3D040C2F1BC
:1009F0002002914008431946704738B504462078D4
:100A0000012817D1A07805280FD006DC012809D0CD
:100A1000022808D004280BD106E0A02806D0A1287F
:100A200006D104E005E004E003E002E001E000E0BC
:100A300000BF1CE02078022815D1A078012804D03E
:100A4000022803D0A0280DD101E00BE00AE000202D
:100A50004FF4C87364224FF496710090042000F0A4
:100A6000A9F900BF03E02078032800D000BF38BDFB
:100A700010B504462B480078062850D2DFE800F075
:100A8000030B13192C3FAA2C01D1012000E00020F8
:100A90002449087044E0AF2C01D1022000E000207E
:100AA000204908703CE02048047003201D4908706C
:100AB00036E01E2C0CDC1C48447000201B490870DA
:100AC000002C01DD042000E005201649087002E03A
:100AD00000201449087023E01348801C134909784A
:100AE000445412480078401C104908700E48407861
:100AF0000978884202D105200A49087010E00A48A6
:100B000000F016F8A04203D10748FFF776FF02E095
:100B100000200449087000200249087000E000BF6E
:100B200000BF10BD5D000020D80D00205E00002039
:100B300010B50146002059200B7803444C7823441B
:100B4000D8B2002205E08B1C9B5C0344D8B2531C36
:100B5000DAB24B789342F6DC10BD0FB430B595B0E5
:100B6000AA208DF814008DF815009DF860008DF80E
:100B700016009DF861008DF817009DF861200DF1B9
:100B8000620106A8FFF721FB9DF86100401DC4B279
:100B90001CA80FC88DE80F0018A80FC800F055F961
:100BA0000546601E05A90D54214605A800F004F86D
:100BB00015B030BC5DF814FB70B504460D462946EF
:100BC000204601F065F870BD10B58CB01A48008859
:100BD0000A2190FBF1F201FB1200C8B906AA08A98C
:100BE0000AA801F003FE0021BDF92400CDE90101AE
:100BF00003910491BDF922000090BDF92030BDF9A8
:100C00002C20BDF92A10BDF9280000F019F800BF0A
:100C100009480088401C80B2074908804FF6FF71E0
:100C2000884202DB0120044908800348018803A0B0
:100C300001F04AF80CB010BD6000002025640A00E5
:100C40002DE9F04F8DB005460E4617469846DDE972
:100C500017ABDDF85890002402208DF8140004959D
:100C60009DF811202146641C0DF1160042549DF898
:100C700010202146641C425404969DF81120214600
:100C8000641C42549DF810202146641C4254049771
:100C90009DF811202146641C42549DF810202146E5
:100CA000641C4254CDF810809DF811202146641C2C
:100CB00042549DF810202046611CCCB20DF1160163
:100CC0000A54CDF810909DF811202046611CCCB23A
:100CD0000DF116010A549DF810202046611CCCB27B
:100CE0000DF116010A54CDF810A09DF811202046F0
:100CF000611CCCB20DF116010A549DF8102020465B
:100D0000611CCCB20DF116010A54CDF810B09DF85B
:100D100011202046611CCCB20DF116010A549DF839
:100D200010202046611CCCB20DF116010A5419980E
:100D300004909DF811202046611CCCB20DF11601E3
:100D40000A549DF810202046611CCCB20DF116010A
:100D50000A541A9804909DF811202046611CCCB2C8
:100D60000DF116010A549DF810202046611CCCB2EA
:100D70000DF116010A54002004909DF81120204620
:100D8000611CCCB20DF116010A549DF810202046CA
:100D9000611CCCB20DF116010A548DF8154009A85A
:100DA0000FC88DE80F0005A80FC8FFF7D6FE0DB0DD
:100DB000BDE8F08F7FB58CB00546002400260020EA
:100DC0008DF810008DF811002146641C0DF1120001
:100DD00045549DF835202146641C42549DF834202A
:100DE0002146641C42549DF839202146641C42541B
:100DF0009DF838202146641C42549DF83D20214630
:100E0000641C42549DF83C202146641C42549DF8C9
:100E100051202046611CCCB20DF112010A549DF8FC
:100E200050202046611CCCB20DF112010A54601E04
:100E3000C0B28DF8110008A80FC88DE80F0004A8F3
:100E40000FC8FFF78AFE10B070BD0FB4002000F18C
:100E5000AA02D0B200F1AA02D0B29DF8002002444A
:100E60009DF801301A44D0B2002106E00DF10202D3
:100E7000525C0244D0B24A1CD1B29DF801208A4291
:100E8000F4DC04B0704700BFFEE7704710B50446BD
:100E90002948844208D10121042000F081FC00216E
:100EA000042000F07DFC46E02448844208D1012162
:100EB000082000F075FC0021082000F071FC3AE0E9
:100EC0001F48844208D10121102000F069FC002154
:100ED000102000F065FC2EE01A48844208D1012160
:100EE000202000F05DFC0021202000F059FC22E0D1
:100EF0001548844208D10121402000F051FC002116
:100F0000402000F04DFC16E01048844208D1012139
:100F1000802000F045FC0021802000F041FC0AE028
:100F20000B48844207D10121801500F039FC0021D3
:100F3000A01500F035FC10BD00080140000C014078
:100F4000001001400014014000180140001C014045
:100F5000002001402DE9F041024600250026002036
:100F600000230024002791F803C00CF00F0591F82E
:100F700003C00CF0100CBCF1000F03D091F802C0BC
:100F80004CEA050591F800C0BCF1000F31D014689F
:100F900000202BE04FF0010C0CFA00F3B1F800C078
:100FA0000CEA03069E4220D183004FF00F0C0CFA8E
:100FB00003F7BC4305FA03FC4CEA040491F803C0B0
:100FC000BCF1280F06D14FF0010C0CFA00FCC2F85E
:100FD00014C00AE091F803C0BCF1480F05D14FF0EE
:100FE000010C0CFA00FCC2F810C0401C0828D1D338
:100FF0001460B1F800C0BCF1FF0F34DD546800206C
:101000002EE000F1080C4FF0010808FA0CF3B1F8DB
:1010100000C00CEA03069E4221D183004FF00F0C62
:101020000CFA03F7BC4305FA03FC4CEA040491F8FC
:1010300003C0BCF1280F05D100F1080C08FA0CF828
:10104000C2F8148091F803C0BCF1480F07D100F139
:10105000080C4FF0010808FA0CF8C2F81080401C88
:101060000828CED35460BDE8F08100BFFEE721B16F
:10107000028842F48062028004E002884FF6FF3367
:101080001A400280704770B50246002400250023F4
:101090000020958A138B1B0445EA030626F07F4443
:1010A00004EA01068E4201D1012000E0002070BD5B
:1010B00021B1028842F00102028004E002884FF66A
:1010C000FE731A400280704721B1028842F4807298
:1010D000028004E002884FF6FF631A4002807047E6
:1010E00021B1028842F40072028004E002884FF6C7
:1010F000FF531A40028070470CB5024600200023BF
:101100000193009300920B0F019321F07F41019B0B
:101110001BB1009B1433009303E0090C009B1833B0
:101120000093009B1B680B400BB1012000E00020E6
:101130000CBD00002DE9F04385B004460D460026A5
:10114000B1460427DFF8CC80A6884FF6C070064071
:10115000684600F035FBDDF808802F48B8FBF0F05A
:101160001FFA80F946EA0906A68020884FF6FE712C
:101170000840208000262949286888420CD8286821
:101180004000B8FBF0F087B2042F00DA04273E439A
:1011900009F10100208427E0E8884BF6FF718842BE
:1011A00006D1286800EB4000B8FBF0F087B209E0F8
:1011B000286800EBC00101EB0010B8FBF0F087B22B
:1011C00047F48047C7F30B0008B947F0010747F41D
:1011D000004006434FF4967009FB00F04FF47A711B
:1011E00090FBF1F0401C2084A683208840F0010091
:1011F000208026884FF6F5300640A8886989084384
:1012000006432680A88929890843208105B0BDE8C6
:10121000F083000000127A0040420F00A086010017
:101220000146088AC0B2704712B141F0010102E0E4
:101230004FF6FE731940018270470182704738B53E
:101240000446032302221A21D020009400F015FA4C
:1012500038BD10B50446234607226B21D02000F08C
:10126000ECF910BD7CB506460C46154600200090F2
:10127000019006233B226946D02000F045F89DF9F5
:1012800001009DF9001040EA012030809DF9030023
:101290009DF9021040EA012020809DF905009DF98A
:1012A000041040EA012028807CBD1CB501A806235B
:1012B0001A4675210090D02000F05EF99DF80400D8
:1012C0001CBD7CB506460C461546002000900190DA
:1012D000062343226946D02000F016F89DF901004C
:1012E0009DF9001040EA012030809DF903009DF92E
:1012F000021040EA012020809DF905009DF90410AC
:1013000040EA012028807CBD2DE9F04106460D46CB
:1013100017461C4600BF4FF400313248FFF7ECFE81
:101320000028F8D101212F48FFF7CEFE00BF2E493B
:101330002C48FFF7A8FE0028F9D0002231462948A2
:10134000FFF772FF00BF29492648FFF79CFE0028DF
:10135000F9D001212348FFF7ABFE39462148FFF7BA
:101360006CFF00BF2149891C1E48FFF78CFE002836
:10137000F8D001211B48FFF7A7FE00BF1A49194802
:10138000FFF781FE0028F9D0012231461548FFF70A
:101390004BFF00BF1449491C1248FFF774FE002898
:1013A000F8D016E0012C07D100210E48FFF75FFEB0
:1013B00001210C48FFF794FE0B493F310948FFF724
:1013C00062FE30B10748FFF72BFF28706D1C601ECE
:1013D00084B2002CE6D101210248FFF748FEBDE8A7
:1013E000F081000000580040010003008200070067
:1013F00070B504460D46164601211948FFF764FEF4
:1014000000BF18491648FFF73EFE0028F9D0002219
:1014100021461348FFF708FF00BF13491048FFF7A4
:1014200032FE0028F9D031460D48FFF706FF00BF15
:101430000D49891C0A48FFF726FE0028F8D02978B4
:101440000748FFF7FAFE00BF0749891C0448FFF769
:101450001AFE0028F8D001210148FFF741FE70BDB7
:1014600000580040010003008200070000B585B06D
:101470000121880500F074F90121082000F080F9AD
:101480004FF44060ADF8000003208DF802001C20EE
:101490008DF8030069461048FFF75CFD0020ADF8A9
:1014A00008004BF6FF70ADF80A00D020ADF80C0034
:1014B0004FF48060ADF80E000001ADF81000074851
:1014C000019001A90648FFF735FE01210448FFF706
:1014D000EFFD05B000BD0000000C0140A08601003A
:1014E0000058004010B50120FFF7B3FE4FF4FA702A
:1014F00001F0FCFC00F098F8044614B90EA000F0CE
:10150000E3FB032000F069F8002000F023F801203D
:1015100000F029F8032000F074F8022000F067F8CA
:10152000012000F050F80220FFF789FE002000F0B3
:1015300072F8204610BD00004D5055363035302031
:10154000496E697469616C697A65204661696C21CC
:101550000000000010B50446234600223821D020A8
:1015600000F06BF810BD10B5044623460122372168
:10157000D02000F062F810BD2DE9F84307460E4672
:1015800015461C46DDF82080012332466946384660
:10159000FFF7BAFE0120A040401E291B491C8840CD
:1015A00000F0FF099DF8000000EA09000090281BE8
:1015B000401C9DF80010014100919DF8000088F842
:1015C0000000BDE8F88338B5044608230722192136
:1015D000D020009400F051F838BD38B504460323FC
:1015E00002226B21D020009400F047F838BD38B5B6
:1015F0000446022304221C21D020009400F03DF870
:1016000038BD38B50446022304221B21D0200094A3
:1016100000F033F838BD10B50446234606226B218E
:10162000D02000F00AF810BD10B5FFF73EFE3428B8
:1016300001D1012010BD0020FCE7F8B507460D469A
:1016400014461E4601232A4669463846FFF75CFECB
:101650002EB10120A0409DF80010084305E00120B4
:10166000A0409DF8001021EA0000C0B200902A4678
:1016700069463846FFF7BCFEF8BD2DE9F8438146C0
:101680000F4615461C46089E01233A4669464846C1
:10169000FFF73AFE0120A040401E291B491C88404C
:1016A00000F0FF08281B401C06FA00F0C6B206EA4C
:1016B00008069DF8000020EA080000909DF8000050
:1016C000304300903A4669464846FFF791FEBDE830
:1016D000F88300BFFEE7704770B5002100230F229A
:1016E000C47804B3154C246804F4E064C4F5E064E1
:1016F000210AC1F10403CA40447804FA03F1847852
:101700001440214309010E4C0678A155047804F0D9
:101710001F050124AC4005786D11AD0005F1E025F1
:10172000C5F8004109E0047804F01F050124AC402D
:10173000044D0678761145F8264070BD0CED00E0AA
:1017400000E400E080E100E002490143024A116048
:10175000704700000000FA050CED00E07047000043
:1017600029B1064AD2690243044BDA6104E0034A14
:10177000D2698243014BDA617047000000100240D9
:1017800029B1064A92690243044B9A6104E0034A74
:1017900092698243014B9A61704700000010024039
:1017A00029B1064AD2680243044BDA6004E0034AD6
:1017B000D2688243014BDA6070470000001002409B
:1017C00030B500210022002400232D4D6D6805F066
:1017D0000C0121B1042905D0082923D105E0294DA8
:1017E000056022E0274D05601FE0254D6D6805F47A
:1017F0007012234D6D6805F48034022505EB92428A
:101800001CB9214D554305600BE01D4D6D6805F475
:1018100000351DB11C4D5543056002E0194D55437F
:10182000056002E0174D056000BF00BF144D6D68F4
:1018300005F0F0010909154D6B5C0568DD40456058
:101840000F4D6D6805F4E061090A104D6B5C456849
:10185000DD4085600A4D6D6805F46051C90A0B4D85
:101860006B5C4568DD40C560054D6D6805F4404121
:10187000890B074D6B5CC568B5FBF3F5056130BDA1
:101880000010024000127A0000093D0034000020E0
:1018900044000020704710B500F002F810BD0000B1
:1018A0000CB50020019000903348006840F480306F
:1018B0003149086000BF3048006800F400300090F3
:1018C0000198401C0190009818B90198B0F5A06FDC
:1018D000F1D12948006800F4003010B101200090D7
:1018E00001E0002000900098012843D123480068BF
:1018F00040F01000214908600846006820F003000D
:1019000008600846006840F0020008601A48406815
:10191000194948600846406848600846406840F4F5
:10192000806048600846406820F47C1048600846A3
:10193000406840F4E81048600846006840F0807055
:10194000086000BF0C48006800F000700028F9D063
:101950000948406820F0030007494860084640688D
:1019600040F00200486000BF0348406800F00C00EF
:101970000828F9D10CBD00000010024000200240F0
:10198000042808D14FF0E021096941F004014FF02B
:10199000E022116107E04FF0E021096921F0040124
:1019A0004FF0E022116170477047000010B51348F6
:1019B000006840F00100114908600846406810497D
:1019C00008400E494860084600680E4908400B4927
:1019D00008600846006820F48020086008464068D7
:1019E00020F4FE0048604FF41F008860FFF753FFAB
:1019F0004FF000600449086010BD00000010024074
:101A00000000FFF8FFFFF6FE08ED00E010B540F221
:101A10002771184800F051F890B1174800F024F9E8
:101A200004462146134800F008F9134800F015F960
:101A3000F8B9002240F227710E4800F068F818E06B
:101A400040F225510B4800F038F890B140F2255192
:101A5000084800F017F8074800F0EAF8074908704E
:101A600008460078FFF704F804480178044800F0BD
:101A700005F910BD00440040AC000020100000201B
:101A8000B800002010B50022002340F66A14A142DD
:101A900000D100BF0A1201249440A3B2DC430480A9
:101AA00010BD21B1828942F40052828104E0828912
:101AB0004DF6FF731A408281704770B502460024CC
:101AC00000230025002040F66A16B14200D100BF75
:101AD000C1F3421501F01F03012606FA03F3012D9D
:101AE00002D19689334006E0022D02D1168A334096
:101AF00001E0968A33400C12012606FA04F4168897
:101B0000344013B10CB1012000E0002070BDF0B5ED
:101B10000346002400260025002040F66A17B9423B
:101B200000D100BF1846C1F3421401F01F0601277F
:101B300007FA06F5012C01D10C3004E0022C01D18A
:101B4000103000E014301AB107682F43076002E03C
:101B50000768AF430760F0BD2DE9F04786B0054642
:101B60000E460024A24600BFA1460027B08900B15E
:101B700000BF2F462C8A4CF6FF700440F0880443C7
:101B80002C82AC894EF6F3100440B08831890843AA
:101B9000718908430443AC81AC8A4FF6FF4004408E
:101BA000B0890443AC8201A8FFF70AFE1F488742B0
:101BB00002D1DDF810A001E0DDF80CA0A88900F446
:101BC000004040B10AEBCA0000EB0A10316849003E
:101BD000B0FBF1F807E00AEBCA0000EB0A1031682D
:101BE0008900B0FBF1F86420B8FBF0F00401200993
:101BF000642101FB1089A88900F4004040B1322023
:101C000000EBC900B0FBF1F000F00700044308E06E
:101C1000322000EB09106421B0FBF1F000F00F005E
:101C200004432C8106B0BDE8F08700000038014075
:101C300001468888C0F308007047C1F3080282801B
:101C400070474FF41651016000218180C1800181ED
:101C50000C214181002181817047014608884A8812
:101C6000801A8A881040704701464A888B881A403B
:101C70008B68985C4A88521C4A8070470288838827
:101C80001A40836899540288521C028070470000F1
:101C900070B504460D46002606E021780748FFF798
:101CA000EDFF641C701CC6B2AE42F6DB012240F2AE
:101CB00027710348FFF72BFF70BD0000AC00002028
:101CC0000044004000BFFEE70FB4054B10B503A968
:101CD000044A029800F0CAF810BC5DF814FB00003A
:101CE000812700080C00002002E008C8121F08C16C
:101CF000002AFAD170477047002001E001C1121F8D
:101D0000002AFBD1704700002DE9FF5FDDE90220CA
:101D1000010DDDF838B0024318D044F61050A1F29E
:101D2000FF3141430D140F98012820D0A5EB0B0083
:101D3000401C5FEA000A4FF00004474EDFF81C9198
:101D4000A046504616D5CAF1000728E00F98012496
:101D500043A2012808D0002100980F9BC0E9002170
:101D6000C0E90243BDE8FF9F6FEA0B01F4E7CBF146
:101D70000000DEE7074612E0F80707D022463346A8
:101D800040464946FEF70DFB8046894622463346CB
:101D900010461946FEF705FB04460E467F10002F3D
:101DA000EAD1DDE90201BAF1000F42464B4602DA00
:101DB000FEF7F7FA01E0FEF74DFD04460E4600225D
:101DC000284BFEF7CFFD03D84FF0FF30014607E068
:101DD0000022254B20463146FEF795FCFEF7A9FD73
:101DE000102409E0002C0ADB0A220023FEF7B6FBD0
:101DF000019B30321A55641E50EA0102F2D1641C74
:101E0000019AC4F1110314440F9A012A03D001224C
:101E100008430DD10AE0084304D000204FF0110B15
:101E20000F9080E7A3EB0B056D1E0DE05B4504DD15
:101E30004FF0000205F1010504E003DA4FF0000263
:101E4000A5F10105002AECD000980F99C0E90231F4
:101E5000C0E9004586E70000000024400000F03F94
:101E6000300000000000F0430000E03F2DE9FF4F8C
:101E700095B09B468946064600250FE2252877D176
:101E800000242746F84A0121059400E0044316F88F
:101E9000013F203B01FA03F01042F7D130782A28A5
:101EA00011D06FF02F033078A0F13002092A16D834
:101EB000059A44F0020402EB820203EB4202104452
:101EC000761C0590EFE759F8042B0592002A03DAF7
:101ED000504244F40054059044F00204761C3078DB
:101EE0002E2816D116F8010F44F004042A280DD02C
:101EF0006FF02F023078A0F13003092B09D807EBDF
:101F0000870302EB4303C718761CF3E759F8047BF9
:101F1000761C30786C280FD006DC4C2817D0682847
:101F20000DD06A2814D104E0742810D07A280FD17B
:101F30000DE044F400140AE044F4801401E044F499
:101F400040147278824202D104F58014761C761C0B
:101F5000307866280BD013DC582877D009DC0028AD
:101F600075D04528F6D04628F4D047281AD19DE1EF
:101F700018E0632835D0642879D0652812D195E11E
:101F8000702873D008DC6728F1D069286FD06E28DC
:101F90000DD06F2806D1B5E073282CD0752875D0E8
:101FA000782874D05A46179990476D1C75E1C4F390
:101FB0000250022809D003280DD0D9F800100428B7
:101FC0000DD00D6009F1040967E1D9F80010EA1796
:101FD000C1E90052F6E7D9F800100D80F2E70D7064
:101FE000F0E719F8041B8DF8001000208DF80100AF
:101FF000EA46012003E059F804AB4FF0FF306107D7
:102000004FF0000102D40DE008F101018846B94209
:102010000FDA8045F8DB1AF808100029F4D108E03F
:1020200008F1010188468142FADB1AF808100029FC
:10203000F6D105985B46A0EB080721463846179A6B
:1020400000F094FA284400EB080507E04DE029E190
:102050000DE01AF8010B5A4617999047B8F101089C
:10206000F7D25B4621463846179A13E142E00A222E
:102070000092C4F302524FF0000A022A08D059F825
:1020800004CB032A4FEAEC710AD00DE029E02AE0E4
:1020900009F1070121F00702F2E802C1914609E0C7
:1020A0000FFA8CFC4FEAEC71042A03D14FFA8CFC36
:1020B0004FEAEC71002907DA0A460021DCF1000C36
:1020C00061EB02012D2202E0220504D52B228DF8BE
:1020D0000420012203E0E20701D02022F7E7904626
:1020E00059E00A2102E010220DE010214FF0000A11
:1020F00000910BE010224FF0000A44F0040408277E
:10210000009203E008224FF0000A0092C4F302524A
:10211000022A05D059F804CB0021032A08D009E08F
:1021200009F1070121F00702F2E802C1914605E03A
:102130001FFA8CFC042A01D10CF0FF0C4FF00008B0
:10214000220728D5702806D0009B83F0100353EA9D
:102150000A0305D00EE040228DF80420012208E099
:102160005CEA010206D030228DF804208DF80500CB
:1021700002229046009B83F0080353EA0A030AD127
:102180005CEA010201D1620705D530228DF80420F6
:102190004FF001087F1E582804D034A003900EA8E9
:1021A00002900DE036A0F9E753466046009AFEF72C
:1021B000D5F984460398825C0298401E0290027012
:1021C0005CEA0100F0D1029806A9081A00F1200A81
:1021D000600702D524F4803400E00127574502DD72
:1021E000A7EB0A0000E0002000EB0A010090059830
:1021F0004144401A0590E00306D45B462146179AF5
:10220000059800F0B3F90544002706E001A85A46F6
:10221000C05D179990476D1C7F1C4745F6DBE003B6
:102220000CD55B462146179A059800F09FF90544A6
:1022300004E030205A46179990476D1C0099481EBB
:1022400000900029F5DC08E0029802995A460078CF
:10225000491C0291179990476D1CBAF10001AAF12F
:10226000010AF1DC65E10000092801003031323358
:1022700034353637383961626364656600000000C2
:1022800030313233343536373839414243444546AC
:102290000000000000F058F90544761C3078002852
:1022A0007FF4ECAD19B02846BDE8F08F620700D48A
:1022B000062709F1070222F0070CFCE80223E14699
:1022C00003F000485FEA080C02D00FF2702C0DE01A
:1022D0005FEA045C02D50FF2682C07E05FEAC47C79
:1022E00002D00FF2602C01E0AFF2700C4FF0FF381B
:1022F00023F00043CDF850C065280CD006DC4528FB
:1023000009D046281DD047283DD13DE0662818D089
:1023100067287ED138E00021112F01DB112000E079
:10232000781CCDE9000106A90EA8FFF7EDFCDDE958
:102330000F010E9A03910021009207F1010A049106
:102340004DE04FF000400097CDE9011006A90EA81E
:10235000FFF7DAFCDDE90F0203920E9B11990022D0
:10236000DDF80CA00093049211B9791C00EB010A6E
:10237000B7EB0A0004D4C0F1FF3007F1010A049062
:10238000AAEB0700019044E0012F00DA01270021A9
:10239000112F01DD112000E03846CDE9000106A92A
:1023A0000EA8FFF7B1FCDDE90F010E9A03910021A1
:1023B00004910092BA4621070CD40399514500DAE2
:1023C0008A46BAF1010F05DD009AAAF10101515CBC
:1023D000302908D0B84202DA10F1040F06DA0121E0
:1023E000CDE9011015E0AAF10101E9E7002805DCBB
:1023F000049901440491AAEB000102E0411C5145FB
:1024000000DD8A460499401A401C01904FF00040BC
:102410000290200704D40198504501DBCDF80480D8
:1024200000208DF84F0002980DF14F07B0F1004FDA
:1024300025D02B200E9002984FF0020800280CDACD
:10244000404202902D200E9007E00A210298FEF7EC
:102450006FF83031029007F8011DB8F10001A8F1C2
:102460000108F2DC02980028EFD1791E0E9808705E
:10247000307800F0200040F0450007F8020D12A867
:10248000C01B00F107081498007800B1012000EB90
:102490000A01019801EBE07105984144401A401E81
:1024A0000590E00306D45B462146179A059800F094
:1024B0005DF805441498007818B15A46179990476A
:1024C0006D1CE00324D55B462146179A059800F061
:1024D0004DF805441CE00498002807DBDDE9030102
:1024E000884203DD0098405C179901E0179930207D
:1024F0005A469047049805F10105401C0490019844
:10250000401E019004D12E205A46179990476D1C09
:10251000BAF10001AAF1010ADDDC05E017F8010BB0
:102520005A46179990476D1CB8F10001A8F10108AF
:10253000F4DC5B462146179A0598ABE62D000000B7
:102540002B000000200000002DE9F041044600258A
:102550001E461746880404D405E039462020B047BB
:102560006D1C641EF9D52846BDE8F0812DE9F041C7
:10257000044600251E469046C80301D5302700E0DA
:102580002027880404D505E041463846B0476D1C35
:10259000641EF9D52846BDE8F08100002DE9F0431E
:1025A000044607AD95E8E010DDF82C80DFF82090B8
:1025B000D9F80000046041608281C38105744674CB
:1025C0008774C0F818C0C0F81C80BDE8F083000014
:1025D0001400002070B586B0002517480468182044
:1025E0000090A28903236169A06800F04BF9E28999
:1025F00004236169A06800F011F9208C0021019189
:102600000291CDE903100091D4E90623D4E9000139
:1026100000F044FD0546681C18B94FF0FF3006B0C5
:1026200070BDA27C617C207C00F086FCA06900F07B
:10263000A2FC0020F3E700001400002010B52420C5
:1026400000F076F9044634B9114912A0FFF73CFBBB
:102650004FF0FF3010BD0120206040046060042076
:10266000A060A0810820E0812620207403206074EF
:102670000220A0740E4860610E48A0614FF416401D
:10268000E0610C2020840C4804600020E2E7000098
:102690007D3100085B25735D626C7565746F6F74C6
:1026A00068206D616C6C6F63206572726F720A00D6
:1026B00000080140004400401400002010B5044808
:1026C0000468A06900F04AFC6069FEF7DFFB10BDFA
:1026D0001400002010B50248006800F05FF810BD3B
:1026E0001400002010B586B00024FFF7A7FF0446B1
:1026F00004B12DE04FF41640184900220192CDE9B3
:1027000002210490262008230422D10300900120F6
:10271000FFF744FFFFF75EFF044604B115E0002019
:102720000F49088048807F2088800E4888600020FC
:102730000D49088048807F2088800C4888600CA064
:10274000FFF7C2FA002006B010BDFFF7B7FF00BFC9
:10275000FFF7C0FF4FF0FF30F5E7000000440040F6
:10276000AC00002044010020B8000020C40000207C
:10277000626C7565746F6F7468206F6B0A0000007F
:1027800000BF054A128802F04002002AF9D0C2B206
:10279000014B1B1D1A8070470038014010B50028FE
:1027A00021D0114B0022001F196803E0814203D899
:1027B0000A4649680029F9D152B11368841A9C422B
:1027C00004D1006818441060104602E0506000E038
:1027D000186039B102680B1A934203D10B681A448E
:1027E00002604968416010BD6400002010B5084BCC
:1027F0001C6804609B888380064B1C680C609B8867
:102800008B80054B1C6814609B88938010BD000072
:10281000220000201C00002028000020F8B50746F8
:102820000D4616461C46142C05D0102C03D01C2C2B
:1028300001D0182C06D10A490AA0FFF745FA4FF03B
:10284000FF30F8BD01213846FEF79AFFADF8006071
:102850008DF8034069462846FEF77CFB0020F0E730
:102860005D3100085B25735D6770696F5F72656736
:1028700069737465725F696E707574206572726FCA
:10288000720A00002DE9F84380460D4616461F46A1
:10289000089C2CB1042C03D0282C01D0482C07D143
:1028A0000B490CA0FFF710FA4FF0FF30BDE8F8839A
:1028B00001214046FEF764FFADF800608DF803404B
:1028C0008DF8027069462846FEF744FB0020EDE7CC
:1028D000483100085B25735D6770696F5F726567DB
:1028E00069737465725F6F75747075742065727248
:1028F0006F720A0000F0D8FA00F002FC094800F0FC
:102900003AFBFFF7EFFE084800F035FB00F0ACFAA9
:1029100006E04FF4FA71054800F02AF9FEF754F981
:10292000F7E7000000380140004400406C00002040
:10293000F0B50B30154D20F007010024144A0FE0CC
:1029400003688B420BD38B4205D95E1A4318476844
:10295000C3E9006700E04368136002C004E0021DA1
:1029600010680028ECD12046002802D1286808B160
:102970000020F0BD064A07481060074A121A22F0EC
:102980000702C0E9002401202860D7E76800002082
:1029900064000020FC0D0020F80F00202DE9F0411C
:1029A00004460D46394A911E881EFEF75BFC384AE4
:1029B000911E881EFEF785FC3648007B38B93449E5
:1029C000091F344800F028F9324800F021FA324952
:1029D0002E48001F00F072F82D49091FB1F90000C0
:1029E000FDF751FD07462B4801683846FDF763FCAB
:1029F00080F0004629493046FDF763FC20602449F9
:102A0000091FB1F90200FDF73EFD07462148416864
:102A10003846FDF750FC06462049FDF752FC606041
:102A20001B49091FB1F90400FDF72DFD07461948A0
:102A300081683846FDF73FFC06461849FDF741FC22
:102A4000A0601549B1F900104842FDF71CFD06468B
:102A50004FF06651FDF735FC28600F49B1F90200CF
:102A6000FDF711FD06464FF06651FDF72AFC686040
:102A70000949B1F90400FDF706FD06464FF066511D
:102A8000FDF71FFCA860BDE8F081000026000020D3
:102A900020000020C40100202E00002000007A3D0C
:102AA00070B505460E46144631462846FFF776FFB8
:102AB000002020606060A06070BD00002DE9F0473C
:102AC00005460C46B5F90010B4F90020881AFDF748
:102AD000DAFC8146254801684846FDF7F2FB0746C7
:102AE000B4F90000FDF7CFFC80463946FDF791FBB5
:102AF0000646FDF7E7FC00B22080B5F90210B4F9F4
:102B00000220881AFDF7BFFC814618480168484634
:102B1000FDF7D7FB0746B4F90200FDF7B4FC804689
:102B20003946FDF776FB0646FDF7CCFC00B2608027
:102B3000B5F90410B4F90420881AFDF7A4FC814605
:102B40000A4801684846FDF7BCFB0746B4F9040093
:102B5000FDF799FC80463946FDF75BFB0646FDF71D
:102B6000B1FC00B2A080BDE8F08700001800002092
:102B70002DE9F04F91B082468B460BF0010030B941
:102B80000AF1180251460AF10C00FFF789FFDAF842
:102B90001400FDF7B0FC04460D46DAF81000FDF70E
:102BA000AAFC06460F46DAF80C00FDF7A4FC8046A6
:102BB0008946DAF80800FDF79EFCCDE90E01DAF847
:102BC0000400FDF798FCCDE90C01DAF80000FDF7F0
:102BD00092FCCDE90489CDE90667CDE90845CDE948
:102BE0000A01DDE90E01CDE90201DDE90C01CDE9C3
:102BF000000104A0DDE90A23FFF766F811B0BDE883
:102C0000F08F000025662C25662C25662C25662C69
:102C100025662C25660A00000A8803691A804A88FE
:102C200003695A808A8803699A800269921D026149
:102C300000F614420369934204D300F114020261C6
:102C40000122427370470021417300F114010161B8
:102C500070472DE9F04F8DB005460E46914618217C
:102C600006A8FDF7CBFA18216846FDF7C7FA00243D
:102C70005CE004EB440205F1140131F91210CA17AB
:102C8000DDE9063059185041CDE9061004EB440245
:102C900005F1140101EB4201B1F90210CA17DDE997
:102CA000087079185041CDE9081004EB440205F191
:102CB000140000EB4200B0F90400C217DDE90A314C
:102CC00018185141CDE90A0104EB440105F1140043
:102CD00030F9110040430146DDE90023891843EB38
:102CE000E070CDE9001004EB440105F1140000EBA5
:102CF0004100B0F9020000FB00F04FEAE071DDE9AD
:102D0000022380185941CDE9020104EB440105F189
:102D1000140000EB4100B0F904004043C117DDE9A5
:102D20000432C0185141CDE90401641CB4F5007FA0
:102D30009FD3DDE90601A0FB007301FB003301FB1B
:102D400000314FF4007200233846FDF70DFADDE93B
:102D50000032B3EB000A62EB01015046FDF79CFB29
:102D60003060DDE90810A1FB017300FB013301FBBA
:102D700000314FF4007200233846FDF7F5F9DDE924
:102D80000232B3EB000A62EB01015046FDF784FB0F
:102D90007060DDE90A10A1FB017300FB013301FB48
:102DA00000314FF4007200233846FDF7DDF9DDE90C
:102DB0000432B3EB000A62EB01015046FDF76CFBF5
:102DC000B060DDE906211046FDF766FB07464FF0CF
:102DD0008841FDF7A8FAC9F80000DDE9082110468E
:102DE000FDF75AFB07464FF08841FDF79CFAC9F8FA
:102DF0000400DDE90A211046FDF74EFB07464FF0BF
:102E00008841FDF790FAC9F808000DB0BDE8F08FD1
:102E100030B587B004460025607B00B301AA04A941
:102E20002046FFF716FF0F490498FDF777FB13D2F2
:102E30000C490598FDF772FB0ED20A490698FDF77A
:102E40006DFB09D201982060029860600398A06031
:102E500001250120207301E00020607300BF284697
:102E600007B030BD00409C4510B5FEF7FFFAFEF7F5
:102E700039FB044614B905A0FEF726FF0748FFF703
:102E8000E2FE074807490860204610BD73656E736F
:102E90006F726572726F72210A000000C401002017
:102EA0003707443D1800002010B56FF00400FEF70E
:102EB00067FD0A4800680A49B0FBF1F0094908704B
:102EC0000846007800EB4001C1EBC0104FF6FF71DF
:102ED00001EAC0000449088010BD0000480000203D
:102EE00000127A0000000020020000200146114A72
:102EF00012884A434FF0E0235A6100229A611A4631
:102F0000126942F001021A6100BF4FF0E02210691D
:102F100000F001021AB100F48032002AF5D04FF01F
:102F2000E022126922F001024FF0E0231A61002230
:102F30009A61704702000020F8B506460C46154617
:102F40008DF800608DF801408DF8025001208DF859
:102F500003006846FEF7C0FB0020F8BD10B504462C
:102F6000002240F225512046FEF7D1FD00212046E7
:102F7000FEF797FD10BD10B50446012240F2255121
:102F80002046FEF7C4FD01212046FEF78AFD10BD54
:102F900070B586B000251748046818200090A289F3
:102FA00003236169A068FFF76DFCE289042361696E
:102FB000A068FFF733FC208C002101910291CDE93C
:102FC00003100091D4E90623D4E9000100F066F86B
:102FD0000546681C18B94FF0FF3006B070BDA27CE2
:102FE000617C207CFFF7A8FFA069FFF7C4FF0020E9
:102FF000F3E700000400002010B52420FFF798FC40
:10300000044634B9114912A0FEF75EFE4FF0FF30BE
:1030100010BD02202060400360600420A060C00159
:10302000A0814000E0812520207403206074A074FA
:103030000D4860610D48A0614FF4E130E0610C2063
:1030400020840B4804600020E2E700007131000892
:103050005B25735D7573617274206D616C6C6F6359
:10306000206572726F720A0000080140003801404A
:103070000400002010B504480468A069FFF76EFF43
:103080006069FDF703FF10BD0400002010B5024881
:103090000068FFF783FB10BD040000202DE9FF5FEF
:1030A00004460D4616461F46DDE910ABDDE90E89E4
:1030B0006846FEF7C6FD012C04D101212846FEF723
:1030C0004FFB0BE0022C04D101212846FEF758FBF0
:1030D00004E04FF0FF3004B0BDE8F09F0097ADF87A
:1030E0000480ADF80690ADF808A0ADF80CB01298C9
:1030F000ADF80A0069463046FEF72EFD0020EAE7EB
:1031000010B500244FF4A060FEF71EFBFFF774FF1C
:10311000044604B10CE0FFF73BFF044604B104E0B1
:1031200006A0FEF7D1FD002010BDFFF7A3FF00BFF2
:10313000FFF7ACFF4FF0FF30F6E7000075736172E8
:1031400074204F4B0A0000006770696F5F726567FB
:1031500069737465725F6F757470757400677069F8
:103160006F5F72656769737465725F696E7075749D
:103170000075736172745F70726F626500626C7566
:1031800065746F6F74685F756172745F70726F627F
:1031900065000000B4310008000000206C00000051
:1031A000E81C0008203200086C0000208C1300008E
:1031B000F81C0008000000000000000000000000F3
:1031C00000000000000000000000000000000000FF
:1031D00000000000000000000000000000000000EF
:1031E00000000000000000000000000001020304D5
:1031F00001020304060708090204060800A24A04A3
:103200000000000000000000010203040607080996
:1032100000000000010000000000000000000000AD
:0400000508000131BD
:00000001FF
