:020000040800F2
:100000001007002045010008830300087B03000857
:100010007F0300088D01000813090008000000009C
:100020000000000000000000000000004105000882
:1000300091010008000000000904000855060008AE
:100040005F0100085F0100085F0100085F01000810
:100050005F0100085F0100085F0100085F01000800
:100060005F0100085F0100085F0100085F010008F0
:100070005F0100085F0100085F0100085F010008E0
:100080005F0100085F0100085F0100085F010008D0
:100090005F0100085F0100085F0100085F010008C0
:1000A0005F0100085F0100085F0100085F010008B0
:1000B0005F0100085F0100085F0100085F010008A0
:1000C0005F0100085F0100085F0100085F01000890
:1000D0005F0100085F010008B90600085F01000821
:1000E0005F0100085F0100085F0100085F01000870
:1000F0005F0100085F0100085F0100085F01000860
:100100005F0100085F0100085F0100085F0100084F
:100110005F0100085F0100085F0100085F0100083F
:100120005F0100085F0100085F0100085F0100082F
:10013000DFF80CD000F018F800480047A50E0008C2
:10014000100700200648804706480047FEE7FEE704
:10015000FEE7FEE7FEE7FEE7FEE7FEE7FEE7FEE777
:100160005906000831010008064C074D06E0E0681A
:1001700040F0010394E8070098471034AC42F6D3EE
:10018000FFF7DAFF84120008A412000800BFFEE7A0
:100190007047000010B504462948844208D1012167
:1001A000042000F053F90021042000F04FF946E04C
:1001B0002448844208D10121082000F047F9002199
:1001C000082000F043F93AE01F48844208D1012199
:1001D000102000F03BF90021102000F037F92EE04C
:1001E0001A48844208D10121202000F02FF9002173
:1001F000202000F02BF922E01548844208D101218B
:10020000402000F023F90021402000F01FF916E003
:100210001048844208D10121802000F017F9002104
:10022000802000F013F90AE00B48844207D1012135
:10023000801500F00BF90021A01500F007F910BDA2
:1002400000080140000C0140001001400014014072
:1002500000180140001C0140002001402DE9F04140
:10026000024600250026002000230024002791F8E4
:1002700003C00CF00F0591F803C00CF0100CBCF19A
:10028000000F03D091F802C04CEA050591F800C0B8
:10029000BCF1000F31D0146800202BE04FF0010CAE
:1002A0000CFA00F3B1F800C00CEA03069E4220D11C
:1002B00083004FF00F0C0CFA03F7BC4305FA03FC64
:1002C0004CEA040491F803C0BCF1280F06D14FF0AA
:1002D000010C0CFA00FCC2F814C00AE091F803C04B
:1002E000BCF1480F05D14FF0010C0CFA00FCC2F82C
:1002F00010C0401C0828D1D31460B1F800C0BCF174
:10030000FF0F34DD546800202EE000F1080C4FF0A0
:10031000010808FA0CF3B1F800C00CEA03069E428B
:1003200021D183004FF00F0C0CFA03F7BC4305FA00
:1003300003FC4CEA040491F803C0BCF1280F05D17A
:1003400000F1080C08FA0CF8C2F8148091F803C008
:10035000BCF1480F07D100F1080C4FF0010808FA72
:100360000CF8C2F81080401C0828CED35460BDE8B9
:10037000F081416170470161704700BFFEE700BF37
:10038000FEE7704770B5002100230F22C47804B344
:10039000154C246804F4E064C4F5E064210AC1F15A
:1003A0000403CA40447804FA03F1847814402143DA
:1003B00009010E4C0678A155047804F01F050124AC
:1003C000AC4005786D11AD0005F1E025C5F80041A0
:1003D00009E0047804F01F050124AC40044D0678C0
:1003E000761145F8264070BD0CED00E000E400E019
:1003F00080E100E002490143024A116070470000B9
:100400000000FA050CED00E07047000029B1064A33
:10041000D2690243044BDA6104E0034AD2698243A1
:10042000014BDA61704700000010024029B1064A12
:1004300092690243044B9A6104E0034A9269824341
:10044000014B9A61704700000010024029B1064A32
:10045000D2680243044BDA6004E0034AD268824364
:10046000014BDA60704700000010024030B50021F7
:100470000022002400232D4D6D6805F00C0121B1F0
:10048000042905D0082923D105E0294D056022E083
:10049000274D05601FE0254D6D6805F47012234D52
:1004A0006D6805F48034022505EB92421CB9214D9C
:1004B000554305600BE01D4D6D6805F400351DB119
:1004C0001C4D5543056002E0194D5543056002E09F
:1004D000174D056000BF00BF144D6D6805F0F001B9
:1004E0000909154D6B5C0568DD4045600F4D6D6871
:1004F00005F4E061090A104D6B5C4568DD408560DC
:100500000A4D6D6805F46051C90A0B4D6B5C456876
:10051000DD40C560054D6D6805F44041890B074D10
:100520006B5CC568B5FBF3F5056130BD001002409A
:1005300000127A0000093D00000000201000002099
:10054000704710B500F002F810BD00000CB5002097
:10055000019000903348006840F4803031490860D1
:1005600000BF3048006800F4003000900198401C43
:100570000190009818B90198B0F5A06FF1D1294801
:10058000006800F4003010B10120009001E000206C
:1005900000900098012843D12348006840F01000E3
:1005A000214908600846006820F0030008600846FA
:1005B000006840F0020008601A4840681949486025
:1005C0000846406848600846406840F480604860DB
:1005D0000846406820F47C1048600846406840F4B3
:1005E000E81048600846006840F08070086000BF6E
:1005F0000C48006800F000700028F9D009484068F5
:1006000020F00300074948600846406840F00200B7
:10061000486000BF0348406800F00C000828F9D18A
:100620000CBD00000010024000200240042808D148
:100630004FF0E021096941F004014FF0E02211611F
:1006400007E04FF0E021096921F004014FF0E022BA
:10065000116170477047000010B51348006840F002
:1006600001001149086008464068104908400E49D9
:100670004860084600680E4908400B490860084673
:10068000006820F4802008600846406820F4FE00DE
:1006900048604FF41F008860FFF753FF4FF0006081
:1006A0000449086010BD0000001002400000FFF87F
:1006B000FFFFF6FE08ED00E010B540F225511D48A1
:1006C00000F057F810B31B4800F00EF9C4B21A48F6
:1006D000008800F40040C8B91748008800F4804042
:1006E00060B10A2C03D000201349088020E0124892
:1006F000008840F400401049088019E00D2C06D114
:100700000D48008840F480400B49088010E00A48FA
:100710000088C0F30D0009490C5407480088401CAC
:100720000549088008460088C72801DD00200880A8
:1007300010BD0000004400403800002048000020A8
:1007400021B1828942F40052828104E082894DF60F
:10075000FF731A408281704702460020B1F5007F86
:1007600000D100BF13880B400BB1012000E0002036
:10077000704770B50246002400230025002040F693
:100780006A16B14200D100BFC1F3421501F01F0348
:10079000012606FA03F3012D02D19689334006E0C3
:1007A000022D02D1168A334001E0968A33400C12A2
:1007B000012606FA04F41688344013B10CB1012066
:1007C00000E0002070BDF0B503460024002600259F
:1007D000002040F66A17B94200D100BF1846C1F3A5
:1007E000421401F01F06012707FA06F5012C01D17A
:1007F0000C3004E0022C01D1103000E014301AB1AA
:1008000007682F43076002E00768AF430760F0BD49
:100810002DE9F04786B005460E460024A24600BFEB
:10082000A1460027B08900B100BF2F462C8A4CF6A4
:10083000FF700440F08804432C82AC894EF6F3101C
:100840000440B08831890843718908430443AC816E
:10085000AC8A4FF6FF400440B0890443AC8201A843
:10086000FFF704FE1F48874202D1DDF810A001E027
:10087000DDF80CA0A88900F4004040B10AEBCA00E2
:1008800000EB0A1031684900B0FBF1F807E00AEB11
:10089000CA0000EB0A1031688900B0FBF1F864204F
:1008A000B8FBF0F004012009642101FB1089A8893C
:1008B00000F4004040B1322000EBC900B0FBF1F081
:1008C00000F00700044308E0322000EB0910642127
:1008D000B0FBF1F000F00F0004432C8106B0BDE83E
:1008E000F08700000038014001468888C0F3080006
:1008F0007047C1F30802828070474FF416510160BF
:1009000000218180C18001810C21418100218181F0
:10091000704700BFFEE700000FB4054B10B503A9F8
:10092000044A029800F017F810BC5DF814FB0000B0
:10093000CD0B00083400002002E008C8121F08C1D7
:10094000002AFAD170477047002001E001C1121F50
:10095000002AFBD170472DE9F84F99469246884608
:100960000546002706E025280AD051464A4690470A
:100970006D1C7F1C28780028F5D13846BDE8F88F1B
:10098000002315F8011F18462E2915D115F8011F4F
:1009900004232A290DD06FF02F022978A1F1300409
:1009A000092C09D800EB800002EB400008446D1CC4
:1009B000F3E758F8040B6D1C2A78002ADDD0632A6F
:1009C00007D0732A0FD0104651464A4690477F1CE5
:1009D0002AE018F8042B8DF8002000218DF8011072
:1009E0006E46012103E058F8046B4FF0FF315A07BF
:1009F0004FF0000401D409E0641C84420BDA8C42FD
:100A0000FADB325D002AF7D105E0641C8C42FCDB86
:100A1000305D0028F9D1274404E016F8010B514657
:100A20004A469047641EF8D26D1CA3E72DE9F043B7
:100A3000044607AD95E8E010DDF82C80DFF8209043
:100A4000D9F80000046041608281C3810574467456
:100A50008774C0F818C0C0F81C80BDE8F08300009F
:100A60003C00002070B586B00025174804681820A7
:100A70000090A28903236169A06800F0B3F9E289BC
:100A800004236169A06800F079F9208C00210191AC
:100A90000291CDE903100091D4E90623D4E90001C5
:100AA00000F07EFB0546681C18B94FF0FF3006B019
:100AB00070BDA27C617C207C00F0C0FAA06900F0CF
:100AC000DCFA0020F3E700003C00002010B52420F1
:100AD00000F000FA044634B9114912A0FFF71CFFD8
:100AE0004FF0FF3010BD0120206040046060042002
:100AF000A060A0810820E08126202074032060747B
:100B00000220A0740E4860610E48A0614FF41640A8
:100B1000E0610C2020840C4804600020E2E7000023
:100B20006D1200085B25735D626C7565746F6F7480
:100B300068206D616C6C6F63206572726F720A0061
:100B400000080140004400403C00002010B504486B
:100B50000468A06900F084FA6069FFF71BFB10BD10
:100B60003C00002010B50248006800F03DF810BDC0
:100B70003C00002010B586B00024FFF7A7FF044614
:100B800004B11BE04FF416400F4902220323CDE9C4
:100B90000132CDE90310262008230422D10300905E
:100BA0000120FFF743FFFFF75DFF044604B102E0B9
:100BB000002006B010BDFFF7C9FF00BFFFF7D2FF4E
:100BC0004FF0FF30F5E700000044004000BF054A49
:100BD000128802F04002002AF9D0C2B2014B1B1D5C
:100BE0001A8070470038014010B5002821D0114B01
:100BF0000022001F196803E0814203D80A464968B1
:100C00000029F9D152B11368841A9C4204D10068BA
:100C100018441060104602E0506000E0186039B1DE
:100C200002680B1A934203D10B681A4402604968A8
:100C3000416010BD4000002010B503480468A18940
:100C40006069FFF796FB10BD2800002010B503482F
:100C50000468A1896069FFF78EFB10BD28000020A1
:100C600038B51748046801216068FFF7DFFB20886A
:100C7000ADF80000607E8DF80300207E8DF8020044
:100C80006946A068FFF7EAFA2188A068FFF773FBBE
:100C900001212069FFF7CAFBA089ADF80000607E42
:100CA0008DF80300207E8DF8020069466069FFF729
:100CB000D5FA21886069FFF75EFB002038BD00008F
:100CC0002800002010B51C2000F004F904461CB9CF
:100CD0000CA0FFF721FE12E0114860611148A060EE
:100CE00040202061082060602020A0812080032017
:100CF0002076102060760C480460002010BD4FF074
:100D0000FF30FBE75B25735D6C656473206770697A
:100D10006F206D616C6C6F63206572726F72000082
:100D200000180140000C01402800002010B50448C4
:100D300004686069FFF72EFAA068FFF72BFA10BD70
:100D40002800002010B502480068FFF74DFF10BDD5
:100D50002800002010B5034804682188A068FFF728
:100D600008FB10BD2800002010B503480468218846
:100D7000A068FFF700FB10BD28000020F8B507466B
:100D80000D4616461C46142C05D0102C03D01C2CE6
:100D900001D0182C06D10A490AA0FFF7BDFD4FF07B
:100DA000FF30F8BD01213846FFF740FBADF8006089
:100DB0008DF8034069462846FFF750FA0020F0E717
:100DC0004D1200085B25735D6770696F5F72656720
:100DD00069737465725F696E707574206572726F85
:100DE000720A00002DE9F84380460D4616461F465C
:100DF000089C2CB1042C03D0282C01D0482C07D1FE
:100E00000B490CA0FFF788FD4FF0FF30BDE8F883D9
:100E100001214046FFF70AFBADF800608DF8034062
:100E20008DF8027069462846FFF718FA0020EDE7B2
:100E3000381200085B25735D6770696F5F726567C4
:100E400069737465725F6F75747075742065727202
:100E50006F720A0010B50024FFF734FF044604B196
:100E600009E0FFF7FDFE044604B101E0002010BDDB
:100E7000FFF75CFF00BFFFF765FF4FF0FF30F6E7BD
:100E800010B5FFF771FFFFF7D7FE4FF4967000F033
:100E900079F8FFF75FFFFFF7D9FE4FF4967000F087
:100EA00071F810BD00F04CF800F0ACF9074800F004
:100EB000E4F8FFF75FFE064800F0DFF8FFF7CAFF2F
:100EC00003E000F0A3F8FFF7DBFFFAE7003801408A
:100ED00000440040F0B50B30154D20F00701002410
:100EE000144A0FE003688B420BD38B4205D95E1A7C
:100EF00043184768C3E9006700E04368136002C015
:100F000004E0021D10680028ECD12046002802D120
:100F1000286808B10020F0BD064A07481060074A5B
:100F2000121A22F00702C0E9002401202860D7E746
:100F30004400002040000020140100201003002085
:100F400010B56FF00400FFF771FB0A4800680A490A
:100F5000B0FBF1F0094908700846007800EB400149
:100F6000C1EBC0104FF6FF7101EAC00004490880D0
:100F700010BD00001400002000127A002C00002098
:100F80002E0000200146114A12884A434FF0E02308
:100F90005A6100229A611A46126942F001021A61EE
:100FA00000BF4FF0E022106900F001021AB100F416
:100FB0008032002AF5D04FF0E022126922F00102BF
:100FC0004FF0E0231A6100229A6170472E00002042
:100FD00070B504460D4600260DE014F8011B0948C3
:100FE000FFF787FC00BF40210648FFF7B5FB01284B
:100FF000F9D1701C86B2AE42EFDB002002490880B6
:1010000070BD0000004400403800002010B505A06D
:10101000FFF782FC07480088C0F30D010648FFF780
:10102000D7FF10BDB7A2CBCDB5C4D0C5CFA2200A83
:10103000000000003800002048000020F8B50646F7
:101040000C4615468DF800608DF801408DF8025071
:1010500001208DF803006846FFF794F90020F8BDE1
:1010600010B50446002240F225512046FFF7ABFBA5
:1010700000212046FFF764FB10BD10B50446012295
:1010800040F225512046FFF79EFB01212046FFF745
:1010900057FB10BD70B586B00025174804681820AE
:1010A0000090A28903236169A068FFF79BFEE28993
:1010B00004236169A068FFF761FE208C0021019183
:1010C0000291CDE903100091D4E90623D4E900018F
:1010D00000F066F80546681C18B94FF0FF3006B0FE
:1010E00070BDA27C617C207CFFF7A8FFA069FFF7A0
:1010F000C4FF0020F3E700003000002010B52420DA
:10110000FFF7E8FE044634B9114912A0FFF704FCCA
:101110004FF0FF3010BD02202060400360600420CB
:10112000A060C001A0814000E08125202074032040
:101130006074A0740D4860610D48A0614FF4E13007
:10114000E0610C2020840B4804600020E2E70000EE
:10115000611200085B25735D7573617274206D61A7
:101160006C6C6F63206572726F720A000008014038
:10117000003801403000002010B504480468A06920
:10118000FFF76EFF6069FFF705F810BD3000002023
:1011900010B502480068FFF727FD10BD30000020A1
:1011A0002DE9FF5F04460D4616461F46DDE910ABEC
:1011B000DDE90E896846FFF7A0FB012C04D101216F
:1011C0002846FFF723F90BE0022C04D10121284621
:1011D000FFF72CF904E04FF0FF3004B0BDE8F09FBA
:1011E0000097ADF80480ADF80690ADF808A0ADF812
:1011F0000CB01298ADF80A0069463046FFF708FBBC
:101200000020EAE710B500244FF4A060FFF7F2F8E1
:10121000FFF774FF044604B109E0FFF73BFF044603
:1012200004B101E0002010BDFFF7A6FF00BFFFF7EB
:10123000AFFF4FF0FF30F6E76770696F5F72656769
:1012400069737465725F6F75747075740067706927
:101250006F5F72656769737465725F696E707574CC
:101260000075736172745F70726F626500626C7595
:1012700065746F6F74685F756172745F70726F62AE
:1012800065000000A41200080000002048000000D3
:1012900038090008EC12000848000020C8060000C9
:1012A00048090008000000000102030401020304D1
:1012B000060708090204060800A24A04000000000C
:1012C00000000000010203040607080900000000F6
:1012D000000000000000000000000000000000000E
:0C12E00000000000000000000000000002
:0400000508000131BD
:00000001FF
